{
	"contracts/BankAccount.sol": {
		"BankAccount": {
			"abi": [
				{
					"anonymous": false,
					"inputs": [
						{
							"indexed": false,
							"internalType": "address[]",
							"name": "owners",
							"type": "address[]"
						},
						{
							"indexed": true,
							"internalType": "uint256",
							"name": "id",
							"type": "uint256"
						},
						{
							"indexed": false,
							"internalType": "uint256",
							"name": "timestamp",
							"type": "uint256"
						}
					],
					"name": "AccountCreated",
					"type": "event"
				},
				{
					"anonymous": false,
					"inputs": [
						{
							"indexed": true,
							"internalType": "address",
							"name": "user",
							"type": "address"
						},
						{
							"indexed": true,
							"internalType": "uint256",
							"name": "accountId",
							"type": "uint256"
						},
						{
							"indexed": false,
							"internalType": "uint256",
							"name": "value",
							"type": "uint256"
						},
						{
							"indexed": false,
							"internalType": "uint256",
							"name": "timestamp",
							"type": "uint256"
						}
					],
					"name": "Deposit",
					"type": "event"
				},
				{
					"anonymous": false,
					"inputs": [
						{
							"indexed": true,
							"internalType": "uint256",
							"name": "withdrawId",
							"type": "uint256"
						},
						{
							"indexed": false,
							"internalType": "uint256",
							"name": "timestamp",
							"type": "uint256"
						}
					],
					"name": "Withdraw",
					"type": "event"
				},
				{
					"anonymous": false,
					"inputs": [
						{
							"indexed": true,
							"internalType": "address",
							"name": "user",
							"type": "address"
						},
						{
							"indexed": true,
							"internalType": "uint256",
							"name": "accountId",
							"type": "uint256"
						},
						{
							"indexed": true,
							"internalType": "uint256",
							"name": "withdrawId",
							"type": "uint256"
						},
						{
							"indexed": false,
							"internalType": "uint256",
							"name": "amount",
							"type": "uint256"
						},
						{
							"indexed": false,
							"internalType": "uint256",
							"name": "timestamp",
							"type": "uint256"
						}
					],
					"name": "WithdrawRequested",
					"type": "event"
				},
				{
					"inputs": [
						{
							"internalType": "uint256",
							"name": "accountId",
							"type": "uint256"
						},
						{
							"internalType": "uint256",
							"name": "withdrawId",
							"type": "uint256"
						}
					],
					"name": "approveWithdrawal",
					"outputs": [],
					"stateMutability": "nonpayable",
					"type": "function"
				},
				{
					"inputs": [
						{
							"internalType": "address[]",
							"name": "otherOwners",
							"type": "address[]"
						}
					],
					"name": "createAccount",
					"outputs": [],
					"stateMutability": "nonpayable",
					"type": "function"
				},
				{
					"inputs": [
						{
							"internalType": "uint256",
							"name": "accountId",
							"type": "uint256"
						}
					],
					"name": "deposit",
					"outputs": [],
					"stateMutability": "payable",
					"type": "function"
				},
				{
					"inputs": [],
					"name": "getAccounts",
					"outputs": [
						{
							"internalType": "uint256[]",
							"name": "",
							"type": "uint256[]"
						}
					],
					"stateMutability": "view",
					"type": "function"
				},
				{
					"inputs": [
						{
							"internalType": "uint256",
							"name": "accountId",
							"type": "uint256"
						},
						{
							"internalType": "uint256",
							"name": "withdrawId",
							"type": "uint256"
						}
					],
					"name": "getApprovals",
					"outputs": [
						{
							"internalType": "uint256",
							"name": "",
							"type": "uint256"
						}
					],
					"stateMutability": "view",
					"type": "function"
				},
				{
					"inputs": [
						{
							"internalType": "uint256",
							"name": "accountId",
							"type": "uint256"
						}
					],
					"name": "getBalance",
					"outputs": [
						{
							"internalType": "uint256",
							"name": "",
							"type": "uint256"
						}
					],
					"stateMutability": "view",
					"type": "function"
				},
				{
					"inputs": [
						{
							"internalType": "uint256",
							"name": "accountId",
							"type": "uint256"
						}
					],
					"name": "getOwners",
					"outputs": [
						{
							"internalType": "address[]",
							"name": "",
							"type": "address[]"
						}
					],
					"stateMutability": "view",
					"type": "function"
				},
				{
					"inputs": [
						{
							"internalType": "uint256",
							"name": "accountId",
							"type": "uint256"
						},
						{
							"internalType": "uint256",
							"name": "amount",
							"type": "uint256"
						}
					],
					"name": "requestWithdrawal",
					"outputs": [],
					"stateMutability": "nonpayable",
					"type": "function"
				},
				{
					"inputs": [
						{
							"internalType": "uint256",
							"name": "accountId",
							"type": "uint256"
						},
						{
							"internalType": "uint256",
							"name": "withdrawId",
							"type": "uint256"
						}
					],
					"name": "withdraw",
					"outputs": [],
					"stateMutability": "nonpayable",
					"type": "function"
				}
			],
			"devdoc": {
				"kind": "dev",
				"methods": {},
				"version": 1
			},
			"evm": {
				"assembly": "    /* \"contracts/BankAccount.sol\":76:5894  contract BankAccount {... */\n  mstore(0x40, 0x80)\n  callvalue\n  dup1\n  iszero\n  tag_1\n  jumpi\n  0x00\n  dup1\n  revert\ntag_1:\n  pop\n  dataSize(sub_0)\n  dup1\n  dataOffset(sub_0)\n  0x00\n  codecopy\n  0x00\n  return\nstop\n\nsub_0: assembly {\n        /* \"contracts/BankAccount.sol\":76:5894  contract BankAccount {... */\n      mstore(0x40, 0x80)\n      jumpi(tag_1, lt(calldatasize, 0x04))\n      shr(0xe0, calldataload(0x00))\n      dup1\n      0x8a48ac03\n      gt\n      tag_11\n      jumpi\n      dup1\n      0x8a48ac03\n      eq\n      tag_6\n      jumpi\n      dup1\n      0xae2ebd7f\n      eq\n      tag_7\n      jumpi\n      dup1\n      0xb6b55f25\n      eq\n      tag_8\n      jumpi\n      dup1\n      0xee4525d5\n      eq\n      tag_9\n      jumpi\n      dup1\n      0xeff63433\n      eq\n      tag_10\n      jumpi\n      jump(tag_1)\n    tag_11:\n      dup1\n      0x1a0bd42b\n      eq\n      tag_2\n      jumpi\n      dup1\n      0x1e010439\n      eq\n      tag_3\n      jumpi\n      dup1\n      0x441a3e70\n      eq\n      tag_4\n      jumpi\n      dup1\n      0x867275a5\n      eq\n      tag_5\n      jumpi\n    tag_1:\n      0x00\n      dup1\n      revert\n        /* \"contracts/BankAccount.sol\":4339:4779  function approveWithdrawal(uint256 accountId, uint256 withdrawId) external accountOwner(accountId) canApprove(accountId, withdrawId){... */\n    tag_2:\n      callvalue\n      dup1\n      iszero\n      tag_12\n      jumpi\n      0x00\n      dup1\n      revert\n    tag_12:\n      pop\n      tag_13\n      0x04\n      dup1\n      calldatasize\n      sub\n      dup2\n      add\n      swap1\n      tag_14\n      swap2\n      swap1\n      tag_15\n      jump\t// in\n    tag_14:\n      tag_16\n      jump\t// in\n    tag_13:\n      stop\n        /* \"contracts/BankAccount.sol\":5332:5452  function getBalance (uint256 accountId) public view returns (uint) {... */\n    tag_3:\n      callvalue\n      dup1\n      iszero\n      tag_17\n      jumpi\n      0x00\n      dup1\n      revert\n    tag_17:\n      pop\n      tag_18\n      0x04\n      dup1\n      calldatasize\n      sub\n      dup2\n      add\n      swap1\n      tag_19\n      swap2\n      swap1\n      tag_20\n      jump\t// in\n    tag_19:\n      tag_21\n      jump\t// in\n    tag_18:\n      mload(0x40)\n      tag_22\n      swap2\n      swap1\n      tag_23\n      jump\t// in\n    tag_22:\n      mload(0x40)\n      dup1\n      swap2\n      sub\n      swap1\n      return\n        /* \"contracts/BankAccount.sol\":4787:5324  function withdraw(uint256 accountId, uint256 withdrawId) external canWithdraw(accountId, withdrawId) {... */\n    tag_4:\n      callvalue\n      dup1\n      iszero\n      tag_24\n      jumpi\n      0x00\n      dup1\n      revert\n    tag_24:\n      pop\n      tag_25\n      0x04\n      dup1\n      calldatasize\n      sub\n      dup2\n      add\n      swap1\n      tag_26\n      swap2\n      swap1\n      tag_15\n      jump\t// in\n    tag_26:\n      tag_27\n      jump\t// in\n    tag_25:\n      stop\n        /* \"contracts/BankAccount.sol\":5598:5773  function getApprovals (uint256 accountId, uint256 withdrawId) public view returns (uint) {... */\n    tag_5:\n      callvalue\n      dup1\n      iszero\n      tag_28\n      jumpi\n      0x00\n      dup1\n      revert\n    tag_28:\n      pop\n      tag_29\n      0x04\n      dup1\n      calldatasize\n      sub\n      dup2\n      add\n      swap1\n      tag_30\n      swap2\n      swap1\n      tag_15\n      jump\t// in\n    tag_30:\n      tag_31\n      jump\t// in\n    tag_29:\n      mload(0x40)\n      tag_32\n      swap2\n      swap1\n      tag_23\n      jump\t// in\n    tag_32:\n      mload(0x40)\n      dup1\n      swap2\n      sub\n      swap1\n      return\n        /* \"contracts/BankAccount.sol\":5781:5891  function getAccounts () public view returns (uint[] memory) {... */\n    tag_6:\n      callvalue\n      dup1\n      iszero\n      tag_33\n      jumpi\n      0x00\n      dup1\n      revert\n    tag_33:\n      pop\n      tag_34\n      tag_35\n      jump\t// in\n    tag_34:\n      mload(0x40)\n      tag_36\n      swap2\n      swap1\n      tag_37\n      jump\t// in\n    tag_36:\n      mload(0x40)\n      dup1\n      swap2\n      sub\n      swap1\n      return\n        /* \"contracts/BankAccount.sol\":3885:4331  function requestWithdrawal (uint256 accountId, uint256 amount) external accountOwner(accountId) sufficientBalance(accountId, amount) {... */\n    tag_7:\n      callvalue\n      dup1\n      iszero\n      tag_38\n      jumpi\n      0x00\n      dup1\n      revert\n    tag_38:\n      pop\n      tag_39\n      0x04\n      dup1\n      calldatasize\n      sub\n      dup2\n      add\n      swap1\n      tag_40\n      swap2\n      swap1\n      tag_15\n      jump\t// in\n    tag_40:\n      tag_41\n      jump\t// in\n    tag_39:\n      stop\n        /* \"contracts/BankAccount.sol\":2981:3115  function deposit (uint accountId) external payable accountOwner(accountId) {... */\n    tag_8:\n      tag_42\n      0x04\n      dup1\n      calldatasize\n      sub\n      dup2\n      add\n      swap1\n      tag_43\n      swap2\n      swap1\n      tag_20\n      jump\t// in\n    tag_43:\n      tag_44\n      jump\t// in\n    tag_42:\n      stop\n        /* \"contracts/BankAccount.sol\":5460:5590  function getOwners (uint256 accountId) public view returns (address[] memory) {... */\n    tag_9:\n      callvalue\n      dup1\n      iszero\n      tag_45\n      jumpi\n      0x00\n      dup1\n      revert\n    tag_45:\n      pop\n      tag_46\n      0x04\n      dup1\n      calldatasize\n      sub\n      dup2\n      add\n      swap1\n      tag_47\n      swap2\n      swap1\n      tag_20\n      jump\t// in\n    tag_47:\n      tag_48\n      jump\t// in\n    tag_46:\n      mload(0x40)\n      tag_49\n      swap2\n      swap1\n      tag_50\n      jump\t// in\n    tag_49:\n      mload(0x40)\n      dup1\n      swap2\n      sub\n      swap1\n      return\n        /* \"contracts/BankAccount.sol\":3123:3877  function createAccount (address[] calldata otherOwners) external validOwners(otherOwners) {... */\n    tag_10:\n      callvalue\n      dup1\n      iszero\n      tag_51\n      jumpi\n      0x00\n      dup1\n      revert\n    tag_51:\n      pop\n      tag_52\n      0x04\n      dup1\n      calldatasize\n      sub\n      dup2\n      add\n      swap1\n      tag_53\n      swap2\n      swap1\n      tag_54\n      jump\t// in\n    tag_53:\n      tag_55\n      jump\t// in\n    tag_52:\n      stop\n        /* \"contracts/BankAccount.sol\":4339:4779  function approveWithdrawal(uint256 accountId, uint256 withdrawId) external accountOwner(accountId) canApprove(accountId, withdrawId){... */\n    tag_16:\n        /* \"contracts/BankAccount.sol\":4427:4436  accountId */\n      dup2\n        /* \"contracts/BankAccount.sol\":1050:1062  bool isOwner */\n      0x00\n        /* \"contracts/BankAccount.sol\":1078:1086  uint idx */\n      dup1\n        /* \"contracts/BankAccount.sol\":1073:1286  for (uint idx; idx < accounts[accountId].owners.length; idx++) {... */\n    tag_57:\n        /* \"contracts/BankAccount.sol\":1094:1102  accounts */\n      0x00\n        /* \"contracts/BankAccount.sol\":1094:1113  accounts[accountId] */\n      dup1\n        /* \"contracts/BankAccount.sol\":1103:1112  accountId */\n      dup5\n        /* \"contracts/BankAccount.sol\":1094:1113  accounts[accountId] */\n      dup2\n      mstore\n      0x20\n      add\n      swap1\n      dup2\n      mstore\n      0x20\n      add\n      0x00\n      keccak256\n        /* \"contracts/BankAccount.sol\":1094:1120  accounts[accountId].owners */\n      0x00\n      add\n        /* \"contracts/BankAccount.sol\":1094:1127  accounts[accountId].owners.length */\n      dup1\n      sload\n      swap1\n      pop\n        /* \"contracts/BankAccount.sol\":1088:1091  idx */\n      dup2\n        /* \"contracts/BankAccount.sol\":1088:1127  idx < accounts[accountId].owners.length */\n      lt\n        /* \"contracts/BankAccount.sol\":1073:1286  for (uint idx; idx < accounts[accountId].owners.length; idx++) {... */\n      iszero\n      tag_58\n      jumpi\n        /* \"contracts/BankAccount.sol\":1190:1200  msg.sender */\n      caller\n        /* \"contracts/BankAccount.sol\":1155:1200  accounts[accountId].owners[idx] == msg.sender */\n      0xffffffffffffffffffffffffffffffffffffffff\n      and\n        /* \"contracts/BankAccount.sol\":1155:1163  accounts */\n      0x00\n        /* \"contracts/BankAccount.sol\":1155:1174  accounts[accountId] */\n      dup1\n        /* \"contracts/BankAccount.sol\":1164:1173  accountId */\n      dup6\n        /* \"contracts/BankAccount.sol\":1155:1174  accounts[accountId] */\n      dup2\n      mstore\n      0x20\n      add\n      swap1\n      dup2\n      mstore\n      0x20\n      add\n      0x00\n      keccak256\n        /* \"contracts/BankAccount.sol\":1155:1181  accounts[accountId].owners */\n      0x00\n      add\n        /* \"contracts/BankAccount.sol\":1182:1185  idx */\n      dup3\n        /* \"contracts/BankAccount.sol\":1155:1186  accounts[accountId].owners[idx] */\n      dup2\n      sload\n      dup2\n      lt\n      tag_60\n      jumpi\n      tag_61\n      tag_62\n      jump\t// in\n    tag_61:\n    tag_60:\n      swap1\n      0x00\n      mstore\n      keccak256(0x00, 0x20)\n      add\n      0x00\n      swap1\n      sload\n      swap1\n      0x0100\n      exp\n      swap1\n      div\n      0xffffffffffffffffffffffffffffffffffffffff\n      and\n        /* \"contracts/BankAccount.sol\":1155:1200  accounts[accountId].owners[idx] == msg.sender */\n      0xffffffffffffffffffffffffffffffffffffffff\n      and\n      sub\n        /* \"contracts/BankAccount.sol\":1151:1275  if (accounts[accountId].owners[idx] == msg.sender) {... */\n      tag_64\n      jumpi\n        /* \"contracts/BankAccount.sol\":1231:1235  true */\n      0x01\n        /* \"contracts/BankAccount.sol\":1221:1235  isOwner = true */\n      swap2\n      pop\n        /* \"contracts/BankAccount.sol\":1254:1259  break */\n      jump(tag_58)\n        /* \"contracts/BankAccount.sol\":1151:1275  if (accounts[accountId].owners[idx] == msg.sender) {... */\n    tag_64:\n        /* \"contracts/BankAccount.sol\":1129:1134  idx++ */\n      dup1\n      dup1\n      0x01\n      add\n      swap2\n      pop\n      pop\n        /* \"contracts/BankAccount.sol\":1073:1286  for (uint idx; idx < accounts[accountId].owners.length; idx++) {... */\n      jump(tag_57)\n    tag_58:\n      pop\n        /* \"contracts/BankAccount.sol\":1304:1311  isOwner */\n      dup1\n        /* \"contracts/BankAccount.sol\":1296:1352  require(isOwner, \"you are not an owner of this account\") */\n      tag_65\n      jumpi\n      mload(0x40)\n      0x08c379a000000000000000000000000000000000000000000000000000000000\n      dup2\n      mstore\n      0x04\n      add\n      tag_66\n      swap1\n      tag_67\n      jump\t// in\n    tag_66:\n      mload(0x40)\n      dup1\n      swap2\n      sub\n      swap1\n      revert\n    tag_65:\n        /* \"contracts/BankAccount.sol\":4449:4458  accountId */\n      dup4\n        /* \"contracts/BankAccount.sol\":4460:4470  withdrawId */\n      dup4\n        /* \"contracts/BankAccount.sol\":2140:2148  accounts */\n      0x00\n        /* \"contracts/BankAccount.sol\":2140:2159  accounts[accountId] */\n      dup1\n        /* \"contracts/BankAccount.sol\":2149:2158  accountId */\n      dup4\n        /* \"contracts/BankAccount.sol\":2140:2159  accounts[accountId] */\n      dup2\n      mstore\n      0x20\n      add\n      swap1\n      dup2\n      mstore\n      0x20\n      add\n      0x00\n      keccak256\n        /* \"contracts/BankAccount.sol\":2140:2176  accounts[accountId].withdrawRequests */\n      0x02\n      add\n        /* \"contracts/BankAccount.sol\":2140:2188  accounts[accountId].withdrawRequests[withdrawId] */\n      0x00\n        /* \"contracts/BankAccount.sol\":2177:2187  withdrawId */\n      dup3\n        /* \"contracts/BankAccount.sol\":2140:2188  accounts[accountId].withdrawRequests[withdrawId] */\n      dup2\n      mstore\n      0x20\n      add\n      swap1\n      dup2\n      mstore\n      0x20\n      add\n      0x00\n      keccak256\n        /* \"contracts/BankAccount.sol\":2140:2197  accounts[accountId].withdrawRequests[withdrawId].approved */\n      0x04\n      add\n      0x00\n      swap1\n      sload\n      swap1\n      0x0100\n      exp\n      swap1\n      div\n      0xff\n      and\n        /* \"contracts/BankAccount.sol\":2139:2197  !accounts[accountId].withdrawRequests[withdrawId].approved */\n      iszero\n        /* \"contracts/BankAccount.sol\":2131:2234  require(!accounts[accountId].withdrawRequests[withdrawId].approved, \"this request is already approved\") */\n      tag_69\n      jumpi\n      mload(0x40)\n      0x08c379a000000000000000000000000000000000000000000000000000000000\n      dup2\n      mstore\n      0x04\n      add\n      tag_70\n      swap1\n      tag_71\n      jump\t// in\n    tag_70:\n      mload(0x40)\n      dup1\n      swap2\n      sub\n      swap1\n      revert\n    tag_69:\n        /* \"contracts/BankAccount.sol\":2310:2320  msg.sender */\n      caller\n        /* \"contracts/BankAccount.sol\":2253:2320  accounts[accountId].withdrawRequests[withdrawId].user != msg.sender */\n      0xffffffffffffffffffffffffffffffffffffffff\n      and\n        /* \"contracts/BankAccount.sol\":2253:2261  accounts */\n      0x00\n        /* \"contracts/BankAccount.sol\":2253:2272  accounts[accountId] */\n      dup1\n        /* \"contracts/BankAccount.sol\":2262:2271  accountId */\n      dup5\n        /* \"contracts/BankAccount.sol\":2253:2272  accounts[accountId] */\n      dup2\n      mstore\n      0x20\n      add\n      swap1\n      dup2\n      mstore\n      0x20\n      add\n      0x00\n      keccak256\n        /* \"contracts/BankAccount.sol\":2253:2289  accounts[accountId].withdrawRequests */\n      0x02\n      add\n        /* \"contracts/BankAccount.sol\":2253:2301  accounts[accountId].withdrawRequests[withdrawId] */\n      0x00\n        /* \"contracts/BankAccount.sol\":2290:2300  withdrawId */\n      dup4\n        /* \"contracts/BankAccount.sol\":2253:2301  accounts[accountId].withdrawRequests[withdrawId] */\n      dup2\n      mstore\n      0x20\n      add\n      swap1\n      dup2\n      mstore\n      0x20\n      add\n      0x00\n      keccak256\n        /* \"contracts/BankAccount.sol\":2253:2306  accounts[accountId].withdrawRequests[withdrawId].user */\n      0x00\n      add\n      0x00\n      swap1\n      sload\n      swap1\n      0x0100\n      exp\n      swap1\n      div\n      0xffffffffffffffffffffffffffffffffffffffff\n      and\n        /* \"contracts/BankAccount.sol\":2253:2320  accounts[accountId].withdrawRequests[withdrawId].user != msg.sender */\n      0xffffffffffffffffffffffffffffffffffffffff\n      and\n      sub\n        /* \"contracts/BankAccount.sol\":2245:2356  require(accounts[accountId].withdrawRequests[withdrawId].user != msg.sender, \"you cannot approve this request\") */\n      tag_72\n      jumpi\n      mload(0x40)\n      0x08c379a000000000000000000000000000000000000000000000000000000000\n      dup2\n      mstore\n      0x04\n      add\n      tag_73\n      swap1\n      tag_74\n      jump\t// in\n    tag_73:\n      mload(0x40)\n      dup1\n      swap2\n      sub\n      swap1\n      revert\n    tag_72:\n        /* \"contracts/BankAccount.sol\":2440:2441  0 */\n      0x00\n        /* \"contracts/BankAccount.sol\":2375:2442  accounts[accountId].withdrawRequests[withdrawId].user != address(0) */\n      0xffffffffffffffffffffffffffffffffffffffff\n      and\n        /* \"contracts/BankAccount.sol\":2375:2383  accounts */\n      0x00\n        /* \"contracts/BankAccount.sol\":2375:2394  accounts[accountId] */\n      dup1\n        /* \"contracts/BankAccount.sol\":2384:2393  accountId */\n      dup5\n        /* \"contracts/BankAccount.sol\":2375:2394  accounts[accountId] */\n      dup2\n      mstore\n      0x20\n      add\n      swap1\n      dup2\n      mstore\n      0x20\n      add\n      0x00\n      keccak256\n        /* \"contracts/BankAccount.sol\":2375:2411  accounts[accountId].withdrawRequests */\n      0x02\n      add\n        /* \"contracts/BankAccount.sol\":2375:2423  accounts[accountId].withdrawRequests[withdrawId] */\n      0x00\n        /* \"contracts/BankAccount.sol\":2412:2422  withdrawId */\n      dup4\n        /* \"contracts/BankAccount.sol\":2375:2423  accounts[accountId].withdrawRequests[withdrawId] */\n      dup2\n      mstore\n      0x20\n      add\n      swap1\n      dup2\n      mstore\n      0x20\n      add\n      0x00\n      keccak256\n        /* \"contracts/BankAccount.sol\":2375:2428  accounts[accountId].withdrawRequests[withdrawId].user */\n      0x00\n      add\n      0x00\n      swap1\n      sload\n      swap1\n      0x0100\n      exp\n      swap1\n      div\n      0xffffffffffffffffffffffffffffffffffffffff\n      and\n        /* \"contracts/BankAccount.sol\":2375:2442  accounts[accountId].withdrawRequests[withdrawId].user != address(0) */\n      0xffffffffffffffffffffffffffffffffffffffff\n      and\n      sub\n        /* \"contracts/BankAccount.sol\":2367:2474  require(accounts[accountId].withdrawRequests[withdrawId].user != address(0), \"this request does not exist\") */\n      tag_75\n      jumpi\n      mload(0x40)\n      0x08c379a000000000000000000000000000000000000000000000000000000000\n      dup2\n      mstore\n      0x04\n      add\n      tag_76\n      swap1\n      tag_77\n      jump\t// in\n    tag_76:\n      mload(0x40)\n      dup1\n      swap2\n      sub\n      swap1\n      revert\n    tag_75:\n        /* \"contracts/BankAccount.sol\":2494:2502  accounts */\n      0x00\n        /* \"contracts/BankAccount.sol\":2494:2513  accounts[accountId] */\n      dup1\n        /* \"contracts/BankAccount.sol\":2503:2512  accountId */\n      dup4\n        /* \"contracts/BankAccount.sol\":2494:2513  accounts[accountId] */\n      dup2\n      mstore\n      0x20\n      add\n      swap1\n      dup2\n      mstore\n      0x20\n      add\n      0x00\n      keccak256\n        /* \"contracts/BankAccount.sol\":2494:2530  accounts[accountId].withdrawRequests */\n      0x02\n      add\n        /* \"contracts/BankAccount.sol\":2494:2542  accounts[accountId].withdrawRequests[withdrawId] */\n      0x00\n        /* \"contracts/BankAccount.sol\":2531:2541  withdrawId */\n      dup3\n        /* \"contracts/BankAccount.sol\":2494:2542  accounts[accountId].withdrawRequests[withdrawId] */\n      dup2\n      mstore\n      0x20\n      add\n      swap1\n      dup2\n      mstore\n      0x20\n      add\n      0x00\n      keccak256\n        /* \"contracts/BankAccount.sol\":2494:2557  accounts[accountId].withdrawRequests[withdrawId].ownersApproved */\n      0x03\n      add\n        /* \"contracts/BankAccount.sol\":2494:2569  accounts[accountId].withdrawRequests[withdrawId].ownersApproved[msg.sender] */\n      0x00\n        /* \"contracts/BankAccount.sol\":2558:2568  msg.sender */\n      caller\n        /* \"contracts/BankAccount.sol\":2494:2569  accounts[accountId].withdrawRequests[withdrawId].ownersApproved[msg.sender] */\n      0xffffffffffffffffffffffffffffffffffffffff\n      and\n      0xffffffffffffffffffffffffffffffffffffffff\n      and\n      dup2\n      mstore\n      0x20\n      add\n      swap1\n      dup2\n      mstore\n      0x20\n      add\n      0x00\n      keccak256\n      0x00\n      swap1\n      sload\n      swap1\n      0x0100\n      exp\n      swap1\n      div\n      0xff\n      and\n        /* \"contracts/BankAccount.sol\":2493:2569  !accounts[accountId].withdrawRequests[withdrawId].ownersApproved[msg.sender] */\n      iszero\n        /* \"contracts/BankAccount.sol\":2485:2612  require(!accounts[accountId].withdrawRequests[withdrawId].ownersApproved[msg.sender], \"you have already approved this request\") */\n      tag_78\n      jumpi\n      mload(0x40)\n      0x08c379a000000000000000000000000000000000000000000000000000000000\n      dup2\n      mstore\n      0x04\n      add\n      tag_79\n      swap1\n      tag_80\n      jump\t// in\n    tag_79:\n      mload(0x40)\n      dup1\n      swap2\n      sub\n      swap1\n      revert\n    tag_78:\n        /* \"contracts/BankAccount.sol\":4482:4513  WithdrawRequest storage request */\n      0x00\n        /* \"contracts/BankAccount.sol\":4516:4524  accounts */\n      dup1\n        /* \"contracts/BankAccount.sol\":4516:4535  accounts[accountId] */\n      0x00\n        /* \"contracts/BankAccount.sol\":4525:4534  accountId */\n      dup9\n        /* \"contracts/BankAccount.sol\":4516:4535  accounts[accountId] */\n      dup2\n      mstore\n      0x20\n      add\n      swap1\n      dup2\n      mstore\n      0x20\n      add\n      0x00\n      keccak256\n        /* \"contracts/BankAccount.sol\":4516:4552  accounts[accountId].withdrawRequests */\n      0x02\n      add\n        /* \"contracts/BankAccount.sol\":4516:4564  accounts[accountId].withdrawRequests[withdrawId] */\n      0x00\n        /* \"contracts/BankAccount.sol\":4553:4563  withdrawId */\n      dup8\n        /* \"contracts/BankAccount.sol\":4516:4564  accounts[accountId].withdrawRequests[withdrawId] */\n      dup2\n      mstore\n      0x20\n      add\n      swap1\n      dup2\n      mstore\n      0x20\n      add\n      0x00\n      keccak256\n        /* \"contracts/BankAccount.sol\":4482:4564  WithdrawRequest storage request = accounts[accountId].withdrawRequests[withdrawId] */\n      swap1\n      pop\n        /* \"contracts/BankAccount.sol\":4575:4582  request */\n      dup1\n        /* \"contracts/BankAccount.sol\":4575:4592  request.approvals */\n      0x02\n      add\n      0x00\n        /* \"contracts/BankAccount.sol\":4575:4594  request.approvals++ */\n      dup2\n      sload\n      dup1\n      swap3\n      swap2\n      swap1\n      tag_82\n      swap1\n      tag_83\n      jump\t// in\n    tag_82:\n      swap2\n      swap1\n      pop\n      sstore\n      pop\n        /* \"contracts/BankAccount.sol\":4642:4646  true */\n      0x01\n        /* \"contracts/BankAccount.sol\":4605:4612  request */\n      dup2\n        /* \"contracts/BankAccount.sol\":4605:4627  request.ownersApproved */\n      0x03\n      add\n        /* \"contracts/BankAccount.sol\":4605:4639  request.ownersApproved[msg.sender] */\n      0x00\n        /* \"contracts/BankAccount.sol\":4628:4638  msg.sender */\n      caller\n        /* \"contracts/BankAccount.sol\":4605:4639  request.ownersApproved[msg.sender] */\n      0xffffffffffffffffffffffffffffffffffffffff\n      and\n      0xffffffffffffffffffffffffffffffffffffffff\n      and\n      dup2\n      mstore\n      0x20\n      add\n      swap1\n      dup2\n      mstore\n      0x20\n      add\n      0x00\n      keccak256\n      0x00\n        /* \"contracts/BankAccount.sol\":4605:4646  request.ownersApproved[msg.sender] = true */\n      0x0100\n      exp\n      dup2\n      sload\n      dup2\n      0xff\n      mul\n      not\n      and\n      swap1\n      dup4\n      iszero\n      iszero\n      mul\n      or\n      swap1\n      sstore\n      pop\n        /* \"contracts/BankAccount.sol\":4719:4720  1 */\n      0x01\n        /* \"contracts/BankAccount.sol\":4683:4691  accounts */\n      0x00\n        /* \"contracts/BankAccount.sol\":4683:4702  accounts[accountId] */\n      dup1\n        /* \"contracts/BankAccount.sol\":4692:4701  accountId */\n      dup10\n        /* \"contracts/BankAccount.sol\":4683:4702  accounts[accountId] */\n      dup2\n      mstore\n      0x20\n      add\n      swap1\n      dup2\n      mstore\n      0x20\n      add\n      0x00\n      keccak256\n        /* \"contracts/BankAccount.sol\":4683:4709  accounts[accountId].owners */\n      0x00\n      add\n        /* \"contracts/BankAccount.sol\":4683:4716  accounts[accountId].owners.length */\n      dup1\n      sload\n      swap1\n      pop\n        /* \"contracts/BankAccount.sol\":4683:4720  accounts[accountId].owners.length - 1 */\n      tag_84\n      swap2\n      swap1\n      tag_85\n      jump\t// in\n    tag_84:\n        /* \"contracts/BankAccount.sol\":4662:4669  request */\n      dup2\n        /* \"contracts/BankAccount.sol\":4662:4679  request.approvals */\n      0x02\n      add\n      sload\n        /* \"contracts/BankAccount.sol\":4662:4720  request.approvals == accounts[accountId].owners.length - 1 */\n      sub\n        /* \"contracts/BankAccount.sol\":4659:4772  if(request.approvals == accounts[accountId].owners.length - 1) {... */\n      tag_86\n      jumpi\n        /* \"contracts/BankAccount.sol\":4756:4760  true */\n      0x01\n        /* \"contracts/BankAccount.sol\":4737:4744  request */\n      dup2\n        /* \"contracts/BankAccount.sol\":4737:4753  request.approved */\n      0x04\n      add\n      0x00\n        /* \"contracts/BankAccount.sol\":4737:4760  request.approved = true */\n      0x0100\n      exp\n      dup2\n      sload\n      dup2\n      0xff\n      mul\n      not\n      and\n      swap1\n      dup4\n      iszero\n      iszero\n      mul\n      or\n      swap1\n      sstore\n      pop\n        /* \"contracts/BankAccount.sol\":4659:4772  if(request.approvals == accounts[accountId].owners.length - 1) {... */\n    tag_86:\n        /* \"contracts/BankAccount.sol\":4471:4779  {... */\n      pop\n        /* \"contracts/BankAccount.sol\":1363:1364  _ */\n      pop\n      pop\n        /* \"contracts/BankAccount.sol\":1039:1372  {... */\n      pop\n        /* \"contracts/BankAccount.sol\":4339:4779  function approveWithdrawal(uint256 accountId, uint256 withdrawId) external accountOwner(accountId) canApprove(accountId, withdrawId){... */\n      pop\n      pop\n      pop\n      jump\t// out\n        /* \"contracts/BankAccount.sol\":5332:5452  function getBalance (uint256 accountId) public view returns (uint) {... */\n    tag_21:\n        /* \"contracts/BankAccount.sol\":5393:5397  uint */\n      0x00\n        /* \"contracts/BankAccount.sol\":5417:5425  accounts */\n      dup1\n        /* \"contracts/BankAccount.sol\":5417:5436  accounts[accountId] */\n      0x00\n        /* \"contracts/BankAccount.sol\":5426:5435  accountId */\n      dup4\n        /* \"contracts/BankAccount.sol\":5417:5436  accounts[accountId] */\n      dup2\n      mstore\n      0x20\n      add\n      swap1\n      dup2\n      mstore\n      0x20\n      add\n      0x00\n      keccak256\n        /* \"contracts/BankAccount.sol\":5417:5444  accounts[accountId].balance */\n      0x01\n      add\n      sload\n        /* \"contracts/BankAccount.sol\":5410:5444  return accounts[accountId].balance */\n      swap1\n      pop\n        /* \"contracts/BankAccount.sol\":5332:5452  function getBalance (uint256 accountId) public view returns (uint) {... */\n      swap2\n      swap1\n      pop\n      jump\t// out\n        /* \"contracts/BankAccount.sol\":4787:5324  function withdraw(uint256 accountId, uint256 withdrawId) external canWithdraw(accountId, withdrawId) {... */\n    tag_27:\n        /* \"contracts/BankAccount.sol\":4865:4874  accountId */\n      dup2\n        /* \"contracts/BankAccount.sol\":4876:4886  withdrawId */\n      dup2\n        /* \"contracts/BankAccount.sol\":2778:2788  msg.sender */\n      caller\n        /* \"contracts/BankAccount.sol\":2721:2788  accounts[accountId].withdrawRequests[withdrawId].user == msg.sender */\n      0xffffffffffffffffffffffffffffffffffffffff\n      and\n        /* \"contracts/BankAccount.sol\":2721:2729  accounts */\n      0x00\n        /* \"contracts/BankAccount.sol\":2721:2740  accounts[accountId] */\n      dup1\n        /* \"contracts/BankAccount.sol\":2730:2739  accountId */\n      dup5\n        /* \"contracts/BankAccount.sol\":2721:2740  accounts[accountId] */\n      dup2\n      mstore\n      0x20\n      add\n      swap1\n      dup2\n      mstore\n      0x20\n      add\n      0x00\n      keccak256\n        /* \"contracts/BankAccount.sol\":2721:2757  accounts[accountId].withdrawRequests */\n      0x02\n      add\n        /* \"contracts/BankAccount.sol\":2721:2769  accounts[accountId].withdrawRequests[withdrawId] */\n      0x00\n        /* \"contracts/BankAccount.sol\":2758:2768  withdrawId */\n      dup4\n        /* \"contracts/BankAccount.sol\":2721:2769  accounts[accountId].withdrawRequests[withdrawId] */\n      dup2\n      mstore\n      0x20\n      add\n      swap1\n      dup2\n      mstore\n      0x20\n      add\n      0x00\n      keccak256\n        /* \"contracts/BankAccount.sol\":2721:2774  accounts[accountId].withdrawRequests[withdrawId].user */\n      0x00\n      add\n      0x00\n      swap1\n      sload\n      swap1\n      0x0100\n      exp\n      swap1\n      div\n      0xffffffffffffffffffffffffffffffffffffffff\n      and\n        /* \"contracts/BankAccount.sol\":2721:2788  accounts[accountId].withdrawRequests[withdrawId].user == msg.sender */\n      0xffffffffffffffffffffffffffffffffffffffff\n      and\n      eq\n        /* \"contracts/BankAccount.sol\":2713:2824  require(accounts[accountId].withdrawRequests[withdrawId].user == msg.sender, \"you did not create this request\") */\n      tag_89\n      jumpi\n      mload(0x40)\n      0x08c379a000000000000000000000000000000000000000000000000000000000\n      dup2\n      mstore\n      0x04\n      add\n      tag_90\n      swap1\n      tag_91\n      jump\t// in\n    tag_90:\n      mload(0x40)\n      dup1\n      swap2\n      sub\n      swap1\n      revert\n    tag_89:\n        /* \"contracts/BankAccount.sol\":2843:2851  accounts */\n      0x00\n        /* \"contracts/BankAccount.sol\":2843:2862  accounts[accountId] */\n      dup1\n        /* \"contracts/BankAccount.sol\":2852:2861  accountId */\n      dup4\n        /* \"contracts/BankAccount.sol\":2843:2862  accounts[accountId] */\n      dup2\n      mstore\n      0x20\n      add\n      swap1\n      dup2\n      mstore\n      0x20\n      add\n      0x00\n      keccak256\n        /* \"contracts/BankAccount.sol\":2843:2879  accounts[accountId].withdrawRequests */\n      0x02\n      add\n        /* \"contracts/BankAccount.sol\":2843:2891  accounts[accountId].withdrawRequests[withdrawId] */\n      0x00\n        /* \"contracts/BankAccount.sol\":2880:2890  withdrawId */\n      dup3\n        /* \"contracts/BankAccount.sol\":2843:2891  accounts[accountId].withdrawRequests[withdrawId] */\n      dup2\n      mstore\n      0x20\n      add\n      swap1\n      dup2\n      mstore\n      0x20\n      add\n      0x00\n      keccak256\n        /* \"contracts/BankAccount.sol\":2843:2900  accounts[accountId].withdrawRequests[withdrawId].approved */\n      0x04\n      add\n      0x00\n      swap1\n      sload\n      swap1\n      0x0100\n      exp\n      swap1\n      div\n      0xff\n      and\n        /* \"contracts/BankAccount.sol\":2835:2933  require(accounts[accountId].withdrawRequests[withdrawId].approved, \"this request is not approved\") */\n      tag_92\n      jumpi\n      mload(0x40)\n      0x08c379a000000000000000000000000000000000000000000000000000000000\n      dup2\n      mstore\n      0x04\n      add\n      tag_93\n      swap1\n      tag_94\n      jump\t// in\n    tag_93:\n      mload(0x40)\n      dup1\n      swap2\n      sub\n      swap1\n      revert\n    tag_92:\n        /* \"contracts/BankAccount.sol\":4899:4910  uint amount */\n      0x00\n        /* \"contracts/BankAccount.sol\":4913:4921  accounts */\n      dup1\n        /* \"contracts/BankAccount.sol\":4913:4932  accounts[accountId] */\n      0x00\n        /* \"contracts/BankAccount.sol\":4922:4931  accountId */\n      dup7\n        /* \"contracts/BankAccount.sol\":4913:4932  accounts[accountId] */\n      dup2\n      mstore\n      0x20\n      add\n      swap1\n      dup2\n      mstore\n      0x20\n      add\n      0x00\n      keccak256\n        /* \"contracts/BankAccount.sol\":4913:4949  accounts[accountId].withdrawRequests */\n      0x02\n      add\n        /* \"contracts/BankAccount.sol\":4913:4961  accounts[accountId].withdrawRequests[withdrawId] */\n      0x00\n        /* \"contracts/BankAccount.sol\":4950:4960  withdrawId */\n      dup6\n        /* \"contracts/BankAccount.sol\":4913:4961  accounts[accountId].withdrawRequests[withdrawId] */\n      dup2\n      mstore\n      0x20\n      add\n      swap1\n      dup2\n      mstore\n      0x20\n      add\n      0x00\n      keccak256\n        /* \"contracts/BankAccount.sol\":4913:4968  accounts[accountId].withdrawRequests[withdrawId].amount */\n      0x01\n      add\n      sload\n        /* \"contracts/BankAccount.sol\":4899:4968  uint amount = accounts[accountId].withdrawRequests[withdrawId].amount */\n      swap1\n      pop\n        /* \"contracts/BankAccount.sol\":5018:5024  amount */\n      dup1\n        /* \"contracts/BankAccount.sol\":4987:4995  accounts */\n      0x00\n        /* \"contracts/BankAccount.sol\":4987:5006  accounts[accountId] */\n      dup1\n        /* \"contracts/BankAccount.sol\":4996:5005  accountId */\n      dup8\n        /* \"contracts/BankAccount.sol\":4987:5006  accounts[accountId] */\n      dup2\n      mstore\n      0x20\n      add\n      swap1\n      dup2\n      mstore\n      0x20\n      add\n      0x00\n      keccak256\n        /* \"contracts/BankAccount.sol\":4987:5014  accounts[accountId].balance */\n      0x01\n      add\n      sload\n        /* \"contracts/BankAccount.sol\":4987:5024  accounts[accountId].balance >= amount */\n      lt\n      iszero\n        /* \"contracts/BankAccount.sol\":4979:5049  require(accounts[accountId].balance >= amount, \"insufficient balance\") */\n      tag_96\n      jumpi\n      mload(0x40)\n      0x08c379a000000000000000000000000000000000000000000000000000000000\n      dup2\n      mstore\n      0x04\n      add\n      tag_97\n      swap1\n      tag_98\n      jump\t// in\n    tag_97:\n      mload(0x40)\n      dup1\n      swap2\n      sub\n      swap1\n      revert\n    tag_96:\n        /* \"contracts/BankAccount.sol\":5093:5099  amount */\n      dup1\n        /* \"contracts/BankAccount.sol\":5062:5070  accounts */\n      0x00\n        /* \"contracts/BankAccount.sol\":5062:5081  accounts[accountId] */\n      dup1\n        /* \"contracts/BankAccount.sol\":5071:5080  accountId */\n      dup8\n        /* \"contracts/BankAccount.sol\":5062:5081  accounts[accountId] */\n      dup2\n      mstore\n      0x20\n      add\n      swap1\n      dup2\n      mstore\n      0x20\n      add\n      0x00\n      keccak256\n        /* \"contracts/BankAccount.sol\":5062:5089  accounts[accountId].balance */\n      0x01\n      add\n      0x00\n        /* \"contracts/BankAccount.sol\":5062:5099  accounts[accountId].balance -= amount */\n      dup3\n      dup3\n      sload\n      tag_99\n      swap2\n      swap1\n      tag_85\n      jump\t// in\n    tag_99:\n      swap3\n      pop\n      pop\n      dup2\n      swap1\n      sstore\n      pop\n        /* \"contracts/BankAccount.sol\":5117:5125  accounts */\n      0x00\n        /* \"contracts/BankAccount.sol\":5117:5136  accounts[accountId] */\n      dup1\n        /* \"contracts/BankAccount.sol\":5126:5135  accountId */\n      dup7\n        /* \"contracts/BankAccount.sol\":5117:5136  accounts[accountId] */\n      dup2\n      mstore\n      0x20\n      add\n      swap1\n      dup2\n      mstore\n      0x20\n      add\n      0x00\n      keccak256\n        /* \"contracts/BankAccount.sol\":5117:5153  accounts[accountId].withdrawRequests */\n      0x02\n      add\n        /* \"contracts/BankAccount.sol\":5117:5165  accounts[accountId].withdrawRequests[withdrawId] */\n      0x00\n        /* \"contracts/BankAccount.sol\":5154:5164  withdrawId */\n      dup6\n        /* \"contracts/BankAccount.sol\":5117:5165  accounts[accountId].withdrawRequests[withdrawId] */\n      dup2\n      mstore\n      0x20\n      add\n      swap1\n      dup2\n      mstore\n      0x20\n      add\n      0x00\n      keccak256\n      0x00\n        /* \"contracts/BankAccount.sol\":5110:5165  delete accounts[accountId].withdrawRequests[withdrawId] */\n      dup1\n      dup3\n      add\n      exp(0x0100, 0x00)\n      dup2\n      sload\n      swap1\n      0xffffffffffffffffffffffffffffffffffffffff\n      mul\n      not\n      and\n      swap1\n      sstore\n      0x01\n      dup3\n      add\n      0x00\n      swap1\n      sstore\n      0x02\n      dup3\n      add\n      0x00\n      swap1\n      sstore\n      0x04\n      dup3\n      add\n      exp(0x0100, 0x00)\n      dup2\n      sload\n      swap1\n      0xff\n      mul\n      not\n      and\n      swap1\n      sstore\n      pop\n      pop\n        /* \"contracts/BankAccount.sol\":5179:5188  bool sent */\n      0x00\n        /* \"contracts/BankAccount.sol\":5201:5211  msg.sender */\n      caller\n        /* \"contracts/BankAccount.sol\":5193:5217  payable(msg.sender).call */\n      0xffffffffffffffffffffffffffffffffffffffff\n      and\n        /* \"contracts/BankAccount.sol\":5226:5232  amount */\n      dup3\n        /* \"contracts/BankAccount.sol\":5193:5237  payable(msg.sender).call {value: amount}(\"\") */\n      mload(0x40)\n      tag_100\n      swap1\n      tag_101\n      jump\t// in\n    tag_100:\n      0x00\n      mload(0x40)\n      dup1\n      dup4\n      sub\n      dup2\n      dup6\n      dup8\n      gas\n      call\n      swap3\n      pop\n      pop\n      pop\n      returndatasize\n      dup1\n      0x00\n      dup2\n      eq\n      tag_104\n      jumpi\n      mload(0x40)\n      swap2\n      pop\n      and(add(returndatasize, 0x3f), not(0x1f))\n      dup3\n      add\n      0x40\n      mstore\n      returndatasize\n      dup3\n      mstore\n      returndatasize\n      0x00\n      0x20\n      dup5\n      add\n      returndatacopy\n      jump(tag_103)\n    tag_104:\n      0x60\n      swap2\n      pop\n    tag_103:\n      pop\n        /* \"contracts/BankAccount.sol\":5178:5237  (bool sent,) = payable(msg.sender).call {value: amount}(\"\") */\n      pop\n      swap1\n      pop\n        /* \"contracts/BankAccount.sol\":5256:5260  sent */\n      dup1\n        /* \"contracts/BankAccount.sol\":5248:5261  require(sent) */\n      tag_105\n      jumpi\n      0x00\n      dup1\n      revert\n    tag_105:\n        /* \"contracts/BankAccount.sol\":5288:5298  withdrawId */\n      dup5\n        /* \"contracts/BankAccount.sol\":5279:5316  Withdraw(withdrawId, block.timestamp) */\n      0x56ca301a9219608c91e7bcee90e083c19671d2cdcc96752c7af291cee5f9c8c8\n        /* \"contracts/BankAccount.sol\":5300:5315  block.timestamp */\n      timestamp\n        /* \"contracts/BankAccount.sol\":5279:5316  Withdraw(withdrawId, block.timestamp) */\n      mload(0x40)\n      tag_106\n      swap2\n      swap1\n      tag_23\n      jump\t// in\n    tag_106:\n      mload(0x40)\n      dup1\n      swap2\n      sub\n      swap1\n      log2\n        /* \"contracts/BankAccount.sol\":4888:5324  {... */\n      pop\n      pop\n        /* \"contracts/BankAccount.sol\":4787:5324  function withdraw(uint256 accountId, uint256 withdrawId) external canWithdraw(accountId, withdrawId) {... */\n      pop\n      pop\n      pop\n      pop\n      jump\t// out\n        /* \"contracts/BankAccount.sol\":5598:5773  function getApprovals (uint256 accountId, uint256 withdrawId) public view returns (uint) {... */\n    tag_31:\n        /* \"contracts/BankAccount.sol\":5681:5685  uint */\n      0x00\n        /* \"contracts/BankAccount.sol\":5705:5713  accounts */\n      dup1\n        /* \"contracts/BankAccount.sol\":5705:5724  accounts[accountId] */\n      0x00\n        /* \"contracts/BankAccount.sol\":5714:5723  accountId */\n      dup5\n        /* \"contracts/BankAccount.sol\":5705:5724  accounts[accountId] */\n      dup2\n      mstore\n      0x20\n      add\n      swap1\n      dup2\n      mstore\n      0x20\n      add\n      0x00\n      keccak256\n        /* \"contracts/BankAccount.sol\":5705:5741  accounts[accountId].withdrawRequests */\n      0x02\n      add\n        /* \"contracts/BankAccount.sol\":5705:5753  accounts[accountId].withdrawRequests[withdrawId] */\n      0x00\n        /* \"contracts/BankAccount.sol\":5742:5752  withdrawId */\n      dup4\n        /* \"contracts/BankAccount.sol\":5705:5753  accounts[accountId].withdrawRequests[withdrawId] */\n      dup2\n      mstore\n      0x20\n      add\n      swap1\n      dup2\n      mstore\n      0x20\n      add\n      0x00\n      keccak256\n        /* \"contracts/BankAccount.sol\":5705:5763  accounts[accountId].withdrawRequests[withdrawId].approvals */\n      0x02\n      add\n      sload\n        /* \"contracts/BankAccount.sol\":5698:5763  return accounts[accountId].withdrawRequests[withdrawId].approvals */\n      swap1\n      pop\n        /* \"contracts/BankAccount.sol\":5598:5773  function getApprovals (uint256 accountId, uint256 withdrawId) public view returns (uint) {... */\n      swap3\n      swap2\n      pop\n      pop\n      jump\t// out\n        /* \"contracts/BankAccount.sol\":5781:5891  function getAccounts () public view returns (uint[] memory) {... */\n    tag_35:\n        /* \"contracts/BankAccount.sol\":5826:5839  uint[] memory */\n      0x60\n        /* \"contracts/BankAccount.sol\":5859:5871  userAccounts */\n      0x01\n        /* \"contracts/BankAccount.sol\":5859:5883  userAccounts[msg.sender] */\n      0x00\n        /* \"contracts/BankAccount.sol\":5872:5882  msg.sender */\n      caller\n        /* \"contracts/BankAccount.sol\":5859:5883  userAccounts[msg.sender] */\n      0xffffffffffffffffffffffffffffffffffffffff\n      and\n      0xffffffffffffffffffffffffffffffffffffffff\n      and\n      dup2\n      mstore\n      0x20\n      add\n      swap1\n      dup2\n      mstore\n      0x20\n      add\n      0x00\n      keccak256\n        /* \"contracts/BankAccount.sol\":5852:5883  return userAccounts[msg.sender] */\n      dup1\n      sload\n      dup1\n      0x20\n      mul\n      0x20\n      add\n      mload(0x40)\n      swap1\n      dup2\n      add\n      0x40\n      mstore\n      dup1\n      swap3\n      swap2\n      swap1\n      dup2\n      dup2\n      mstore\n      0x20\n      add\n      dup3\n      dup1\n      sload\n      dup1\n      iszero\n      tag_109\n      jumpi\n      0x20\n      mul\n      dup3\n      add\n      swap2\n      swap1\n      0x00\n      mstore\n      keccak256(0x00, 0x20)\n      swap1\n    tag_110:\n      dup2\n      sload\n      dup2\n      mstore\n      0x20\n      add\n      swap1\n      0x01\n      add\n      swap1\n      dup1\n      dup4\n      gt\n      tag_110\n      jumpi\n    tag_109:\n      pop\n      pop\n      pop\n      pop\n      pop\n      swap1\n      pop\n        /* \"contracts/BankAccount.sol\":5781:5891  function getAccounts () public view returns (uint[] memory) {... */\n      swap1\n      jump\t// out\n        /* \"contracts/BankAccount.sol\":3885:4331  function requestWithdrawal (uint256 accountId, uint256 amount) external accountOwner(accountId) sufficientBalance(accountId, amount) {... */\n    tag_41:\n        /* \"contracts/BankAccount.sol\":3970:3979  accountId */\n      dup2\n        /* \"contracts/BankAccount.sol\":1050:1062  bool isOwner */\n      0x00\n        /* \"contracts/BankAccount.sol\":1078:1086  uint idx */\n      dup1\n        /* \"contracts/BankAccount.sol\":1073:1286  for (uint idx; idx < accounts[accountId].owners.length; idx++) {... */\n    tag_112:\n        /* \"contracts/BankAccount.sol\":1094:1102  accounts */\n      0x00\n        /* \"contracts/BankAccount.sol\":1094:1113  accounts[accountId] */\n      dup1\n        /* \"contracts/BankAccount.sol\":1103:1112  accountId */\n      dup5\n        /* \"contracts/BankAccount.sol\":1094:1113  accounts[accountId] */\n      dup2\n      mstore\n      0x20\n      add\n      swap1\n      dup2\n      mstore\n      0x20\n      add\n      0x00\n      keccak256\n        /* \"contracts/BankAccount.sol\":1094:1120  accounts[accountId].owners */\n      0x00\n      add\n        /* \"contracts/BankAccount.sol\":1094:1127  accounts[accountId].owners.length */\n      dup1\n      sload\n      swap1\n      pop\n        /* \"contracts/BankAccount.sol\":1088:1091  idx */\n      dup2\n        /* \"contracts/BankAccount.sol\":1088:1127  idx < accounts[accountId].owners.length */\n      lt\n        /* \"contracts/BankAccount.sol\":1073:1286  for (uint idx; idx < accounts[accountId].owners.length; idx++) {... */\n      iszero\n      tag_113\n      jumpi\n        /* \"contracts/BankAccount.sol\":1190:1200  msg.sender */\n      caller\n        /* \"contracts/BankAccount.sol\":1155:1200  accounts[accountId].owners[idx] == msg.sender */\n      0xffffffffffffffffffffffffffffffffffffffff\n      and\n        /* \"contracts/BankAccount.sol\":1155:1163  accounts */\n      0x00\n        /* \"contracts/BankAccount.sol\":1155:1174  accounts[accountId] */\n      dup1\n        /* \"contracts/BankAccount.sol\":1164:1173  accountId */\n      dup6\n        /* \"contracts/BankAccount.sol\":1155:1174  accounts[accountId] */\n      dup2\n      mstore\n      0x20\n      add\n      swap1\n      dup2\n      mstore\n      0x20\n      add\n      0x00\n      keccak256\n        /* \"contracts/BankAccount.sol\":1155:1181  accounts[accountId].owners */\n      0x00\n      add\n        /* \"contracts/BankAccount.sol\":1182:1185  idx */\n      dup3\n        /* \"contracts/BankAccount.sol\":1155:1186  accounts[accountId].owners[idx] */\n      dup2\n      sload\n      dup2\n      lt\n      tag_115\n      jumpi\n      tag_116\n      tag_62\n      jump\t// in\n    tag_116:\n    tag_115:\n      swap1\n      0x00\n      mstore\n      keccak256(0x00, 0x20)\n      add\n      0x00\n      swap1\n      sload\n      swap1\n      0x0100\n      exp\n      swap1\n      div\n      0xffffffffffffffffffffffffffffffffffffffff\n      and\n        /* \"contracts/BankAccount.sol\":1155:1200  accounts[accountId].owners[idx] == msg.sender */\n      0xffffffffffffffffffffffffffffffffffffffff\n      and\n      sub\n        /* \"contracts/BankAccount.sol\":1151:1275  if (accounts[accountId].owners[idx] == msg.sender) {... */\n      tag_118\n      jumpi\n        /* \"contracts/BankAccount.sol\":1231:1235  true */\n      0x01\n        /* \"contracts/BankAccount.sol\":1221:1235  isOwner = true */\n      swap2\n      pop\n        /* \"contracts/BankAccount.sol\":1254:1259  break */\n      jump(tag_113)\n        /* \"contracts/BankAccount.sol\":1151:1275  if (accounts[accountId].owners[idx] == msg.sender) {... */\n    tag_118:\n        /* \"contracts/BankAccount.sol\":1129:1134  idx++ */\n      dup1\n      dup1\n      0x01\n      add\n      swap2\n      pop\n      pop\n        /* \"contracts/BankAccount.sol\":1073:1286  for (uint idx; idx < accounts[accountId].owners.length; idx++) {... */\n      jump(tag_112)\n    tag_113:\n      pop\n        /* \"contracts/BankAccount.sol\":1304:1311  isOwner */\n      dup1\n        /* \"contracts/BankAccount.sol\":1296:1352  require(isOwner, \"you are not an owner of this account\") */\n      tag_119\n      jumpi\n      mload(0x40)\n      0x08c379a000000000000000000000000000000000000000000000000000000000\n      dup2\n      mstore\n      0x04\n      add\n      tag_120\n      swap1\n      tag_67\n      jump\t// in\n    tag_120:\n      mload(0x40)\n      dup1\n      swap2\n      sub\n      swap1\n      revert\n    tag_119:\n        /* \"contracts/BankAccount.sol\":3999:4008  accountId */\n      dup4\n        /* \"contracts/BankAccount.sol\":4010:4016  amount */\n      dup4\n        /* \"contracts/BankAccount.sol\":2002:2008  amount */\n      dup1\n        /* \"contracts/BankAccount.sol\":1971:1979  accounts */\n      0x00\n        /* \"contracts/BankAccount.sol\":1971:1990  accounts[accountId] */\n      dup1\n        /* \"contracts/BankAccount.sol\":1980:1989  accountId */\n      dup5\n        /* \"contracts/BankAccount.sol\":1971:1990  accounts[accountId] */\n      dup2\n      mstore\n      0x20\n      add\n      swap1\n      dup2\n      mstore\n      0x20\n      add\n      0x00\n      keccak256\n        /* \"contracts/BankAccount.sol\":1971:1998  accounts[accountId].balance */\n      0x01\n      add\n      sload\n        /* \"contracts/BankAccount.sol\":1971:2008  accounts[accountId].balance >= amount */\n      lt\n      iszero\n        /* \"contracts/BankAccount.sol\":1963:2033  require(accounts[accountId].balance >= amount, \"insufficient balance\") */\n      tag_122\n      jumpi\n      mload(0x40)\n      0x08c379a000000000000000000000000000000000000000000000000000000000\n      dup2\n      mstore\n      0x04\n      add\n      tag_123\n      swap1\n      tag_98\n      jump\t// in\n    tag_123:\n      mload(0x40)\n      dup1\n      swap2\n      sub\n      swap1\n      revert\n    tag_122:\n        /* \"contracts/BankAccount.sol\":4029:4039  uint256 id */\n      0x00\n        /* \"contracts/BankAccount.sol\":4042:4056  nextWithdrawId */\n      sload(0x03)\n        /* \"contracts/BankAccount.sol\":4029:4056  uint256 id = nextWithdrawId */\n      swap1\n      pop\n        /* \"contracts/BankAccount.sol\":4067:4098  WithdrawRequest storage request */\n      0x00\n        /* \"contracts/BankAccount.sol\":4101:4109  accounts */\n      dup1\n        /* \"contracts/BankAccount.sol\":4101:4120  accounts[accountId] */\n      0x00\n        /* \"contracts/BankAccount.sol\":4110:4119  accountId */\n      dup10\n        /* \"contracts/BankAccount.sol\":4101:4120  accounts[accountId] */\n      dup2\n      mstore\n      0x20\n      add\n      swap1\n      dup2\n      mstore\n      0x20\n      add\n      0x00\n      keccak256\n        /* \"contracts/BankAccount.sol\":4101:4137  accounts[accountId].withdrawRequests */\n      0x02\n      add\n        /* \"contracts/BankAccount.sol\":4101:4141  accounts[accountId].withdrawRequests[id] */\n      0x00\n        /* \"contracts/BankAccount.sol\":4138:4140  id */\n      dup4\n        /* \"contracts/BankAccount.sol\":4101:4141  accounts[accountId].withdrawRequests[id] */\n      dup2\n      mstore\n      0x20\n      add\n      swap1\n      dup2\n      mstore\n      0x20\n      add\n      0x00\n      keccak256\n        /* \"contracts/BankAccount.sol\":4067:4141  WithdrawRequest storage request = accounts[accountId].withdrawRequests[id] */\n      swap1\n      pop\n        /* \"contracts/BankAccount.sol\":4167:4177  msg.sender */\n      caller\n        /* \"contracts/BankAccount.sol\":4152:4159  request */\n      dup2\n        /* \"contracts/BankAccount.sol\":4152:4164  request.user */\n      0x00\n      add\n      0x00\n        /* \"contracts/BankAccount.sol\":4152:4177  request.user = msg.sender */\n      0x0100\n      exp\n      dup2\n      sload\n      dup2\n      0xffffffffffffffffffffffffffffffffffffffff\n      mul\n      not\n      and\n      swap1\n      dup4\n      0xffffffffffffffffffffffffffffffffffffffff\n      and\n      mul\n      or\n      swap1\n      sstore\n      pop\n        /* \"contracts/BankAccount.sol\":4205:4211  amount */\n      dup7\n        /* \"contracts/BankAccount.sol\":4188:4195  request */\n      dup2\n        /* \"contracts/BankAccount.sol\":4188:4202  request.amount */\n      0x01\n      add\n        /* \"contracts/BankAccount.sol\":4188:4211  request.amount = amount */\n      dup2\n      swap1\n      sstore\n      pop\n        /* \"contracts/BankAccount.sol\":4222:4236  nextWithdrawId */\n      0x03\n      0x00\n        /* \"contracts/BankAccount.sol\":4222:4238  nextWithdrawId++ */\n      dup2\n      sload\n      dup1\n      swap3\n      swap2\n      swap1\n      tag_125\n      swap1\n      tag_83\n      jump\t// in\n    tag_125:\n      swap2\n      swap1\n      pop\n      sstore\n      pop\n        /* \"contracts/BankAccount.sol\":4295:4297  id */\n      dup2\n        /* \"contracts/BankAccount.sol\":4284:4293  accountId */\n      dup9\n        /* \"contracts/BankAccount.sol\":4272:4282  msg.sender */\n      caller\n        /* \"contracts/BankAccount.sol\":4254:4323  WithdrawRequested(msg.sender, accountId, id, amount, block.timestamp) */\n      0xffffffffffffffffffffffffffffffffffffffff\n      and\n      0x1f0d204a59639d21245dbaa239dfc9a6227aa86cb614bdda19843c52d155fcfa\n        /* \"contracts/BankAccount.sol\":4299:4305  amount */\n      dup11\n        /* \"contracts/BankAccount.sol\":4307:4322  block.timestamp */\n      timestamp\n        /* \"contracts/BankAccount.sol\":4254:4323  WithdrawRequested(msg.sender, accountId, id, amount, block.timestamp) */\n      mload(0x40)\n      tag_126\n      swap3\n      swap2\n      swap1\n      tag_127\n      jump\t// in\n    tag_126:\n      mload(0x40)\n      dup1\n      swap2\n      sub\n      swap1\n      log4\n        /* \"contracts/BankAccount.sol\":4018:4331  {... */\n      pop\n      pop\n        /* \"contracts/BankAccount.sol\":1363:1364  _ */\n      pop\n      pop\n        /* \"contracts/BankAccount.sol\":1039:1372  {... */\n      pop\n        /* \"contracts/BankAccount.sol\":3885:4331  function requestWithdrawal (uint256 accountId, uint256 amount) external accountOwner(accountId) sufficientBalance(accountId, amount) {... */\n      pop\n      pop\n      pop\n      jump\t// out\n        /* \"contracts/BankAccount.sol\":2981:3115  function deposit (uint accountId) external payable accountOwner(accountId) {... */\n    tag_44:\n        /* \"contracts/BankAccount.sol\":3045:3054  accountId */\n      dup1\n        /* \"contracts/BankAccount.sol\":1050:1062  bool isOwner */\n      0x00\n        /* \"contracts/BankAccount.sol\":1078:1086  uint idx */\n      dup1\n        /* \"contracts/BankAccount.sol\":1073:1286  for (uint idx; idx < accounts[accountId].owners.length; idx++) {... */\n    tag_129:\n        /* \"contracts/BankAccount.sol\":1094:1102  accounts */\n      0x00\n        /* \"contracts/BankAccount.sol\":1094:1113  accounts[accountId] */\n      dup1\n        /* \"contracts/BankAccount.sol\":1103:1112  accountId */\n      dup5\n        /* \"contracts/BankAccount.sol\":1094:1113  accounts[accountId] */\n      dup2\n      mstore\n      0x20\n      add\n      swap1\n      dup2\n      mstore\n      0x20\n      add\n      0x00\n      keccak256\n        /* \"contracts/BankAccount.sol\":1094:1120  accounts[accountId].owners */\n      0x00\n      add\n        /* \"contracts/BankAccount.sol\":1094:1127  accounts[accountId].owners.length */\n      dup1\n      sload\n      swap1\n      pop\n        /* \"contracts/BankAccount.sol\":1088:1091  idx */\n      dup2\n        /* \"contracts/BankAccount.sol\":1088:1127  idx < accounts[accountId].owners.length */\n      lt\n        /* \"contracts/BankAccount.sol\":1073:1286  for (uint idx; idx < accounts[accountId].owners.length; idx++) {... */\n      iszero\n      tag_130\n      jumpi\n        /* \"contracts/BankAccount.sol\":1190:1200  msg.sender */\n      caller\n        /* \"contracts/BankAccount.sol\":1155:1200  accounts[accountId].owners[idx] == msg.sender */\n      0xffffffffffffffffffffffffffffffffffffffff\n      and\n        /* \"contracts/BankAccount.sol\":1155:1163  accounts */\n      0x00\n        /* \"contracts/BankAccount.sol\":1155:1174  accounts[accountId] */\n      dup1\n        /* \"contracts/BankAccount.sol\":1164:1173  accountId */\n      dup6\n        /* \"contracts/BankAccount.sol\":1155:1174  accounts[accountId] */\n      dup2\n      mstore\n      0x20\n      add\n      swap1\n      dup2\n      mstore\n      0x20\n      add\n      0x00\n      keccak256\n        /* \"contracts/BankAccount.sol\":1155:1181  accounts[accountId].owners */\n      0x00\n      add\n        /* \"contracts/BankAccount.sol\":1182:1185  idx */\n      dup3\n        /* \"contracts/BankAccount.sol\":1155:1186  accounts[accountId].owners[idx] */\n      dup2\n      sload\n      dup2\n      lt\n      tag_132\n      jumpi\n      tag_133\n      tag_62\n      jump\t// in\n    tag_133:\n    tag_132:\n      swap1\n      0x00\n      mstore\n      keccak256(0x00, 0x20)\n      add\n      0x00\n      swap1\n      sload\n      swap1\n      0x0100\n      exp\n      swap1\n      div\n      0xffffffffffffffffffffffffffffffffffffffff\n      and\n        /* \"contracts/BankAccount.sol\":1155:1200  accounts[accountId].owners[idx] == msg.sender */\n      0xffffffffffffffffffffffffffffffffffffffff\n      and\n      sub\n        /* \"contracts/BankAccount.sol\":1151:1275  if (accounts[accountId].owners[idx] == msg.sender) {... */\n      tag_135\n      jumpi\n        /* \"contracts/BankAccount.sol\":1231:1235  true */\n      0x01\n        /* \"contracts/BankAccount.sol\":1221:1235  isOwner = true */\n      swap2\n      pop\n        /* \"contracts/BankAccount.sol\":1254:1259  break */\n      jump(tag_130)\n        /* \"contracts/BankAccount.sol\":1151:1275  if (accounts[accountId].owners[idx] == msg.sender) {... */\n    tag_135:\n        /* \"contracts/BankAccount.sol\":1129:1134  idx++ */\n      dup1\n      dup1\n      0x01\n      add\n      swap2\n      pop\n      pop\n        /* \"contracts/BankAccount.sol\":1073:1286  for (uint idx; idx < accounts[accountId].owners.length; idx++) {... */\n      jump(tag_129)\n    tag_130:\n      pop\n        /* \"contracts/BankAccount.sol\":1304:1311  isOwner */\n      dup1\n        /* \"contracts/BankAccount.sol\":1296:1352  require(isOwner, \"you are not an owner of this account\") */\n      tag_136\n      jumpi\n      mload(0x40)\n      0x08c379a000000000000000000000000000000000000000000000000000000000\n      dup2\n      mstore\n      0x04\n      add\n      tag_137\n      swap1\n      tag_67\n      jump\t// in\n    tag_137:\n      mload(0x40)\n      dup1\n      swap2\n      sub\n      swap1\n      revert\n    tag_136:\n        /* \"contracts/BankAccount.sol\":3098:3107  msg.value */\n      callvalue\n        /* \"contracts/BankAccount.sol\":3067:3075  accounts */\n      0x00\n        /* \"contracts/BankAccount.sol\":3067:3086  accounts[accountId] */\n      dup1\n        /* \"contracts/BankAccount.sol\":3076:3085  accountId */\n      dup6\n        /* \"contracts/BankAccount.sol\":3067:3086  accounts[accountId] */\n      dup2\n      mstore\n      0x20\n      add\n      swap1\n      dup2\n      mstore\n      0x20\n      add\n      0x00\n      keccak256\n        /* \"contracts/BankAccount.sol\":3067:3094  accounts[accountId].balance */\n      0x01\n      add\n      0x00\n        /* \"contracts/BankAccount.sol\":3067:3107  accounts[accountId].balance += msg.value */\n      dup3\n      dup3\n      sload\n      tag_139\n      swap2\n      swap1\n      tag_140\n      jump\t// in\n    tag_139:\n      swap3\n      pop\n      pop\n      dup2\n      swap1\n      sstore\n      pop\n        /* \"contracts/BankAccount.sol\":1039:1372  {... */\n      pop\n        /* \"contracts/BankAccount.sol\":2981:3115  function deposit (uint accountId) external payable accountOwner(accountId) {... */\n      pop\n      pop\n      jump\t// out\n        /* \"contracts/BankAccount.sol\":5460:5590  function getOwners (uint256 accountId) public view returns (address[] memory) {... */\n    tag_48:\n        /* \"contracts/BankAccount.sol\":5520:5536  address[] memory */\n      0x60\n        /* \"contracts/BankAccount.sol\":5556:5564  accounts */\n      0x00\n        /* \"contracts/BankAccount.sol\":5556:5575  accounts[accountId] */\n      dup1\n        /* \"contracts/BankAccount.sol\":5565:5574  accountId */\n      dup4\n        /* \"contracts/BankAccount.sol\":5556:5575  accounts[accountId] */\n      dup2\n      mstore\n      0x20\n      add\n      swap1\n      dup2\n      mstore\n      0x20\n      add\n      0x00\n      keccak256\n        /* \"contracts/BankAccount.sol\":5556:5582  accounts[accountId].owners */\n      0x00\n      add\n        /* \"contracts/BankAccount.sol\":5549:5582  return accounts[accountId].owners */\n      dup1\n      sload\n      dup1\n      0x20\n      mul\n      0x20\n      add\n      mload(0x40)\n      swap1\n      dup2\n      add\n      0x40\n      mstore\n      dup1\n      swap3\n      swap2\n      swap1\n      dup2\n      dup2\n      mstore\n      0x20\n      add\n      dup3\n      dup1\n      sload\n      dup1\n      iszero\n      tag_142\n      jumpi\n      0x20\n      mul\n      dup3\n      add\n      swap2\n      swap1\n      0x00\n      mstore\n      keccak256(0x00, 0x20)\n      swap1\n    tag_143:\n      dup2\n      0x00\n      swap1\n      sload\n      swap1\n      0x0100\n      exp\n      swap1\n      div\n      0xffffffffffffffffffffffffffffffffffffffff\n      and\n      0xffffffffffffffffffffffffffffffffffffffff\n      and\n      dup2\n      mstore\n      0x20\n      add\n      swap1\n      0x01\n      add\n      swap1\n      dup1\n      dup4\n      gt\n      tag_143\n      jumpi\n    tag_142:\n      pop\n      pop\n      pop\n      pop\n      pop\n      swap1\n      pop\n        /* \"contracts/BankAccount.sol\":5460:5590  function getOwners (uint256 accountId) public view returns (address[] memory) {... */\n      swap2\n      swap1\n      pop\n      jump\t// out\n        /* \"contracts/BankAccount.sol\":3123:3877  function createAccount (address[] calldata otherOwners) external validOwners(otherOwners) {... */\n    tag_55:\n        /* \"contracts/BankAccount.sol\":3200:3211  otherOwners */\n      dup2\n      dup2\n        /* \"contracts/BankAccount.sol\":1467:1468  4 */\n      0x04\n        /* \"contracts/BankAccount.sol\":1462:1463  1 */\n      0x01\n        /* \"contracts/BankAccount.sol\":1446:1452  owners */\n      dup4\n      dup4\n        /* \"contracts/BankAccount.sol\":1446:1459  owners.length */\n      swap1\n      pop\n        /* \"contracts/BankAccount.sol\":1446:1463  owners.length + 1 */\n      tag_145\n      swap2\n      swap1\n      tag_140\n      jump\t// in\n    tag_145:\n        /* \"contracts/BankAccount.sol\":1446:1468  owners.length + 1 <= 4 */\n      gt\n      iszero\n        /* \"contracts/BankAccount.sol\":1438:1504  require(owners.length + 1 <= 4, \"maximum of 4 owners per account\") */\n      tag_146\n      jumpi\n      mload(0x40)\n      0x08c379a000000000000000000000000000000000000000000000000000000000\n      dup2\n      mstore\n      0x04\n      add\n      tag_147\n      swap1\n      tag_148\n      jump\t// in\n    tag_147:\n      mload(0x40)\n      dup1\n      swap2\n      sub\n      swap1\n      revert\n    tag_146:\n        /* \"contracts/BankAccount.sol\":1520:1529  uint256 i */\n      0x00\n        /* \"contracts/BankAccount.sol\":1515:1863  for (uint256 i; i < owners.length; i++) {... */\n    tag_149:\n        /* \"contracts/BankAccount.sol\":1535:1541  owners */\n      dup3\n      dup3\n        /* \"contracts/BankAccount.sol\":1535:1548  owners.length */\n      swap1\n      pop\n        /* \"contracts/BankAccount.sol\":1531:1532  i */\n      dup2\n        /* \"contracts/BankAccount.sol\":1531:1548  i < owners.length */\n      lt\n        /* \"contracts/BankAccount.sol\":1515:1863  for (uint256 i; i < owners.length; i++) {... */\n      iszero\n      tag_150\n      jumpi\n        /* \"contracts/BankAccount.sol\":1586:1596  msg.sender */\n      caller\n        /* \"contracts/BankAccount.sol\":1573:1596  owners[i] == msg.sender */\n      0xffffffffffffffffffffffffffffffffffffffff\n      and\n        /* \"contracts/BankAccount.sol\":1573:1579  owners */\n      dup4\n      dup4\n        /* \"contracts/BankAccount.sol\":1580:1581  i */\n      dup4\n        /* \"contracts/BankAccount.sol\":1573:1582  owners[i] */\n      dup2\n      dup2\n      lt\n      tag_152\n      jumpi\n      tag_153\n      tag_62\n      jump\t// in\n    tag_153:\n    tag_152:\n      swap1\n      pop\n      0x20\n      mul\n      add\n      0x20\n      dup2\n      add\n      swap1\n      tag_154\n      swap2\n      swap1\n      tag_155\n      jump\t// in\n    tag_154:\n        /* \"contracts/BankAccount.sol\":1573:1596  owners[i] == msg.sender */\n      0xffffffffffffffffffffffffffffffffffffffff\n      and\n      sub\n        /* \"contracts/BankAccount.sol\":1570:1662  if(owners[i] == msg.sender) {... */\n      tag_156\n      jumpi\n        /* \"contracts/BankAccount.sol\":1617:1646  revert(\"no duplicate owners\") */\n      mload(0x40)\n      0x08c379a000000000000000000000000000000000000000000000000000000000\n      dup2\n      mstore\n      0x04\n      add\n      tag_157\n      swap1\n      tag_158\n      jump\t// in\n    tag_157:\n      mload(0x40)\n      dup1\n      swap2\n      sub\n      swap1\n      revert\n        /* \"contracts/BankAccount.sol\":1570:1662  if(owners[i] == msg.sender) {... */\n    tag_156:\n        /* \"contracts/BankAccount.sol\":1680:1689  uint256 j */\n      0x00\n        /* \"contracts/BankAccount.sol\":1692:1693  i */\n      dup2\n        /* \"contracts/BankAccount.sol\":1680:1693  uint256 j = i */\n      swap1\n      pop\n        /* \"contracts/BankAccount.sol\":1676:1852  for(uint256 j = i; j <owners.length; j++) {... */\n    tag_159:\n        /* \"contracts/BankAccount.sol\":1698:1704  owners */\n      dup4\n      dup4\n        /* \"contracts/BankAccount.sol\":1698:1711  owners.length */\n      swap1\n      pop\n        /* \"contracts/BankAccount.sol\":1695:1696  j */\n      dup2\n        /* \"contracts/BankAccount.sol\":1695:1711  j <owners.length */\n      lt\n        /* \"contracts/BankAccount.sol\":1676:1852  for(uint256 j = i; j <owners.length; j++) {... */\n      iszero\n      tag_160\n      jumpi\n        /* \"contracts/BankAccount.sol\":1754:1760  owners */\n      dup4\n      dup4\n        /* \"contracts/BankAccount.sol\":1761:1762  j */\n      dup3\n        /* \"contracts/BankAccount.sol\":1754:1763  owners[j] */\n      dup2\n      dup2\n      lt\n      tag_162\n      jumpi\n      tag_163\n      tag_62\n      jump\t// in\n    tag_163:\n    tag_162:\n      swap1\n      pop\n      0x20\n      mul\n      add\n      0x20\n      dup2\n      add\n      swap1\n      tag_164\n      swap2\n      swap1\n      tag_155\n      jump\t// in\n    tag_164:\n        /* \"contracts/BankAccount.sol\":1741:1763  owners[i] == owners[j] */\n      0xffffffffffffffffffffffffffffffffffffffff\n      and\n        /* \"contracts/BankAccount.sol\":1741:1747  owners */\n      dup5\n      dup5\n        /* \"contracts/BankAccount.sol\":1748:1749  i */\n      dup5\n        /* \"contracts/BankAccount.sol\":1741:1750  owners[i] */\n      dup2\n      dup2\n      lt\n      tag_165\n      jumpi\n      tag_166\n      tag_62\n      jump\t// in\n    tag_166:\n    tag_165:\n      swap1\n      pop\n      0x20\n      mul\n      add\n      0x20\n      dup2\n      add\n      swap1\n      tag_167\n      swap2\n      swap1\n      tag_155\n      jump\t// in\n    tag_167:\n        /* \"contracts/BankAccount.sol\":1741:1763  owners[i] == owners[j] */\n      0xffffffffffffffffffffffffffffffffffffffff\n      and\n      sub\n        /* \"contracts/BankAccount.sol\":1737:1837  if (owners[i] == owners[j]) {... */\n      tag_168\n      jumpi\n        /* \"contracts/BankAccount.sol\":1788:1817  revert(\"no duplicate owners\") */\n      mload(0x40)\n      0x08c379a000000000000000000000000000000000000000000000000000000000\n      dup2\n      mstore\n      0x04\n      add\n      tag_169\n      swap1\n      tag_158\n      jump\t// in\n    tag_169:\n      mload(0x40)\n      dup1\n      swap2\n      sub\n      swap1\n      revert\n        /* \"contracts/BankAccount.sol\":1737:1837  if (owners[i] == owners[j]) {... */\n    tag_168:\n        /* \"contracts/BankAccount.sol\":1713:1716  j++ */\n      dup1\n      dup1\n      0x01\n      add\n      swap2\n      pop\n      pop\n        /* \"contracts/BankAccount.sol\":1676:1852  for(uint256 j = i; j <owners.length; j++) {... */\n      jump(tag_159)\n    tag_160:\n      pop\n        /* \"contracts/BankAccount.sol\":1550:1553  i++ */\n      dup1\n      dup1\n      0x01\n      add\n      swap2\n      pop\n      pop\n        /* \"contracts/BankAccount.sol\":1515:1863  for (uint256 i; i < owners.length; i++) {... */\n      jump(tag_149)\n    tag_150:\n      pop\n        /* \"contracts/BankAccount.sol\":3224:3247  address[] memory owners */\n      0x00\n        /* \"contracts/BankAccount.sol\":3285:3286  1 */\n      0x01\n        /* \"contracts/BankAccount.sol\":3264:3275  otherOwners */\n      dup6\n      dup6\n        /* \"contracts/BankAccount.sol\":3264:3282  otherOwners.length */\n      swap1\n      pop\n        /* \"contracts/BankAccount.sol\":3264:3286  otherOwners.length + 1 */\n      tag_171\n      swap2\n      swap1\n      tag_140\n      jump\t// in\n    tag_171:\n        /* \"contracts/BankAccount.sol\":3250:3287  new address[](otherOwners.length + 1) */\n      0xffffffffffffffff\n      dup2\n      gt\n      iszero\n      tag_172\n      jumpi\n      tag_173\n      tag_174\n      jump\t// in\n    tag_173:\n    tag_172:\n      mload(0x40)\n      swap1\n      dup1\n      dup3\n      mstore\n      dup1\n      0x20\n      mul\n      0x20\n      add\n      dup3\n      add\n      0x40\n      mstore\n      dup1\n      iszero\n      tag_175\n      jumpi\n      dup2\n      0x20\n      add\n      0x20\n      dup3\n      mul\n      dup1\n      calldatasize\n      dup4\n      calldatacopy\n      dup1\n      dup3\n      add\n      swap2\n      pop\n      pop\n      swap1\n      pop\n    tag_175:\n      pop\n        /* \"contracts/BankAccount.sol\":3224:3287  address[] memory owners = new address[](otherOwners.length + 1) */\n      swap1\n      pop\n        /* \"contracts/BankAccount.sol\":3327:3337  msg.sender */\n      caller\n        /* \"contracts/BankAccount.sol\":3298:3304  owners */\n      dup2\n        /* \"contracts/BankAccount.sol\":3305:3316  otherOwners */\n      dup7\n      dup7\n        /* \"contracts/BankAccount.sol\":3305:3323  otherOwners.length */\n      swap1\n      pop\n        /* \"contracts/BankAccount.sol\":3298:3324  owners[otherOwners.length] */\n      dup2\n      mload\n      dup2\n      lt\n      tag_176\n      jumpi\n      tag_177\n      tag_62\n      jump\t// in\n    tag_177:\n    tag_176:\n      0x20\n      mul\n      0x20\n      add\n      add\n        /* \"contracts/BankAccount.sol\":3298:3337  owners[otherOwners.length] = msg.sender */\n      swap1\n      0xffffffffffffffffffffffffffffffffffffffff\n      and\n      swap1\n      dup2\n      0xffffffffffffffffffffffffffffffffffffffff\n      and\n      dup2\n      mstore\n      pop\n      pop\n        /* \"contracts/BankAccount.sol\":3350:3360  uint256 id */\n      0x00\n        /* \"contracts/BankAccount.sol\":3363:3376  nextAccountId */\n      sload(0x02)\n        /* \"contracts/BankAccount.sol\":3350:3376  uint256 id = nextAccountId */\n      swap1\n      pop\n        /* \"contracts/BankAccount.sol\":3394:3405  uint256 idx */\n      0x00\n        /* \"contracts/BankAccount.sol\":3389:3744  for (uint256 idx; idx < owners.length; idx++) {... */\n    tag_178:\n        /* \"contracts/BankAccount.sol\":3413:3419  owners */\n      dup3\n        /* \"contracts/BankAccount.sol\":3413:3426  owners.length */\n      mload\n        /* \"contracts/BankAccount.sol\":3407:3410  idx */\n      dup2\n        /* \"contracts/BankAccount.sol\":3407:3426  idx < owners.length */\n      lt\n        /* \"contracts/BankAccount.sol\":3389:3744  for (uint256 idx; idx < owners.length; idx++) {... */\n      iszero\n      tag_179\n      jumpi\n        /* \"contracts/BankAccount.sol\":3475:3476  1 */\n      0x01\n        /* \"contracts/BankAccount.sol\":3459:3465  owners */\n      dup4\n        /* \"contracts/BankAccount.sol\":3459:3472  owners.length */\n      mload\n        /* \"contracts/BankAccount.sol\":3459:3476  owners.length - 1 */\n      tag_181\n      swap2\n      swap1\n      tag_85\n      jump\t// in\n    tag_181:\n        /* \"contracts/BankAccount.sol\":3453:3456  idx */\n      dup2\n        /* \"contracts/BankAccount.sol\":3453:3476  idx < owners.length - 1 */\n      lt\n        /* \"contracts/BankAccount.sol\":3450:3543  if(idx < owners.length - 1) {... */\n      iszero\n      tag_182\n      jumpi\n        /* \"contracts/BankAccount.sol\":3511:3522  otherOwners */\n      dup7\n      dup7\n        /* \"contracts/BankAccount.sol\":3523:3526  idx */\n      dup3\n        /* \"contracts/BankAccount.sol\":3511:3527  otherOwners[idx] */\n      dup2\n      dup2\n      lt\n      tag_183\n      jumpi\n      tag_184\n      tag_62\n      jump\t// in\n    tag_184:\n    tag_183:\n      swap1\n      pop\n      0x20\n      mul\n      add\n      0x20\n      dup2\n      add\n      swap1\n      tag_185\n      swap2\n      swap1\n      tag_155\n      jump\t// in\n    tag_185:\n        /* \"contracts/BankAccount.sol\":3497:3503  owners */\n      dup4\n        /* \"contracts/BankAccount.sol\":3504:3507  idx */\n      dup3\n        /* \"contracts/BankAccount.sol\":3497:3508  owners[idx] */\n      dup2\n      mload\n      dup2\n      lt\n      tag_186\n      jumpi\n      tag_187\n      tag_62\n      jump\t// in\n    tag_187:\n    tag_186:\n      0x20\n      mul\n      0x20\n      add\n      add\n        /* \"contracts/BankAccount.sol\":3497:3527  owners[idx] = otherOwners[idx] */\n      swap1\n      0xffffffffffffffffffffffffffffffffffffffff\n      and\n      swap1\n      dup2\n      0xffffffffffffffffffffffffffffffffffffffff\n      and\n      dup2\n      mstore\n      pop\n      pop\n        /* \"contracts/BankAccount.sol\":3450:3543  if(idx < owners.length - 1) {... */\n    tag_182:\n        /* \"contracts/BankAccount.sol\":3598:3599  2 */\n      0x02\n        /* \"contracts/BankAccount.sol\":3563:3575  userAccounts */\n      0x01\n        /* \"contracts/BankAccount.sol\":3563:3588  userAccounts[owners[idx]] */\n      0x00\n        /* \"contracts/BankAccount.sol\":3576:3582  owners */\n      dup6\n        /* \"contracts/BankAccount.sol\":3583:3586  idx */\n      dup5\n        /* \"contracts/BankAccount.sol\":3576:3587  owners[idx] */\n      dup2\n      mload\n      dup2\n      lt\n      tag_188\n      jumpi\n      tag_189\n      tag_62\n      jump\t// in\n    tag_189:\n    tag_188:\n      0x20\n      mul\n      0x20\n      add\n      add\n      mload\n        /* \"contracts/BankAccount.sol\":3563:3588  userAccounts[owners[idx]] */\n      0xffffffffffffffffffffffffffffffffffffffff\n      and\n      0xffffffffffffffffffffffffffffffffffffffff\n      and\n      dup2\n      mstore\n      0x20\n      add\n      swap1\n      dup2\n      mstore\n      0x20\n      add\n      0x00\n      keccak256\n        /* \"contracts/BankAccount.sol\":3563:3595  userAccounts[owners[idx]].length */\n      dup1\n      sload\n      swap1\n      pop\n        /* \"contracts/BankAccount.sol\":3563:3599  userAccounts[owners[idx]].length > 2 */\n      gt\n        /* \"contracts/BankAccount.sol\":3559:3684  if (userAccounts[owners[idx]].length > 2) {... */\n      iszero\n      tag_190\n      jumpi\n        /* \"contracts/BankAccount.sol\":3620:3668  revert(\"each user can have a max of 3 accounts\") */\n      mload(0x40)\n      0x08c379a000000000000000000000000000000000000000000000000000000000\n      dup2\n      mstore\n      0x04\n      add\n      tag_191\n      swap1\n      tag_192\n      jump\t// in\n    tag_191:\n      mload(0x40)\n      dup1\n      swap2\n      sub\n      swap1\n      revert\n        /* \"contracts/BankAccount.sol\":3559:3684  if (userAccounts[owners[idx]].length > 2) {... */\n    tag_190:\n        /* \"contracts/BankAccount.sol\":3698:3710  userAccounts */\n      0x01\n        /* \"contracts/BankAccount.sol\":3698:3723  userAccounts[owners[idx]] */\n      0x00\n        /* \"contracts/BankAccount.sol\":3711:3717  owners */\n      dup5\n        /* \"contracts/BankAccount.sol\":3718:3721  idx */\n      dup4\n        /* \"contracts/BankAccount.sol\":3711:3722  owners[idx] */\n      dup2\n      mload\n      dup2\n      lt\n      tag_193\n      jumpi\n      tag_194\n      tag_62\n      jump\t// in\n    tag_194:\n    tag_193:\n      0x20\n      mul\n      0x20\n      add\n      add\n      mload\n        /* \"contracts/BankAccount.sol\":3698:3723  userAccounts[owners[idx]] */\n      0xffffffffffffffffffffffffffffffffffffffff\n      and\n      0xffffffffffffffffffffffffffffffffffffffff\n      and\n      dup2\n      mstore\n      0x20\n      add\n      swap1\n      dup2\n      mstore\n      0x20\n      add\n      0x00\n      keccak256\n        /* \"contracts/BankAccount.sol\":3729:3731  id */\n      dup3\n        /* \"contracts/BankAccount.sol\":3698:3732  userAccounts[owners[idx]].push(id) */\n      swap1\n      dup1\n      0x01\n      dup2\n      sload\n      add\n      dup1\n      dup3\n      sstore\n      dup1\n      swap2\n      pop\n      pop\n      0x01\n      swap1\n      sub\n      swap1\n      0x00\n      mstore\n      keccak256(0x00, 0x20)\n      add\n      0x00\n      swap1\n      swap2\n      swap1\n      swap2\n      swap1\n      swap2\n      pop\n      sstore\n        /* \"contracts/BankAccount.sol\":3428:3433  idx++ */\n      dup1\n      dup1\n      0x01\n      add\n      swap2\n      pop\n      pop\n        /* \"contracts/BankAccount.sol\":3389:3744  for (uint256 idx; idx < owners.length; idx++) {... */\n      jump(tag_178)\n    tag_179:\n      pop\n        /* \"contracts/BankAccount.sol\":3778:3784  owners */\n      dup2\n        /* \"contracts/BankAccount.sol\":3756:3764  accounts */\n      0x00\n        /* \"contracts/BankAccount.sol\":3756:3768  accounts[id] */\n      dup1\n        /* \"contracts/BankAccount.sol\":3765:3767  id */\n      dup4\n        /* \"contracts/BankAccount.sol\":3756:3768  accounts[id] */\n      dup2\n      mstore\n      0x20\n      add\n      swap1\n      dup2\n      mstore\n      0x20\n      add\n      0x00\n      keccak256\n        /* \"contracts/BankAccount.sol\":3756:3775  accounts[id].owners */\n      0x00\n      add\n        /* \"contracts/BankAccount.sol\":3756:3784  accounts[id].owners = owners */\n      swap1\n      dup1\n      mload\n      swap1\n      0x20\n      add\n      swap1\n      tag_196\n      swap3\n      swap2\n      swap1\n      tag_197\n      jump\t// in\n    tag_196:\n      pop\n        /* \"contracts/BankAccount.sol\":3795:3808  nextAccountId */\n      0x02\n      0x00\n        /* \"contracts/BankAccount.sol\":3795:3810  nextAccountId++ */\n      dup2\n      sload\n      dup1\n      swap3\n      swap2\n      swap1\n      tag_198\n      swap1\n      tag_83\n      jump\t// in\n    tag_198:\n      swap2\n      swap1\n      pop\n      sstore\n      pop\n        /* \"contracts/BankAccount.sol\":3849:3851  id */\n      dup1\n        /* \"contracts/BankAccount.sol\":3826:3869  AccountCreated(owners, id, block.timestamp) */\n      0x1dfea57c7217d8ee2ef44253419f3a05acdf0e6dea69f12e9e2afa2e748e3c8c\n        /* \"contracts/BankAccount.sol\":3841:3847  owners */\n      dup4\n        /* \"contracts/BankAccount.sol\":3853:3868  block.timestamp */\n      timestamp\n        /* \"contracts/BankAccount.sol\":3826:3869  AccountCreated(owners, id, block.timestamp) */\n      mload(0x40)\n      tag_199\n      swap3\n      swap2\n      swap1\n      tag_200\n      jump\t// in\n    tag_199:\n      mload(0x40)\n      dup1\n      swap2\n      sub\n      swap1\n      log2\n        /* \"contracts/BankAccount.sol\":3213:3877  {... */\n      pop\n      pop\n        /* \"contracts/BankAccount.sol\":3123:3877  function createAccount (address[] calldata otherOwners) external validOwners(otherOwners) {... */\n      pop\n      pop\n      pop\n      pop\n      jump\t// out\n    tag_197:\n      dup3\n      dup1\n      sload\n      dup3\n      dup3\n      sstore\n      swap1\n      0x00\n      mstore\n      keccak256(0x00, 0x20)\n      swap1\n      dup2\n      add\n      swap3\n      dup3\n      iszero\n      tag_201\n      jumpi\n      swap2\n      0x20\n      mul\n      dup3\n      add\n    tag_202:\n      dup3\n      dup2\n      gt\n      iszero\n      tag_203\n      jumpi\n      dup3\n      mload\n      dup3\n      exp(0x0100, 0x00)\n      dup2\n      sload\n      dup2\n      0xffffffffffffffffffffffffffffffffffffffff\n      mul\n      not\n      and\n      swap1\n      dup4\n      0xffffffffffffffffffffffffffffffffffffffff\n      and\n      mul\n      or\n      swap1\n      sstore\n      pop\n      swap2\n      0x20\n      add\n      swap2\n      swap1\n      0x01\n      add\n      swap1\n      jump(tag_202)\n    tag_203:\n    tag_201:\n      pop\n      swap1\n      pop\n      tag_204\n      swap2\n      swap1\n      tag_205\n      jump\t// in\n    tag_204:\n      pop\n      swap1\n      jump\t// out\n    tag_205:\n    tag_206:\n      dup1\n      dup3\n      gt\n      iszero\n      tag_207\n      jumpi\n      0x00\n      dup2\n      0x00\n      swap1\n      sstore\n      pop\n      0x01\n      add\n      jump(tag_206)\n    tag_207:\n      pop\n      swap1\n      jump\t// out\n        /* \"#utility.yul\":88:205   */\n    tag_209:\n        /* \"#utility.yul\":197:198   */\n      0x00\n        /* \"#utility.yul\":194:195   */\n      dup1\n        /* \"#utility.yul\":187:199   */\n      revert\n        /* \"#utility.yul\":211:328   */\n    tag_210:\n        /* \"#utility.yul\":320:321   */\n      0x00\n        /* \"#utility.yul\":317:318   */\n      dup1\n        /* \"#utility.yul\":310:322   */\n      revert\n        /* \"#utility.yul\":334:411   */\n    tag_211:\n        /* \"#utility.yul\":371:378   */\n      0x00\n        /* \"#utility.yul\":400:405   */\n      dup2\n        /* \"#utility.yul\":389:405   */\n      swap1\n      pop\n        /* \"#utility.yul\":334:411   */\n      swap2\n      swap1\n      pop\n      jump\t// out\n        /* \"#utility.yul\":417:539   */\n    tag_212:\n        /* \"#utility.yul\":490:514   */\n      tag_270\n        /* \"#utility.yul\":508:513   */\n      dup2\n        /* \"#utility.yul\":490:514   */\n      tag_211\n      jump\t// in\n    tag_270:\n        /* \"#utility.yul\":483:488   */\n      dup2\n        /* \"#utility.yul\":480:515   */\n      eq\n        /* \"#utility.yul\":470:533   */\n      tag_271\n      jumpi\n        /* \"#utility.yul\":529:530   */\n      0x00\n        /* \"#utility.yul\":526:527   */\n      dup1\n        /* \"#utility.yul\":519:531   */\n      revert\n        /* \"#utility.yul\":470:533   */\n    tag_271:\n        /* \"#utility.yul\":417:539   */\n      pop\n      jump\t// out\n        /* \"#utility.yul\":545:684   */\n    tag_213:\n        /* \"#utility.yul\":591:596   */\n      0x00\n        /* \"#utility.yul\":629:635   */\n      dup2\n        /* \"#utility.yul\":616:636   */\n      calldataload\n        /* \"#utility.yul\":607:636   */\n      swap1\n      pop\n        /* \"#utility.yul\":645:678   */\n      tag_273\n        /* \"#utility.yul\":672:677   */\n      dup2\n        /* \"#utility.yul\":645:678   */\n      tag_212\n      jump\t// in\n    tag_273:\n        /* \"#utility.yul\":545:684   */\n      swap3\n      swap2\n      pop\n      pop\n      jump\t// out\n        /* \"#utility.yul\":690:1164   */\n    tag_15:\n        /* \"#utility.yul\":758:764   */\n      0x00\n        /* \"#utility.yul\":766:772   */\n      dup1\n        /* \"#utility.yul\":815:817   */\n      0x40\n        /* \"#utility.yul\":803:812   */\n      dup4\n        /* \"#utility.yul\":794:801   */\n      dup6\n        /* \"#utility.yul\":790:813   */\n      sub\n        /* \"#utility.yul\":786:818   */\n      slt\n        /* \"#utility.yul\":783:902   */\n      iszero\n      tag_275\n      jumpi\n        /* \"#utility.yul\":821:900   */\n      tag_276\n      tag_209\n      jump\t// in\n    tag_276:\n        /* \"#utility.yul\":783:902   */\n    tag_275:\n        /* \"#utility.yul\":941:942   */\n      0x00\n        /* \"#utility.yul\":966:1019   */\n      tag_277\n        /* \"#utility.yul\":1011:1018   */\n      dup6\n        /* \"#utility.yul\":1002:1008   */\n      dup3\n        /* \"#utility.yul\":991:1000   */\n      dup7\n        /* \"#utility.yul\":987:1009   */\n      add\n        /* \"#utility.yul\":966:1019   */\n      tag_213\n      jump\t// in\n    tag_277:\n        /* \"#utility.yul\":956:1019   */\n      swap3\n      pop\n        /* \"#utility.yul\":912:1029   */\n      pop\n        /* \"#utility.yul\":1068:1070   */\n      0x20\n        /* \"#utility.yul\":1094:1147   */\n      tag_278\n        /* \"#utility.yul\":1139:1146   */\n      dup6\n        /* \"#utility.yul\":1130:1136   */\n      dup3\n        /* \"#utility.yul\":1119:1128   */\n      dup7\n        /* \"#utility.yul\":1115:1137   */\n      add\n        /* \"#utility.yul\":1094:1147   */\n      tag_213\n      jump\t// in\n    tag_278:\n        /* \"#utility.yul\":1084:1147   */\n      swap2\n      pop\n        /* \"#utility.yul\":1039:1157   */\n      pop\n        /* \"#utility.yul\":690:1164   */\n      swap3\n      pop\n      swap3\n      swap1\n      pop\n      jump\t// out\n        /* \"#utility.yul\":1170:1499   */\n    tag_20:\n        /* \"#utility.yul\":1229:1235   */\n      0x00\n        /* \"#utility.yul\":1278:1280   */\n      0x20\n        /* \"#utility.yul\":1266:1275   */\n      dup3\n        /* \"#utility.yul\":1257:1264   */\n      dup5\n        /* \"#utility.yul\":1253:1276   */\n      sub\n        /* \"#utility.yul\":1249:1281   */\n      slt\n        /* \"#utility.yul\":1246:1365   */\n      iszero\n      tag_280\n      jumpi\n        /* \"#utility.yul\":1284:1363   */\n      tag_281\n      tag_209\n      jump\t// in\n    tag_281:\n        /* \"#utility.yul\":1246:1365   */\n    tag_280:\n        /* \"#utility.yul\":1404:1405   */\n      0x00\n        /* \"#utility.yul\":1429:1482   */\n      tag_282\n        /* \"#utility.yul\":1474:1481   */\n      dup5\n        /* \"#utility.yul\":1465:1471   */\n      dup3\n        /* \"#utility.yul\":1454:1463   */\n      dup6\n        /* \"#utility.yul\":1450:1472   */\n      add\n        /* \"#utility.yul\":1429:1482   */\n      tag_213\n      jump\t// in\n    tag_282:\n        /* \"#utility.yul\":1419:1482   */\n      swap2\n      pop\n        /* \"#utility.yul\":1375:1492   */\n      pop\n        /* \"#utility.yul\":1170:1499   */\n      swap3\n      swap2\n      pop\n      pop\n      jump\t// out\n        /* \"#utility.yul\":1505:1623   */\n    tag_214:\n        /* \"#utility.yul\":1592:1616   */\n      tag_284\n        /* \"#utility.yul\":1610:1615   */\n      dup2\n        /* \"#utility.yul\":1592:1616   */\n      tag_211\n      jump\t// in\n    tag_284:\n        /* \"#utility.yul\":1587:1590   */\n      dup3\n        /* \"#utility.yul\":1580:1617   */\n      mstore\n        /* \"#utility.yul\":1505:1623   */\n      pop\n      pop\n      jump\t// out\n        /* \"#utility.yul\":1629:1851   */\n    tag_23:\n        /* \"#utility.yul\":1722:1726   */\n      0x00\n        /* \"#utility.yul\":1760:1762   */\n      0x20\n        /* \"#utility.yul\":1749:1758   */\n      dup3\n        /* \"#utility.yul\":1745:1763   */\n      add\n        /* \"#utility.yul\":1737:1763   */\n      swap1\n      pop\n        /* \"#utility.yul\":1773:1844   */\n      tag_286\n        /* \"#utility.yul\":1841:1842   */\n      0x00\n        /* \"#utility.yul\":1830:1839   */\n      dup4\n        /* \"#utility.yul\":1826:1843   */\n      add\n        /* \"#utility.yul\":1817:1823   */\n      dup5\n        /* \"#utility.yul\":1773:1844   */\n      tag_214\n      jump\t// in\n    tag_286:\n        /* \"#utility.yul\":1629:1851   */\n      swap3\n      swap2\n      pop\n      pop\n      jump\t// out\n        /* \"#utility.yul\":1857:1971   */\n    tag_215:\n        /* \"#utility.yul\":1924:1930   */\n      0x00\n        /* \"#utility.yul\":1958:1963   */\n      dup2\n        /* \"#utility.yul\":1952:1964   */\n      mload\n        /* \"#utility.yul\":1942:1964   */\n      swap1\n      pop\n        /* \"#utility.yul\":1857:1971   */\n      swap2\n      swap1\n      pop\n      jump\t// out\n        /* \"#utility.yul\":1977:2161   */\n    tag_216:\n        /* \"#utility.yul\":2076:2087   */\n      0x00\n        /* \"#utility.yul\":2110:2116   */\n      dup3\n        /* \"#utility.yul\":2105:2108   */\n      dup3\n        /* \"#utility.yul\":2098:2117   */\n      mstore\n        /* \"#utility.yul\":2150:2154   */\n      0x20\n        /* \"#utility.yul\":2145:2148   */\n      dup3\n        /* \"#utility.yul\":2141:2155   */\n      add\n        /* \"#utility.yul\":2126:2155   */\n      swap1\n      pop\n        /* \"#utility.yul\":1977:2161   */\n      swap3\n      swap2\n      pop\n      pop\n      jump\t// out\n        /* \"#utility.yul\":2167:2299   */\n    tag_217:\n        /* \"#utility.yul\":2234:2238   */\n      0x00\n        /* \"#utility.yul\":2257:2260   */\n      dup2\n        /* \"#utility.yul\":2249:2260   */\n      swap1\n      pop\n        /* \"#utility.yul\":2287:2291   */\n      0x20\n        /* \"#utility.yul\":2282:2285   */\n      dup3\n        /* \"#utility.yul\":2278:2292   */\n      add\n        /* \"#utility.yul\":2270:2292   */\n      swap1\n      pop\n        /* \"#utility.yul\":2167:2299   */\n      swap2\n      swap1\n      pop\n      jump\t// out\n        /* \"#utility.yul\":2305:2413   */\n    tag_218:\n        /* \"#utility.yul\":2382:2406   */\n      tag_291\n        /* \"#utility.yul\":2400:2405   */\n      dup2\n        /* \"#utility.yul\":2382:2406   */\n      tag_211\n      jump\t// in\n    tag_291:\n        /* \"#utility.yul\":2377:2380   */\n      dup3\n        /* \"#utility.yul\":2370:2407   */\n      mstore\n        /* \"#utility.yul\":2305:2413   */\n      pop\n      pop\n      jump\t// out\n        /* \"#utility.yul\":2419:2598   */\n    tag_219:\n        /* \"#utility.yul\":2488:2498   */\n      0x00\n        /* \"#utility.yul\":2509:2555   */\n      tag_293\n        /* \"#utility.yul\":2551:2554   */\n      dup4\n        /* \"#utility.yul\":2543:2549   */\n      dup4\n        /* \"#utility.yul\":2509:2555   */\n      tag_218\n      jump\t// in\n    tag_293:\n        /* \"#utility.yul\":2587:2591   */\n      0x20\n        /* \"#utility.yul\":2582:2585   */\n      dup4\n        /* \"#utility.yul\":2578:2592   */\n      add\n        /* \"#utility.yul\":2564:2592   */\n      swap1\n      pop\n        /* \"#utility.yul\":2419:2598   */\n      swap3\n      swap2\n      pop\n      pop\n      jump\t// out\n        /* \"#utility.yul\":2604:2717   */\n    tag_220:\n        /* \"#utility.yul\":2674:2678   */\n      0x00\n        /* \"#utility.yul\":2706:2710   */\n      0x20\n        /* \"#utility.yul\":2701:2704   */\n      dup3\n        /* \"#utility.yul\":2697:2711   */\n      add\n        /* \"#utility.yul\":2689:2711   */\n      swap1\n      pop\n        /* \"#utility.yul\":2604:2717   */\n      swap2\n      swap1\n      pop\n      jump\t// out\n        /* \"#utility.yul\":2753:3485   */\n    tag_221:\n        /* \"#utility.yul\":2872:2875   */\n      0x00\n        /* \"#utility.yul\":2901:2955   */\n      tag_296\n        /* \"#utility.yul\":2949:2954   */\n      dup3\n        /* \"#utility.yul\":2901:2955   */\n      tag_215\n      jump\t// in\n    tag_296:\n        /* \"#utility.yul\":2971:3057   */\n      tag_297\n        /* \"#utility.yul\":3050:3056   */\n      dup2\n        /* \"#utility.yul\":3045:3048   */\n      dup6\n        /* \"#utility.yul\":2971:3057   */\n      tag_216\n      jump\t// in\n    tag_297:\n        /* \"#utility.yul\":2964:3057   */\n      swap4\n      pop\n        /* \"#utility.yul\":3081:3137   */\n      tag_298\n        /* \"#utility.yul\":3131:3136   */\n      dup4\n        /* \"#utility.yul\":3081:3137   */\n      tag_217\n      jump\t// in\n    tag_298:\n        /* \"#utility.yul\":3160:3167   */\n      dup1\n        /* \"#utility.yul\":3191:3192   */\n      0x00\n        /* \"#utility.yul\":3176:3460   */\n    tag_299:\n        /* \"#utility.yul\":3201:3207   */\n      dup4\n        /* \"#utility.yul\":3198:3199   */\n      dup2\n        /* \"#utility.yul\":3195:3208   */\n      lt\n        /* \"#utility.yul\":3176:3460   */\n      iszero\n      tag_301\n      jumpi\n        /* \"#utility.yul\":3277:3283   */\n      dup2\n        /* \"#utility.yul\":3271:3284   */\n      mload\n        /* \"#utility.yul\":3304:3367   */\n      tag_302\n        /* \"#utility.yul\":3363:3366   */\n      dup9\n        /* \"#utility.yul\":3348:3361   */\n      dup3\n        /* \"#utility.yul\":3304:3367   */\n      tag_219\n      jump\t// in\n    tag_302:\n        /* \"#utility.yul\":3297:3367   */\n      swap8\n      pop\n        /* \"#utility.yul\":3390:3450   */\n      tag_303\n        /* \"#utility.yul\":3443:3449   */\n      dup4\n        /* \"#utility.yul\":3390:3450   */\n      tag_220\n      jump\t// in\n    tag_303:\n        /* \"#utility.yul\":3380:3450   */\n      swap3\n      pop\n        /* \"#utility.yul\":3236:3460   */\n      pop\n        /* \"#utility.yul\":3223:3224   */\n      0x01\n        /* \"#utility.yul\":3220:3221   */\n      dup2\n        /* \"#utility.yul\":3216:3225   */\n      add\n        /* \"#utility.yul\":3211:3225   */\n      swap1\n      pop\n        /* \"#utility.yul\":3176:3460   */\n      jump(tag_299)\n    tag_301:\n        /* \"#utility.yul\":3180:3194   */\n      pop\n        /* \"#utility.yul\":3476:3479   */\n      dup6\n        /* \"#utility.yul\":3469:3479   */\n      swap4\n      pop\n        /* \"#utility.yul\":2877:3485   */\n      pop\n      pop\n      pop\n        /* \"#utility.yul\":2753:3485   */\n      swap3\n      swap2\n      pop\n      pop\n      jump\t// out\n        /* \"#utility.yul\":3491:3864   */\n    tag_37:\n        /* \"#utility.yul\":3634:3638   */\n      0x00\n        /* \"#utility.yul\":3672:3674   */\n      0x20\n        /* \"#utility.yul\":3661:3670   */\n      dup3\n        /* \"#utility.yul\":3657:3675   */\n      add\n        /* \"#utility.yul\":3649:3675   */\n      swap1\n      pop\n        /* \"#utility.yul\":3721:3730   */\n      dup2\n        /* \"#utility.yul\":3715:3719   */\n      dup2\n        /* \"#utility.yul\":3711:3731   */\n      sub\n        /* \"#utility.yul\":3707:3708   */\n      0x00\n        /* \"#utility.yul\":3696:3705   */\n      dup4\n        /* \"#utility.yul\":3692:3709   */\n      add\n        /* \"#utility.yul\":3685:3732   */\n      mstore\n        /* \"#utility.yul\":3749:3857   */\n      tag_305\n        /* \"#utility.yul\":3852:3856   */\n      dup2\n        /* \"#utility.yul\":3843:3849   */\n      dup5\n        /* \"#utility.yul\":3749:3857   */\n      tag_221\n      jump\t// in\n    tag_305:\n        /* \"#utility.yul\":3741:3857   */\n      swap1\n      pop\n        /* \"#utility.yul\":3491:3864   */\n      swap3\n      swap2\n      pop\n      pop\n      jump\t// out\n        /* \"#utility.yul\":3870:3984   */\n    tag_222:\n        /* \"#utility.yul\":3937:3943   */\n      0x00\n        /* \"#utility.yul\":3971:3976   */\n      dup2\n        /* \"#utility.yul\":3965:3977   */\n      mload\n        /* \"#utility.yul\":3955:3977   */\n      swap1\n      pop\n        /* \"#utility.yul\":3870:3984   */\n      swap2\n      swap1\n      pop\n      jump\t// out\n        /* \"#utility.yul\":3990:4174   */\n    tag_223:\n        /* \"#utility.yul\":4089:4100   */\n      0x00\n        /* \"#utility.yul\":4123:4129   */\n      dup3\n        /* \"#utility.yul\":4118:4121   */\n      dup3\n        /* \"#utility.yul\":4111:4130   */\n      mstore\n        /* \"#utility.yul\":4163:4167   */\n      0x20\n        /* \"#utility.yul\":4158:4161   */\n      dup3\n        /* \"#utility.yul\":4154:4168   */\n      add\n        /* \"#utility.yul\":4139:4168   */\n      swap1\n      pop\n        /* \"#utility.yul\":3990:4174   */\n      swap3\n      swap2\n      pop\n      pop\n      jump\t// out\n        /* \"#utility.yul\":4180:4312   */\n    tag_224:\n        /* \"#utility.yul\":4247:4251   */\n      0x00\n        /* \"#utility.yul\":4270:4273   */\n      dup2\n        /* \"#utility.yul\":4262:4273   */\n      swap1\n      pop\n        /* \"#utility.yul\":4300:4304   */\n      0x20\n        /* \"#utility.yul\":4295:4298   */\n      dup3\n        /* \"#utility.yul\":4291:4305   */\n      add\n        /* \"#utility.yul\":4283:4305   */\n      swap1\n      pop\n        /* \"#utility.yul\":4180:4312   */\n      swap2\n      swap1\n      pop\n      jump\t// out\n        /* \"#utility.yul\":4318:4444   */\n    tag_225:\n        /* \"#utility.yul\":4355:4362   */\n      0x00\n        /* \"#utility.yul\":4395:4437   */\n      0xffffffffffffffffffffffffffffffffffffffff\n        /* \"#utility.yul\":4388:4393   */\n      dup3\n        /* \"#utility.yul\":4384:4438   */\n      and\n        /* \"#utility.yul\":4373:4438   */\n      swap1\n      pop\n        /* \"#utility.yul\":4318:4444   */\n      swap2\n      swap1\n      pop\n      jump\t// out\n        /* \"#utility.yul\":4450:4546   */\n    tag_226:\n        /* \"#utility.yul\":4487:4494   */\n      0x00\n        /* \"#utility.yul\":4516:4540   */\n      tag_311\n        /* \"#utility.yul\":4534:4539   */\n      dup3\n        /* \"#utility.yul\":4516:4540   */\n      tag_225\n      jump\t// in\n    tag_311:\n        /* \"#utility.yul\":4505:4540   */\n      swap1\n      pop\n        /* \"#utility.yul\":4450:4546   */\n      swap2\n      swap1\n      pop\n      jump\t// out\n        /* \"#utility.yul\":4552:4660   */\n    tag_227:\n        /* \"#utility.yul\":4629:4653   */\n      tag_313\n        /* \"#utility.yul\":4647:4652   */\n      dup2\n        /* \"#utility.yul\":4629:4653   */\n      tag_226\n      jump\t// in\n    tag_313:\n        /* \"#utility.yul\":4624:4627   */\n      dup3\n        /* \"#utility.yul\":4617:4654   */\n      mstore\n        /* \"#utility.yul\":4552:4660   */\n      pop\n      pop\n      jump\t// out\n        /* \"#utility.yul\":4666:4845   */\n    tag_228:\n        /* \"#utility.yul\":4735:4745   */\n      0x00\n        /* \"#utility.yul\":4756:4802   */\n      tag_315\n        /* \"#utility.yul\":4798:4801   */\n      dup4\n        /* \"#utility.yul\":4790:4796   */\n      dup4\n        /* \"#utility.yul\":4756:4802   */\n      tag_227\n      jump\t// in\n    tag_315:\n        /* \"#utility.yul\":4834:4838   */\n      0x20\n        /* \"#utility.yul\":4829:4832   */\n      dup4\n        /* \"#utility.yul\":4825:4839   */\n      add\n        /* \"#utility.yul\":4811:4839   */\n      swap1\n      pop\n        /* \"#utility.yul\":4666:4845   */\n      swap3\n      swap2\n      pop\n      pop\n      jump\t// out\n        /* \"#utility.yul\":4851:4964   */\n    tag_229:\n        /* \"#utility.yul\":4921:4925   */\n      0x00\n        /* \"#utility.yul\":4953:4957   */\n      0x20\n        /* \"#utility.yul\":4948:4951   */\n      dup3\n        /* \"#utility.yul\":4944:4958   */\n      add\n        /* \"#utility.yul\":4936:4958   */\n      swap1\n      pop\n        /* \"#utility.yul\":4851:4964   */\n      swap2\n      swap1\n      pop\n      jump\t// out\n        /* \"#utility.yul\":5000:5732   */\n    tag_230:\n        /* \"#utility.yul\":5119:5122   */\n      0x00\n        /* \"#utility.yul\":5148:5202   */\n      tag_318\n        /* \"#utility.yul\":5196:5201   */\n      dup3\n        /* \"#utility.yul\":5148:5202   */\n      tag_222\n      jump\t// in\n    tag_318:\n        /* \"#utility.yul\":5218:5304   */\n      tag_319\n        /* \"#utility.yul\":5297:5303   */\n      dup2\n        /* \"#utility.yul\":5292:5295   */\n      dup6\n        /* \"#utility.yul\":5218:5304   */\n      tag_223\n      jump\t// in\n    tag_319:\n        /* \"#utility.yul\":5211:5304   */\n      swap4\n      pop\n        /* \"#utility.yul\":5328:5384   */\n      tag_320\n        /* \"#utility.yul\":5378:5383   */\n      dup4\n        /* \"#utility.yul\":5328:5384   */\n      tag_224\n      jump\t// in\n    tag_320:\n        /* \"#utility.yul\":5407:5414   */\n      dup1\n        /* \"#utility.yul\":5438:5439   */\n      0x00\n        /* \"#utility.yul\":5423:5707   */\n    tag_321:\n        /* \"#utility.yul\":5448:5454   */\n      dup4\n        /* \"#utility.yul\":5445:5446   */\n      dup2\n        /* \"#utility.yul\":5442:5455   */\n      lt\n        /* \"#utility.yul\":5423:5707   */\n      iszero\n      tag_323\n      jumpi\n        /* \"#utility.yul\":5524:5530   */\n      dup2\n        /* \"#utility.yul\":5518:5531   */\n      mload\n        /* \"#utility.yul\":5551:5614   */\n      tag_324\n        /* \"#utility.yul\":5610:5613   */\n      dup9\n        /* \"#utility.yul\":5595:5608   */\n      dup3\n        /* \"#utility.yul\":5551:5614   */\n      tag_228\n      jump\t// in\n    tag_324:\n        /* \"#utility.yul\":5544:5614   */\n      swap8\n      pop\n        /* \"#utility.yul\":5637:5697   */\n      tag_325\n        /* \"#utility.yul\":5690:5696   */\n      dup4\n        /* \"#utility.yul\":5637:5697   */\n      tag_229\n      jump\t// in\n    tag_325:\n        /* \"#utility.yul\":5627:5697   */\n      swap3\n      pop\n        /* \"#utility.yul\":5483:5707   */\n      pop\n        /* \"#utility.yul\":5470:5471   */\n      0x01\n        /* \"#utility.yul\":5467:5468   */\n      dup2\n        /* \"#utility.yul\":5463:5472   */\n      add\n        /* \"#utility.yul\":5458:5472   */\n      swap1\n      pop\n        /* \"#utility.yul\":5423:5707   */\n      jump(tag_321)\n    tag_323:\n        /* \"#utility.yul\":5427:5441   */\n      pop\n        /* \"#utility.yul\":5723:5726   */\n      dup6\n        /* \"#utility.yul\":5716:5726   */\n      swap4\n      pop\n        /* \"#utility.yul\":5124:5732   */\n      pop\n      pop\n      pop\n        /* \"#utility.yul\":5000:5732   */\n      swap3\n      swap2\n      pop\n      pop\n      jump\t// out\n        /* \"#utility.yul\":5738:6111   */\n    tag_50:\n        /* \"#utility.yul\":5881:5885   */\n      0x00\n        /* \"#utility.yul\":5919:5921   */\n      0x20\n        /* \"#utility.yul\":5908:5917   */\n      dup3\n        /* \"#utility.yul\":5904:5922   */\n      add\n        /* \"#utility.yul\":5896:5922   */\n      swap1\n      pop\n        /* \"#utility.yul\":5968:5977   */\n      dup2\n        /* \"#utility.yul\":5962:5966   */\n      dup2\n        /* \"#utility.yul\":5958:5978   */\n      sub\n        /* \"#utility.yul\":5954:5955   */\n      0x00\n        /* \"#utility.yul\":5943:5952   */\n      dup4\n        /* \"#utility.yul\":5939:5956   */\n      add\n        /* \"#utility.yul\":5932:5979   */\n      mstore\n        /* \"#utility.yul\":5996:6104   */\n      tag_327\n        /* \"#utility.yul\":6099:6103   */\n      dup2\n        /* \"#utility.yul\":6090:6096   */\n      dup5\n        /* \"#utility.yul\":5996:6104   */\n      tag_230\n      jump\t// in\n    tag_327:\n        /* \"#utility.yul\":5988:6104   */\n      swap1\n      pop\n        /* \"#utility.yul\":5738:6111   */\n      swap3\n      swap2\n      pop\n      pop\n      jump\t// out\n        /* \"#utility.yul\":6117:6234   */\n    tag_231:\n        /* \"#utility.yul\":6226:6227   */\n      0x00\n        /* \"#utility.yul\":6223:6224   */\n      dup1\n        /* \"#utility.yul\":6216:6228   */\n      revert\n        /* \"#utility.yul\":6240:6357   */\n    tag_232:\n        /* \"#utility.yul\":6349:6350   */\n      0x00\n        /* \"#utility.yul\":6346:6347   */\n      dup1\n        /* \"#utility.yul\":6339:6351   */\n      revert\n        /* \"#utility.yul\":6363:6480   */\n    tag_233:\n        /* \"#utility.yul\":6472:6473   */\n      0x00\n        /* \"#utility.yul\":6469:6470   */\n      dup1\n        /* \"#utility.yul\":6462:6474   */\n      revert\n        /* \"#utility.yul\":6503:7071   */\n    tag_234:\n        /* \"#utility.yul\":6576:6584   */\n      0x00\n        /* \"#utility.yul\":6586:6592   */\n      dup1\n        /* \"#utility.yul\":6636:6639   */\n      dup4\n        /* \"#utility.yul\":6629:6633   */\n      0x1f\n        /* \"#utility.yul\":6621:6627   */\n      dup5\n        /* \"#utility.yul\":6617:6634   */\n      add\n        /* \"#utility.yul\":6613:6640   */\n      slt\n        /* \"#utility.yul\":6603:6725   */\n      tag_332\n      jumpi\n        /* \"#utility.yul\":6644:6723   */\n      tag_333\n      tag_231\n      jump\t// in\n    tag_333:\n        /* \"#utility.yul\":6603:6725   */\n    tag_332:\n        /* \"#utility.yul\":6757:6763   */\n      dup3\n        /* \"#utility.yul\":6744:6764   */\n      calldataload\n        /* \"#utility.yul\":6734:6764   */\n      swap1\n      pop\n        /* \"#utility.yul\":6787:6805   */\n      0xffffffffffffffff\n        /* \"#utility.yul\":6779:6785   */\n      dup2\n        /* \"#utility.yul\":6776:6806   */\n      gt\n        /* \"#utility.yul\":6773:6890   */\n      iszero\n      tag_334\n      jumpi\n        /* \"#utility.yul\":6809:6888   */\n      tag_335\n      tag_232\n      jump\t// in\n    tag_335:\n        /* \"#utility.yul\":6773:6890   */\n    tag_334:\n        /* \"#utility.yul\":6923:6927   */\n      0x20\n        /* \"#utility.yul\":6915:6921   */\n      dup4\n        /* \"#utility.yul\":6911:6928   */\n      add\n        /* \"#utility.yul\":6899:6928   */\n      swap2\n      pop\n        /* \"#utility.yul\":6977:6980   */\n      dup4\n        /* \"#utility.yul\":6969:6973   */\n      0x20\n        /* \"#utility.yul\":6961:6967   */\n      dup3\n        /* \"#utility.yul\":6957:6974   */\n      mul\n        /* \"#utility.yul\":6947:6955   */\n      dup4\n        /* \"#utility.yul\":6943:6975   */\n      add\n        /* \"#utility.yul\":6940:6981   */\n      gt\n        /* \"#utility.yul\":6937:7065   */\n      iszero\n      tag_336\n      jumpi\n        /* \"#utility.yul\":6984:7063   */\n      tag_337\n      tag_233\n      jump\t// in\n    tag_337:\n        /* \"#utility.yul\":6937:7065   */\n    tag_336:\n        /* \"#utility.yul\":6503:7071   */\n      swap3\n      pop\n      swap3\n      swap1\n      pop\n      jump\t// out\n        /* \"#utility.yul\":7077:7636   */\n    tag_54:\n        /* \"#utility.yul\":7163:7169   */\n      0x00\n        /* \"#utility.yul\":7171:7177   */\n      dup1\n        /* \"#utility.yul\":7220:7222   */\n      0x20\n        /* \"#utility.yul\":7208:7217   */\n      dup4\n        /* \"#utility.yul\":7199:7206   */\n      dup6\n        /* \"#utility.yul\":7195:7218   */\n      sub\n        /* \"#utility.yul\":7191:7223   */\n      slt\n        /* \"#utility.yul\":7188:7307   */\n      iszero\n      tag_339\n      jumpi\n        /* \"#utility.yul\":7226:7305   */\n      tag_340\n      tag_209\n      jump\t// in\n    tag_340:\n        /* \"#utility.yul\":7188:7307   */\n    tag_339:\n        /* \"#utility.yul\":7374:7375   */\n      0x00\n        /* \"#utility.yul\":7363:7372   */\n      dup4\n        /* \"#utility.yul\":7359:7376   */\n      add\n        /* \"#utility.yul\":7346:7377   */\n      calldataload\n        /* \"#utility.yul\":7404:7422   */\n      0xffffffffffffffff\n        /* \"#utility.yul\":7396:7402   */\n      dup2\n        /* \"#utility.yul\":7393:7423   */\n      gt\n        /* \"#utility.yul\":7390:7507   */\n      iszero\n      tag_341\n      jumpi\n        /* \"#utility.yul\":7426:7505   */\n      tag_342\n      tag_210\n      jump\t// in\n    tag_342:\n        /* \"#utility.yul\":7390:7507   */\n    tag_341:\n        /* \"#utility.yul\":7539:7619   */\n      tag_343\n        /* \"#utility.yul\":7611:7618   */\n      dup6\n        /* \"#utility.yul\":7602:7608   */\n      dup3\n        /* \"#utility.yul\":7591:7600   */\n      dup7\n        /* \"#utility.yul\":7587:7609   */\n      add\n        /* \"#utility.yul\":7539:7619   */\n      tag_234\n      jump\t// in\n    tag_343:\n        /* \"#utility.yul\":7521:7619   */\n      swap3\n      pop\n      swap3\n      pop\n        /* \"#utility.yul\":7317:7629   */\n      pop\n        /* \"#utility.yul\":7077:7636   */\n      swap3\n      pop\n      swap3\n      swap1\n      pop\n      jump\t// out\n        /* \"#utility.yul\":7642:7822   */\n    tag_62:\n        /* \"#utility.yul\":7690:7767   */\n      0x4e487b7100000000000000000000000000000000000000000000000000000000\n        /* \"#utility.yul\":7687:7688   */\n      0x00\n        /* \"#utility.yul\":7680:7768   */\n      mstore\n        /* \"#utility.yul\":7787:7791   */\n      0x32\n        /* \"#utility.yul\":7784:7785   */\n      0x04\n        /* \"#utility.yul\":7777:7792   */\n      mstore\n        /* \"#utility.yul\":7811:7815   */\n      0x24\n        /* \"#utility.yul\":7808:7809   */\n      0x00\n        /* \"#utility.yul\":7801:7816   */\n      revert\n        /* \"#utility.yul\":7828:7997   */\n    tag_235:\n        /* \"#utility.yul\":7912:7923   */\n      0x00\n        /* \"#utility.yul\":7946:7952   */\n      dup3\n        /* \"#utility.yul\":7941:7944   */\n      dup3\n        /* \"#utility.yul\":7934:7953   */\n      mstore\n        /* \"#utility.yul\":7986:7990   */\n      0x20\n        /* \"#utility.yul\":7981:7984   */\n      dup3\n        /* \"#utility.yul\":7977:7991   */\n      add\n        /* \"#utility.yul\":7962:7991   */\n      swap1\n      pop\n        /* \"#utility.yul\":7828:7997   */\n      swap3\n      swap2\n      pop\n      pop\n      jump\t// out\n        /* \"#utility.yul\":8003:8226   */\n    tag_236:\n        /* \"#utility.yul\":8143:8177   */\n      0x796f7520617265206e6f7420616e206f776e6572206f66207468697320616363\n        /* \"#utility.yul\":8139:8140   */\n      0x00\n        /* \"#utility.yul\":8131:8137   */\n      dup3\n        /* \"#utility.yul\":8127:8141   */\n      add\n        /* \"#utility.yul\":8120:8178   */\n      mstore\n        /* \"#utility.yul\":8212:8218   */\n      0x6f756e7400000000000000000000000000000000000000000000000000000000\n        /* \"#utility.yul\":8207:8209   */\n      0x20\n        /* \"#utility.yul\":8199:8205   */\n      dup3\n        /* \"#utility.yul\":8195:8210   */\n      add\n        /* \"#utility.yul\":8188:8219   */\n      mstore\n        /* \"#utility.yul\":8003:8226   */\n      pop\n      jump\t// out\n        /* \"#utility.yul\":8232:8598   */\n    tag_237:\n        /* \"#utility.yul\":8374:8377   */\n      0x00\n        /* \"#utility.yul\":8395:8462   */\n      tag_348\n        /* \"#utility.yul\":8459:8461   */\n      0x24\n        /* \"#utility.yul\":8454:8457   */\n      dup4\n        /* \"#utility.yul\":8395:8462   */\n      tag_235\n      jump\t// in\n    tag_348:\n        /* \"#utility.yul\":8388:8462   */\n      swap2\n      pop\n        /* \"#utility.yul\":8471:8564   */\n      tag_349\n        /* \"#utility.yul\":8560:8563   */\n      dup3\n        /* \"#utility.yul\":8471:8564   */\n      tag_236\n      jump\t// in\n    tag_349:\n        /* \"#utility.yul\":8589:8591   */\n      0x40\n        /* \"#utility.yul\":8584:8587   */\n      dup3\n        /* \"#utility.yul\":8580:8592   */\n      add\n        /* \"#utility.yul\":8573:8592   */\n      swap1\n      pop\n        /* \"#utility.yul\":8232:8598   */\n      swap2\n      swap1\n      pop\n      jump\t// out\n        /* \"#utility.yul\":8604:9023   */\n    tag_67:\n        /* \"#utility.yul\":8770:8774   */\n      0x00\n        /* \"#utility.yul\":8808:8810   */\n      0x20\n        /* \"#utility.yul\":8797:8806   */\n      dup3\n        /* \"#utility.yul\":8793:8811   */\n      add\n        /* \"#utility.yul\":8785:8811   */\n      swap1\n      pop\n        /* \"#utility.yul\":8857:8866   */\n      dup2\n        /* \"#utility.yul\":8851:8855   */\n      dup2\n        /* \"#utility.yul\":8847:8867   */\n      sub\n        /* \"#utility.yul\":8843:8844   */\n      0x00\n        /* \"#utility.yul\":8832:8841   */\n      dup4\n        /* \"#utility.yul\":8828:8845   */\n      add\n        /* \"#utility.yul\":8821:8868   */\n      mstore\n        /* \"#utility.yul\":8885:9016   */\n      tag_351\n        /* \"#utility.yul\":9011:9015   */\n      dup2\n        /* \"#utility.yul\":8885:9016   */\n      tag_237\n      jump\t// in\n    tag_351:\n        /* \"#utility.yul\":8877:9016   */\n      swap1\n      pop\n        /* \"#utility.yul\":8604:9023   */\n      swap2\n      swap1\n      pop\n      jump\t// out\n        /* \"#utility.yul\":9029:9211   */\n    tag_238:\n        /* \"#utility.yul\":9169:9203   */\n      0x74686973207265717565737420697320616c726561647920617070726f766564\n        /* \"#utility.yul\":9165:9166   */\n      0x00\n        /* \"#utility.yul\":9157:9163   */\n      dup3\n        /* \"#utility.yul\":9153:9167   */\n      add\n        /* \"#utility.yul\":9146:9204   */\n      mstore\n        /* \"#utility.yul\":9029:9211   */\n      pop\n      jump\t// out\n        /* \"#utility.yul\":9217:9583   */\n    tag_239:\n        /* \"#utility.yul\":9359:9362   */\n      0x00\n        /* \"#utility.yul\":9380:9447   */\n      tag_354\n        /* \"#utility.yul\":9444:9446   */\n      0x20\n        /* \"#utility.yul\":9439:9442   */\n      dup4\n        /* \"#utility.yul\":9380:9447   */\n      tag_235\n      jump\t// in\n    tag_354:\n        /* \"#utility.yul\":9373:9447   */\n      swap2\n      pop\n        /* \"#utility.yul\":9456:9549   */\n      tag_355\n        /* \"#utility.yul\":9545:9548   */\n      dup3\n        /* \"#utility.yul\":9456:9549   */\n      tag_238\n      jump\t// in\n    tag_355:\n        /* \"#utility.yul\":9574:9576   */\n      0x20\n        /* \"#utility.yul\":9569:9572   */\n      dup3\n        /* \"#utility.yul\":9565:9577   */\n      add\n        /* \"#utility.yul\":9558:9577   */\n      swap1\n      pop\n        /* \"#utility.yul\":9217:9583   */\n      swap2\n      swap1\n      pop\n      jump\t// out\n        /* \"#utility.yul\":9589:10008   */\n    tag_71:\n        /* \"#utility.yul\":9755:9759   */\n      0x00\n        /* \"#utility.yul\":9793:9795   */\n      0x20\n        /* \"#utility.yul\":9782:9791   */\n      dup3\n        /* \"#utility.yul\":9778:9796   */\n      add\n        /* \"#utility.yul\":9770:9796   */\n      swap1\n      pop\n        /* \"#utility.yul\":9842:9851   */\n      dup2\n        /* \"#utility.yul\":9836:9840   */\n      dup2\n        /* \"#utility.yul\":9832:9852   */\n      sub\n        /* \"#utility.yul\":9828:9829   */\n      0x00\n        /* \"#utility.yul\":9817:9826   */\n      dup4\n        /* \"#utility.yul\":9813:9830   */\n      add\n        /* \"#utility.yul\":9806:9853   */\n      mstore\n        /* \"#utility.yul\":9870:10001   */\n      tag_357\n        /* \"#utility.yul\":9996:10000   */\n      dup2\n        /* \"#utility.yul\":9870:10001   */\n      tag_239\n      jump\t// in\n    tag_357:\n        /* \"#utility.yul\":9862:10001   */\n      swap1\n      pop\n        /* \"#utility.yul\":9589:10008   */\n      swap2\n      swap1\n      pop\n      jump\t// out\n        /* \"#utility.yul\":10014:10195   */\n    tag_240:\n        /* \"#utility.yul\":10154:10187   */\n      0x796f752063616e6e6f7420617070726f76652074686973207265717565737400\n        /* \"#utility.yul\":10150:10151   */\n      0x00\n        /* \"#utility.yul\":10142:10148   */\n      dup3\n        /* \"#utility.yul\":10138:10152   */\n      add\n        /* \"#utility.yul\":10131:10188   */\n      mstore\n        /* \"#utility.yul\":10014:10195   */\n      pop\n      jump\t// out\n        /* \"#utility.yul\":10201:10567   */\n    tag_241:\n        /* \"#utility.yul\":10343:10346   */\n      0x00\n        /* \"#utility.yul\":10364:10431   */\n      tag_360\n        /* \"#utility.yul\":10428:10430   */\n      0x1f\n        /* \"#utility.yul\":10423:10426   */\n      dup4\n        /* \"#utility.yul\":10364:10431   */\n      tag_235\n      jump\t// in\n    tag_360:\n        /* \"#utility.yul\":10357:10431   */\n      swap2\n      pop\n        /* \"#utility.yul\":10440:10533   */\n      tag_361\n        /* \"#utility.yul\":10529:10532   */\n      dup3\n        /* \"#utility.yul\":10440:10533   */\n      tag_240\n      jump\t// in\n    tag_361:\n        /* \"#utility.yul\":10558:10560   */\n      0x20\n        /* \"#utility.yul\":10553:10556   */\n      dup3\n        /* \"#utility.yul\":10549:10561   */\n      add\n        /* \"#utility.yul\":10542:10561   */\n      swap1\n      pop\n        /* \"#utility.yul\":10201:10567   */\n      swap2\n      swap1\n      pop\n      jump\t// out\n        /* \"#utility.yul\":10573:10992   */\n    tag_74:\n        /* \"#utility.yul\":10739:10743   */\n      0x00\n        /* \"#utility.yul\":10777:10779   */\n      0x20\n        /* \"#utility.yul\":10766:10775   */\n      dup3\n        /* \"#utility.yul\":10762:10780   */\n      add\n        /* \"#utility.yul\":10754:10780   */\n      swap1\n      pop\n        /* \"#utility.yul\":10826:10835   */\n      dup2\n        /* \"#utility.yul\":10820:10824   */\n      dup2\n        /* \"#utility.yul\":10816:10836   */\n      sub\n        /* \"#utility.yul\":10812:10813   */\n      0x00\n        /* \"#utility.yul\":10801:10810   */\n      dup4\n        /* \"#utility.yul\":10797:10814   */\n      add\n        /* \"#utility.yul\":10790:10837   */\n      mstore\n        /* \"#utility.yul\":10854:10985   */\n      tag_363\n        /* \"#utility.yul\":10980:10984   */\n      dup2\n        /* \"#utility.yul\":10854:10985   */\n      tag_241\n      jump\t// in\n    tag_363:\n        /* \"#utility.yul\":10846:10985   */\n      swap1\n      pop\n        /* \"#utility.yul\":10573:10992   */\n      swap2\n      swap1\n      pop\n      jump\t// out\n        /* \"#utility.yul\":10998:11175   */\n    tag_242:\n        /* \"#utility.yul\":11138:11167   */\n      0x74686973207265717565737420646f6573206e6f742065786973740000000000\n        /* \"#utility.yul\":11134:11135   */\n      0x00\n        /* \"#utility.yul\":11126:11132   */\n      dup3\n        /* \"#utility.yul\":11122:11136   */\n      add\n        /* \"#utility.yul\":11115:11168   */\n      mstore\n        /* \"#utility.yul\":10998:11175   */\n      pop\n      jump\t// out\n        /* \"#utility.yul\":11181:11547   */\n    tag_243:\n        /* \"#utility.yul\":11323:11326   */\n      0x00\n        /* \"#utility.yul\":11344:11411   */\n      tag_366\n        /* \"#utility.yul\":11408:11410   */\n      0x1b\n        /* \"#utility.yul\":11403:11406   */\n      dup4\n        /* \"#utility.yul\":11344:11411   */\n      tag_235\n      jump\t// in\n    tag_366:\n        /* \"#utility.yul\":11337:11411   */\n      swap2\n      pop\n        /* \"#utility.yul\":11420:11513   */\n      tag_367\n        /* \"#utility.yul\":11509:11512   */\n      dup3\n        /* \"#utility.yul\":11420:11513   */\n      tag_242\n      jump\t// in\n    tag_367:\n        /* \"#utility.yul\":11538:11540   */\n      0x20\n        /* \"#utility.yul\":11533:11536   */\n      dup3\n        /* \"#utility.yul\":11529:11541   */\n      add\n        /* \"#utility.yul\":11522:11541   */\n      swap1\n      pop\n        /* \"#utility.yul\":11181:11547   */\n      swap2\n      swap1\n      pop\n      jump\t// out\n        /* \"#utility.yul\":11553:11972   */\n    tag_77:\n        /* \"#utility.yul\":11719:11723   */\n      0x00\n        /* \"#utility.yul\":11757:11759   */\n      0x20\n        /* \"#utility.yul\":11746:11755   */\n      dup3\n        /* \"#utility.yul\":11742:11760   */\n      add\n        /* \"#utility.yul\":11734:11760   */\n      swap1\n      pop\n        /* \"#utility.yul\":11806:11815   */\n      dup2\n        /* \"#utility.yul\":11800:11804   */\n      dup2\n        /* \"#utility.yul\":11796:11816   */\n      sub\n        /* \"#utility.yul\":11792:11793   */\n      0x00\n        /* \"#utility.yul\":11781:11790   */\n      dup4\n        /* \"#utility.yul\":11777:11794   */\n      add\n        /* \"#utility.yul\":11770:11817   */\n      mstore\n        /* \"#utility.yul\":11834:11965   */\n      tag_369\n        /* \"#utility.yul\":11960:11964   */\n      dup2\n        /* \"#utility.yul\":11834:11965   */\n      tag_243\n      jump\t// in\n    tag_369:\n        /* \"#utility.yul\":11826:11965   */\n      swap1\n      pop\n        /* \"#utility.yul\":11553:11972   */\n      swap2\n      swap1\n      pop\n      jump\t// out\n        /* \"#utility.yul\":11978:12203   */\n    tag_244:\n        /* \"#utility.yul\":12118:12152   */\n      0x796f75206861766520616c726561647920617070726f76656420746869732072\n        /* \"#utility.yul\":12114:12115   */\n      0x00\n        /* \"#utility.yul\":12106:12112   */\n      dup3\n        /* \"#utility.yul\":12102:12116   */\n      add\n        /* \"#utility.yul\":12095:12153   */\n      mstore\n        /* \"#utility.yul\":12187:12195   */\n      0x6571756573740000000000000000000000000000000000000000000000000000\n        /* \"#utility.yul\":12182:12184   */\n      0x20\n        /* \"#utility.yul\":12174:12180   */\n      dup3\n        /* \"#utility.yul\":12170:12185   */\n      add\n        /* \"#utility.yul\":12163:12196   */\n      mstore\n        /* \"#utility.yul\":11978:12203   */\n      pop\n      jump\t// out\n        /* \"#utility.yul\":12209:12575   */\n    tag_245:\n        /* \"#utility.yul\":12351:12354   */\n      0x00\n        /* \"#utility.yul\":12372:12439   */\n      tag_372\n        /* \"#utility.yul\":12436:12438   */\n      0x26\n        /* \"#utility.yul\":12431:12434   */\n      dup4\n        /* \"#utility.yul\":12372:12439   */\n      tag_235\n      jump\t// in\n    tag_372:\n        /* \"#utility.yul\":12365:12439   */\n      swap2\n      pop\n        /* \"#utility.yul\":12448:12541   */\n      tag_373\n        /* \"#utility.yul\":12537:12540   */\n      dup3\n        /* \"#utility.yul\":12448:12541   */\n      tag_244\n      jump\t// in\n    tag_373:\n        /* \"#utility.yul\":12566:12568   */\n      0x40\n        /* \"#utility.yul\":12561:12564   */\n      dup3\n        /* \"#utility.yul\":12557:12569   */\n      add\n        /* \"#utility.yul\":12550:12569   */\n      swap1\n      pop\n        /* \"#utility.yul\":12209:12575   */\n      swap2\n      swap1\n      pop\n      jump\t// out\n        /* \"#utility.yul\":12581:13000   */\n    tag_80:\n        /* \"#utility.yul\":12747:12751   */\n      0x00\n        /* \"#utility.yul\":12785:12787   */\n      0x20\n        /* \"#utility.yul\":12774:12783   */\n      dup3\n        /* \"#utility.yul\":12770:12788   */\n      add\n        /* \"#utility.yul\":12762:12788   */\n      swap1\n      pop\n        /* \"#utility.yul\":12834:12843   */\n      dup2\n        /* \"#utility.yul\":12828:12832   */\n      dup2\n        /* \"#utility.yul\":12824:12844   */\n      sub\n        /* \"#utility.yul\":12820:12821   */\n      0x00\n        /* \"#utility.yul\":12809:12818   */\n      dup4\n        /* \"#utility.yul\":12805:12822   */\n      add\n        /* \"#utility.yul\":12798:12845   */\n      mstore\n        /* \"#utility.yul\":12862:12993   */\n      tag_375\n        /* \"#utility.yul\":12988:12992   */\n      dup2\n        /* \"#utility.yul\":12862:12993   */\n      tag_245\n      jump\t// in\n    tag_375:\n        /* \"#utility.yul\":12854:12993   */\n      swap1\n      pop\n        /* \"#utility.yul\":12581:13000   */\n      swap2\n      swap1\n      pop\n      jump\t// out\n        /* \"#utility.yul\":13006:13186   */\n    tag_246:\n        /* \"#utility.yul\":13054:13131   */\n      0x4e487b7100000000000000000000000000000000000000000000000000000000\n        /* \"#utility.yul\":13051:13052   */\n      0x00\n        /* \"#utility.yul\":13044:13132   */\n      mstore\n        /* \"#utility.yul\":13151:13155   */\n      0x11\n        /* \"#utility.yul\":13148:13149   */\n      0x04\n        /* \"#utility.yul\":13141:13156   */\n      mstore\n        /* \"#utility.yul\":13175:13179   */\n      0x24\n        /* \"#utility.yul\":13172:13173   */\n      0x00\n        /* \"#utility.yul\":13165:13180   */\n      revert\n        /* \"#utility.yul\":13192:13425   */\n    tag_83:\n        /* \"#utility.yul\":13231:13234   */\n      0x00\n        /* \"#utility.yul\":13254:13278   */\n      tag_378\n        /* \"#utility.yul\":13272:13277   */\n      dup3\n        /* \"#utility.yul\":13254:13278   */\n      tag_211\n      jump\t// in\n    tag_378:\n        /* \"#utility.yul\":13245:13278   */\n      swap2\n      pop\n        /* \"#utility.yul\":13300:13366   */\n      0xffffffffffffffffffffffffffffffffffffffffffffffffffffffffffffffff\n        /* \"#utility.yul\":13293:13298   */\n      dup3\n        /* \"#utility.yul\":13290:13367   */\n      sub\n        /* \"#utility.yul\":13287:13390   */\n      tag_379\n      jumpi\n        /* \"#utility.yul\":13370:13388   */\n      tag_380\n      tag_246\n      jump\t// in\n    tag_380:\n        /* \"#utility.yul\":13287:13390   */\n    tag_379:\n        /* \"#utility.yul\":13417:13418   */\n      0x01\n        /* \"#utility.yul\":13410:13415   */\n      dup3\n        /* \"#utility.yul\":13406:13419   */\n      add\n        /* \"#utility.yul\":13399:13419   */\n      swap1\n      pop\n        /* \"#utility.yul\":13192:13425   */\n      swap2\n      swap1\n      pop\n      jump\t// out\n        /* \"#utility.yul\":13431:13625   */\n    tag_85:\n        /* \"#utility.yul\":13471:13475   */\n      0x00\n        /* \"#utility.yul\":13491:13511   */\n      tag_382\n        /* \"#utility.yul\":13509:13510   */\n      dup3\n        /* \"#utility.yul\":13491:13511   */\n      tag_211\n      jump\t// in\n    tag_382:\n        /* \"#utility.yul\":13486:13511   */\n      swap2\n      pop\n        /* \"#utility.yul\":13525:13545   */\n      tag_383\n        /* \"#utility.yul\":13543:13544   */\n      dup4\n        /* \"#utility.yul\":13525:13545   */\n      tag_211\n      jump\t// in\n    tag_383:\n        /* \"#utility.yul\":13520:13545   */\n      swap3\n      pop\n        /* \"#utility.yul\":13569:13570   */\n      dup3\n        /* \"#utility.yul\":13566:13567   */\n      dup3\n        /* \"#utility.yul\":13562:13571   */\n      sub\n        /* \"#utility.yul\":13554:13571   */\n      swap1\n      pop\n        /* \"#utility.yul\":13593:13594   */\n      dup2\n        /* \"#utility.yul\":13587:13591   */\n      dup2\n        /* \"#utility.yul\":13584:13595   */\n      gt\n        /* \"#utility.yul\":13581:13618   */\n      iszero\n      tag_384\n      jumpi\n        /* \"#utility.yul\":13598:13616   */\n      tag_385\n      tag_246\n      jump\t// in\n    tag_385:\n        /* \"#utility.yul\":13581:13618   */\n    tag_384:\n        /* \"#utility.yul\":13431:13625   */\n      swap3\n      swap2\n      pop\n      pop\n      jump\t// out\n        /* \"#utility.yul\":13631:13812   */\n    tag_247:\n        /* \"#utility.yul\":13771:13804   */\n      0x796f7520646964206e6f74206372656174652074686973207265717565737400\n        /* \"#utility.yul\":13767:13768   */\n      0x00\n        /* \"#utility.yul\":13759:13765   */\n      dup3\n        /* \"#utility.yul\":13755:13769   */\n      add\n        /* \"#utility.yul\":13748:13805   */\n      mstore\n        /* \"#utility.yul\":13631:13812   */\n      pop\n      jump\t// out\n        /* \"#utility.yul\":13818:14184   */\n    tag_248:\n        /* \"#utility.yul\":13960:13963   */\n      0x00\n        /* \"#utility.yul\":13981:14048   */\n      tag_388\n        /* \"#utility.yul\":14045:14047   */\n      0x1f\n        /* \"#utility.yul\":14040:14043   */\n      dup4\n        /* \"#utility.yul\":13981:14048   */\n      tag_235\n      jump\t// in\n    tag_388:\n        /* \"#utility.yul\":13974:14048   */\n      swap2\n      pop\n        /* \"#utility.yul\":14057:14150   */\n      tag_389\n        /* \"#utility.yul\":14146:14149   */\n      dup3\n        /* \"#utility.yul\":14057:14150   */\n      tag_247\n      jump\t// in\n    tag_389:\n        /* \"#utility.yul\":14175:14177   */\n      0x20\n        /* \"#utility.yul\":14170:14173   */\n      dup3\n        /* \"#utility.yul\":14166:14178   */\n      add\n        /* \"#utility.yul\":14159:14178   */\n      swap1\n      pop\n        /* \"#utility.yul\":13818:14184   */\n      swap2\n      swap1\n      pop\n      jump\t// out\n        /* \"#utility.yul\":14190:14609   */\n    tag_91:\n        /* \"#utility.yul\":14356:14360   */\n      0x00\n        /* \"#utility.yul\":14394:14396   */\n      0x20\n        /* \"#utility.yul\":14383:14392   */\n      dup3\n        /* \"#utility.yul\":14379:14397   */\n      add\n        /* \"#utility.yul\":14371:14397   */\n      swap1\n      pop\n        /* \"#utility.yul\":14443:14452   */\n      dup2\n        /* \"#utility.yul\":14437:14441   */\n      dup2\n        /* \"#utility.yul\":14433:14453   */\n      sub\n        /* \"#utility.yul\":14429:14430   */\n      0x00\n        /* \"#utility.yul\":14418:14427   */\n      dup4\n        /* \"#utility.yul\":14414:14431   */\n      add\n        /* \"#utility.yul\":14407:14454   */\n      mstore\n        /* \"#utility.yul\":14471:14602   */\n      tag_391\n        /* \"#utility.yul\":14597:14601   */\n      dup2\n        /* \"#utility.yul\":14471:14602   */\n      tag_248\n      jump\t// in\n    tag_391:\n        /* \"#utility.yul\":14463:14602   */\n      swap1\n      pop\n        /* \"#utility.yul\":14190:14609   */\n      swap2\n      swap1\n      pop\n      jump\t// out\n        /* \"#utility.yul\":14615:14793   */\n    tag_249:\n        /* \"#utility.yul\":14755:14785   */\n      0x746869732072657175657374206973206e6f7420617070726f76656400000000\n        /* \"#utility.yul\":14751:14752   */\n      0x00\n        /* \"#utility.yul\":14743:14749   */\n      dup3\n        /* \"#utility.yul\":14739:14753   */\n      add\n        /* \"#utility.yul\":14732:14786   */\n      mstore\n        /* \"#utility.yul\":14615:14793   */\n      pop\n      jump\t// out\n        /* \"#utility.yul\":14799:15165   */\n    tag_250:\n        /* \"#utility.yul\":14941:14944   */\n      0x00\n        /* \"#utility.yul\":14962:15029   */\n      tag_394\n        /* \"#utility.yul\":15026:15028   */\n      0x1c\n        /* \"#utility.yul\":15021:15024   */\n      dup4\n        /* \"#utility.yul\":14962:15029   */\n      tag_235\n      jump\t// in\n    tag_394:\n        /* \"#utility.yul\":14955:15029   */\n      swap2\n      pop\n        /* \"#utility.yul\":15038:15131   */\n      tag_395\n        /* \"#utility.yul\":15127:15130   */\n      dup3\n        /* \"#utility.yul\":15038:15131   */\n      tag_249\n      jump\t// in\n    tag_395:\n        /* \"#utility.yul\":15156:15158   */\n      0x20\n        /* \"#utility.yul\":15151:15154   */\n      dup3\n        /* \"#utility.yul\":15147:15159   */\n      add\n        /* \"#utility.yul\":15140:15159   */\n      swap1\n      pop\n        /* \"#utility.yul\":14799:15165   */\n      swap2\n      swap1\n      pop\n      jump\t// out\n        /* \"#utility.yul\":15171:15590   */\n    tag_94:\n        /* \"#utility.yul\":15337:15341   */\n      0x00\n        /* \"#utility.yul\":15375:15377   */\n      0x20\n        /* \"#utility.yul\":15364:15373   */\n      dup3\n        /* \"#utility.yul\":15360:15378   */\n      add\n        /* \"#utility.yul\":15352:15378   */\n      swap1\n      pop\n        /* \"#utility.yul\":15424:15433   */\n      dup2\n        /* \"#utility.yul\":15418:15422   */\n      dup2\n        /* \"#utility.yul\":15414:15434   */\n      sub\n        /* \"#utility.yul\":15410:15411   */\n      0x00\n        /* \"#utility.yul\":15399:15408   */\n      dup4\n        /* \"#utility.yul\":15395:15412   */\n      add\n        /* \"#utility.yul\":15388:15435   */\n      mstore\n        /* \"#utility.yul\":15452:15583   */\n      tag_397\n        /* \"#utility.yul\":15578:15582   */\n      dup2\n        /* \"#utility.yul\":15452:15583   */\n      tag_250\n      jump\t// in\n    tag_397:\n        /* \"#utility.yul\":15444:15583   */\n      swap1\n      pop\n        /* \"#utility.yul\":15171:15590   */\n      swap2\n      swap1\n      pop\n      jump\t// out\n        /* \"#utility.yul\":15596:15766   */\n    tag_251:\n        /* \"#utility.yul\":15736:15758   */\n      0x696e73756666696369656e742062616c616e6365000000000000000000000000\n        /* \"#utility.yul\":15732:15733   */\n      0x00\n        /* \"#utility.yul\":15724:15730   */\n      dup3\n        /* \"#utility.yul\":15720:15734   */\n      add\n        /* \"#utility.yul\":15713:15759   */\n      mstore\n        /* \"#utility.yul\":15596:15766   */\n      pop\n      jump\t// out\n        /* \"#utility.yul\":15772:16138   */\n    tag_252:\n        /* \"#utility.yul\":15914:15917   */\n      0x00\n        /* \"#utility.yul\":15935:16002   */\n      tag_400\n        /* \"#utility.yul\":15999:16001   */\n      0x14\n        /* \"#utility.yul\":15994:15997   */\n      dup4\n        /* \"#utility.yul\":15935:16002   */\n      tag_235\n      jump\t// in\n    tag_400:\n        /* \"#utility.yul\":15928:16002   */\n      swap2\n      pop\n        /* \"#utility.yul\":16011:16104   */\n      tag_401\n        /* \"#utility.yul\":16100:16103   */\n      dup3\n        /* \"#utility.yul\":16011:16104   */\n      tag_251\n      jump\t// in\n    tag_401:\n        /* \"#utility.yul\":16129:16131   */\n      0x20\n        /* \"#utility.yul\":16124:16127   */\n      dup3\n        /* \"#utility.yul\":16120:16132   */\n      add\n        /* \"#utility.yul\":16113:16132   */\n      swap1\n      pop\n        /* \"#utility.yul\":15772:16138   */\n      swap2\n      swap1\n      pop\n      jump\t// out\n        /* \"#utility.yul\":16144:16563   */\n    tag_98:\n        /* \"#utility.yul\":16310:16314   */\n      0x00\n        /* \"#utility.yul\":16348:16350   */\n      0x20\n        /* \"#utility.yul\":16337:16346   */\n      dup3\n        /* \"#utility.yul\":16333:16351   */\n      add\n        /* \"#utility.yul\":16325:16351   */\n      swap1\n      pop\n        /* \"#utility.yul\":16397:16406   */\n      dup2\n        /* \"#utility.yul\":16391:16395   */\n      dup2\n        /* \"#utility.yul\":16387:16407   */\n      sub\n        /* \"#utility.yul\":16383:16384   */\n      0x00\n        /* \"#utility.yul\":16372:16381   */\n      dup4\n        /* \"#utility.yul\":16368:16385   */\n      add\n        /* \"#utility.yul\":16361:16408   */\n      mstore\n        /* \"#utility.yul\":16425:16556   */\n      tag_403\n        /* \"#utility.yul\":16551:16555   */\n      dup2\n        /* \"#utility.yul\":16425:16556   */\n      tag_252\n      jump\t// in\n    tag_403:\n        /* \"#utility.yul\":16417:16556   */\n      swap1\n      pop\n        /* \"#utility.yul\":16144:16563   */\n      swap2\n      swap1\n      pop\n      jump\t// out\n        /* \"#utility.yul\":16569:16716   */\n    tag_253:\n        /* \"#utility.yul\":16670:16681   */\n      0x00\n        /* \"#utility.yul\":16707:16710   */\n      dup2\n        /* \"#utility.yul\":16692:16710   */\n      swap1\n      pop\n        /* \"#utility.yul\":16569:16716   */\n      swap3\n      swap2\n      pop\n      pop\n      jump\t// out\n        /* \"#utility.yul\":16722:16836   */\n    tag_254:\n      pop\n      jump\t// out\n        /* \"#utility.yul\":16842:17240   */\n    tag_255:\n        /* \"#utility.yul\":17001:17004   */\n      0x00\n        /* \"#utility.yul\":17022:17105   */\n      tag_407\n        /* \"#utility.yul\":17103:17104   */\n      0x00\n        /* \"#utility.yul\":17098:17101   */\n      dup4\n        /* \"#utility.yul\":17022:17105   */\n      tag_253\n      jump\t// in\n    tag_407:\n        /* \"#utility.yul\":17015:17105   */\n      swap2\n      pop\n        /* \"#utility.yul\":17114:17207   */\n      tag_408\n        /* \"#utility.yul\":17203:17206   */\n      dup3\n        /* \"#utility.yul\":17114:17207   */\n      tag_254\n      jump\t// in\n    tag_408:\n        /* \"#utility.yul\":17232:17233   */\n      0x00\n        /* \"#utility.yul\":17227:17230   */\n      dup3\n        /* \"#utility.yul\":17223:17234   */\n      add\n        /* \"#utility.yul\":17216:17234   */\n      swap1\n      pop\n        /* \"#utility.yul\":16842:17240   */\n      swap2\n      swap1\n      pop\n      jump\t// out\n        /* \"#utility.yul\":17246:17625   */\n    tag_101:\n        /* \"#utility.yul\":17430:17433   */\n      0x00\n        /* \"#utility.yul\":17452:17599   */\n      tag_410\n        /* \"#utility.yul\":17595:17598   */\n      dup3\n        /* \"#utility.yul\":17452:17599   */\n      tag_255\n      jump\t// in\n    tag_410:\n        /* \"#utility.yul\":17445:17599   */\n      swap2\n      pop\n        /* \"#utility.yul\":17616:17619   */\n      dup2\n        /* \"#utility.yul\":17609:17619   */\n      swap1\n      pop\n        /* \"#utility.yul\":17246:17625   */\n      swap2\n      swap1\n      pop\n      jump\t// out\n        /* \"#utility.yul\":17631:17963   */\n    tag_127:\n        /* \"#utility.yul\":17752:17756   */\n      0x00\n        /* \"#utility.yul\":17790:17792   */\n      0x40\n        /* \"#utility.yul\":17779:17788   */\n      dup3\n        /* \"#utility.yul\":17775:17793   */\n      add\n        /* \"#utility.yul\":17767:17793   */\n      swap1\n      pop\n        /* \"#utility.yul\":17803:17874   */\n      tag_412\n        /* \"#utility.yul\":17871:17872   */\n      0x00\n        /* \"#utility.yul\":17860:17869   */\n      dup4\n        /* \"#utility.yul\":17856:17873   */\n      add\n        /* \"#utility.yul\":17847:17853   */\n      dup6\n        /* \"#utility.yul\":17803:17874   */\n      tag_214\n      jump\t// in\n    tag_412:\n        /* \"#utility.yul\":17884:17956   */\n      tag_413\n        /* \"#utility.yul\":17952:17954   */\n      0x20\n        /* \"#utility.yul\":17941:17950   */\n      dup4\n        /* \"#utility.yul\":17937:17955   */\n      add\n        /* \"#utility.yul\":17928:17934   */\n      dup5\n        /* \"#utility.yul\":17884:17956   */\n      tag_214\n      jump\t// in\n    tag_413:\n        /* \"#utility.yul\":17631:17963   */\n      swap4\n      swap3\n      pop\n      pop\n      pop\n      jump\t// out\n        /* \"#utility.yul\":17969:18160   */\n    tag_140:\n        /* \"#utility.yul\":18009:18012   */\n      0x00\n        /* \"#utility.yul\":18028:18048   */\n      tag_415\n        /* \"#utility.yul\":18046:18047   */\n      dup3\n        /* \"#utility.yul\":18028:18048   */\n      tag_211\n      jump\t// in\n    tag_415:\n        /* \"#utility.yul\":18023:18048   */\n      swap2\n      pop\n        /* \"#utility.yul\":18062:18082   */\n      tag_416\n        /* \"#utility.yul\":18080:18081   */\n      dup4\n        /* \"#utility.yul\":18062:18082   */\n      tag_211\n      jump\t// in\n    tag_416:\n        /* \"#utility.yul\":18057:18082   */\n      swap3\n      pop\n        /* \"#utility.yul\":18105:18106   */\n      dup3\n        /* \"#utility.yul\":18102:18103   */\n      dup3\n        /* \"#utility.yul\":18098:18107   */\n      add\n        /* \"#utility.yul\":18091:18107   */\n      swap1\n      pop\n        /* \"#utility.yul\":18126:18129   */\n      dup1\n        /* \"#utility.yul\":18123:18124   */\n      dup3\n        /* \"#utility.yul\":18120:18130   */\n      gt\n        /* \"#utility.yul\":18117:18153   */\n      iszero\n      tag_417\n      jumpi\n        /* \"#utility.yul\":18133:18151   */\n      tag_418\n      tag_246\n      jump\t// in\n    tag_418:\n        /* \"#utility.yul\":18117:18153   */\n    tag_417:\n        /* \"#utility.yul\":17969:18160   */\n      swap3\n      swap2\n      pop\n      pop\n      jump\t// out\n        /* \"#utility.yul\":18166:18347   */\n    tag_256:\n        /* \"#utility.yul\":18306:18339   */\n      0x6d6178696d756d206f662034206f776e65727320706572206163636f756e7400\n        /* \"#utility.yul\":18302:18303   */\n      0x00\n        /* \"#utility.yul\":18294:18300   */\n      dup3\n        /* \"#utility.yul\":18290:18304   */\n      add\n        /* \"#utility.yul\":18283:18340   */\n      mstore\n        /* \"#utility.yul\":18166:18347   */\n      pop\n      jump\t// out\n        /* \"#utility.yul\":18353:18719   */\n    tag_257:\n        /* \"#utility.yul\":18495:18498   */\n      0x00\n        /* \"#utility.yul\":18516:18583   */\n      tag_421\n        /* \"#utility.yul\":18580:18582   */\n      0x1f\n        /* \"#utility.yul\":18575:18578   */\n      dup4\n        /* \"#utility.yul\":18516:18583   */\n      tag_235\n      jump\t// in\n    tag_421:\n        /* \"#utility.yul\":18509:18583   */\n      swap2\n      pop\n        /* \"#utility.yul\":18592:18685   */\n      tag_422\n        /* \"#utility.yul\":18681:18684   */\n      dup3\n        /* \"#utility.yul\":18592:18685   */\n      tag_256\n      jump\t// in\n    tag_422:\n        /* \"#utility.yul\":18710:18712   */\n      0x20\n        /* \"#utility.yul\":18705:18708   */\n      dup3\n        /* \"#utility.yul\":18701:18713   */\n      add\n        /* \"#utility.yul\":18694:18713   */\n      swap1\n      pop\n        /* \"#utility.yul\":18353:18719   */\n      swap2\n      swap1\n      pop\n      jump\t// out\n        /* \"#utility.yul\":18725:19144   */\n    tag_148:\n        /* \"#utility.yul\":18891:18895   */\n      0x00\n        /* \"#utility.yul\":18929:18931   */\n      0x20\n        /* \"#utility.yul\":18918:18927   */\n      dup3\n        /* \"#utility.yul\":18914:18932   */\n      add\n        /* \"#utility.yul\":18906:18932   */\n      swap1\n      pop\n        /* \"#utility.yul\":18978:18987   */\n      dup2\n        /* \"#utility.yul\":18972:18976   */\n      dup2\n        /* \"#utility.yul\":18968:18988   */\n      sub\n        /* \"#utility.yul\":18964:18965   */\n      0x00\n        /* \"#utility.yul\":18953:18962   */\n      dup4\n        /* \"#utility.yul\":18949:18966   */\n      add\n        /* \"#utility.yul\":18942:18989   */\n      mstore\n        /* \"#utility.yul\":19006:19137   */\n      tag_424\n        /* \"#utility.yul\":19132:19136   */\n      dup2\n        /* \"#utility.yul\":19006:19137   */\n      tag_257\n      jump\t// in\n    tag_424:\n        /* \"#utility.yul\":18998:19137   */\n      swap1\n      pop\n        /* \"#utility.yul\":18725:19144   */\n      swap2\n      swap1\n      pop\n      jump\t// out\n        /* \"#utility.yul\":19150:19272   */\n    tag_258:\n        /* \"#utility.yul\":19223:19247   */\n      tag_426\n        /* \"#utility.yul\":19241:19246   */\n      dup2\n        /* \"#utility.yul\":19223:19247   */\n      tag_226\n      jump\t// in\n    tag_426:\n        /* \"#utility.yul\":19216:19221   */\n      dup2\n        /* \"#utility.yul\":19213:19248   */\n      eq\n        /* \"#utility.yul\":19203:19266   */\n      tag_427\n      jumpi\n        /* \"#utility.yul\":19262:19263   */\n      0x00\n        /* \"#utility.yul\":19259:19260   */\n      dup1\n        /* \"#utility.yul\":19252:19264   */\n      revert\n        /* \"#utility.yul\":19203:19266   */\n    tag_427:\n        /* \"#utility.yul\":19150:19272   */\n      pop\n      jump\t// out\n        /* \"#utility.yul\":19278:19417   */\n    tag_259:\n        /* \"#utility.yul\":19324:19329   */\n      0x00\n        /* \"#utility.yul\":19362:19368   */\n      dup2\n        /* \"#utility.yul\":19349:19369   */\n      calldataload\n        /* \"#utility.yul\":19340:19369   */\n      swap1\n      pop\n        /* \"#utility.yul\":19378:19411   */\n      tag_429\n        /* \"#utility.yul\":19405:19410   */\n      dup2\n        /* \"#utility.yul\":19378:19411   */\n      tag_258\n      jump\t// in\n    tag_429:\n        /* \"#utility.yul\":19278:19417   */\n      swap3\n      swap2\n      pop\n      pop\n      jump\t// out\n        /* \"#utility.yul\":19423:19752   */\n    tag_155:\n        /* \"#utility.yul\":19482:19488   */\n      0x00\n        /* \"#utility.yul\":19531:19533   */\n      0x20\n        /* \"#utility.yul\":19519:19528   */\n      dup3\n        /* \"#utility.yul\":19510:19517   */\n      dup5\n        /* \"#utility.yul\":19506:19529   */\n      sub\n        /* \"#utility.yul\":19502:19534   */\n      slt\n        /* \"#utility.yul\":19499:19618   */\n      iszero\n      tag_431\n      jumpi\n        /* \"#utility.yul\":19537:19616   */\n      tag_432\n      tag_209\n      jump\t// in\n    tag_432:\n        /* \"#utility.yul\":19499:19618   */\n    tag_431:\n        /* \"#utility.yul\":19657:19658   */\n      0x00\n        /* \"#utility.yul\":19682:19735   */\n      tag_433\n        /* \"#utility.yul\":19727:19734   */\n      dup5\n        /* \"#utility.yul\":19718:19724   */\n      dup3\n        /* \"#utility.yul\":19707:19716   */\n      dup6\n        /* \"#utility.yul\":19703:19725   */\n      add\n        /* \"#utility.yul\":19682:19735   */\n      tag_259\n      jump\t// in\n    tag_433:\n        /* \"#utility.yul\":19672:19735   */\n      swap2\n      pop\n        /* \"#utility.yul\":19628:19745   */\n      pop\n        /* \"#utility.yul\":19423:19752   */\n      swap3\n      swap2\n      pop\n      pop\n      jump\t// out\n        /* \"#utility.yul\":19758:19927   */\n    tag_260:\n        /* \"#utility.yul\":19898:19919   */\n      0x6e6f206475706c6963617465206f776e65727300000000000000000000000000\n        /* \"#utility.yul\":19894:19895   */\n      0x00\n        /* \"#utility.yul\":19886:19892   */\n      dup3\n        /* \"#utility.yul\":19882:19896   */\n      add\n        /* \"#utility.yul\":19875:19920   */\n      mstore\n        /* \"#utility.yul\":19758:19927   */\n      pop\n      jump\t// out\n        /* \"#utility.yul\":19933:20299   */\n    tag_261:\n        /* \"#utility.yul\":20075:20078   */\n      0x00\n        /* \"#utility.yul\":20096:20163   */\n      tag_436\n        /* \"#utility.yul\":20160:20162   */\n      0x13\n        /* \"#utility.yul\":20155:20158   */\n      dup4\n        /* \"#utility.yul\":20096:20163   */\n      tag_235\n      jump\t// in\n    tag_436:\n        /* \"#utility.yul\":20089:20163   */\n      swap2\n      pop\n        /* \"#utility.yul\":20172:20265   */\n      tag_437\n        /* \"#utility.yul\":20261:20264   */\n      dup3\n        /* \"#utility.yul\":20172:20265   */\n      tag_260\n      jump\t// in\n    tag_437:\n        /* \"#utility.yul\":20290:20292   */\n      0x20\n        /* \"#utility.yul\":20285:20288   */\n      dup3\n        /* \"#utility.yul\":20281:20293   */\n      add\n        /* \"#utility.yul\":20274:20293   */\n      swap1\n      pop\n        /* \"#utility.yul\":19933:20299   */\n      swap2\n      swap1\n      pop\n      jump\t// out\n        /* \"#utility.yul\":20305:20724   */\n    tag_158:\n        /* \"#utility.yul\":20471:20475   */\n      0x00\n        /* \"#utility.yul\":20509:20511   */\n      0x20\n        /* \"#utility.yul\":20498:20507   */\n      dup3\n        /* \"#utility.yul\":20494:20512   */\n      add\n        /* \"#utility.yul\":20486:20512   */\n      swap1\n      pop\n        /* \"#utility.yul\":20558:20567   */\n      dup2\n        /* \"#utility.yul\":20552:20556   */\n      dup2\n        /* \"#utility.yul\":20548:20568   */\n      sub\n        /* \"#utility.yul\":20544:20545   */\n      0x00\n        /* \"#utility.yul\":20533:20542   */\n      dup4\n        /* \"#utility.yul\":20529:20546   */\n      add\n        /* \"#utility.yul\":20522:20569   */\n      mstore\n        /* \"#utility.yul\":20586:20717   */\n      tag_439\n        /* \"#utility.yul\":20712:20716   */\n      dup2\n        /* \"#utility.yul\":20586:20717   */\n      tag_261\n      jump\t// in\n    tag_439:\n        /* \"#utility.yul\":20578:20717   */\n      swap1\n      pop\n        /* \"#utility.yul\":20305:20724   */\n      swap2\n      swap1\n      pop\n      jump\t// out\n        /* \"#utility.yul\":20730:20910   */\n    tag_174:\n        /* \"#utility.yul\":20778:20855   */\n      0x4e487b7100000000000000000000000000000000000000000000000000000000\n        /* \"#utility.yul\":20775:20776   */\n      0x00\n        /* \"#utility.yul\":20768:20856   */\n      mstore\n        /* \"#utility.yul\":20875:20879   */\n      0x41\n        /* \"#utility.yul\":20872:20873   */\n      0x04\n        /* \"#utility.yul\":20865:20880   */\n      mstore\n        /* \"#utility.yul\":20899:20903   */\n      0x24\n        /* \"#utility.yul\":20896:20897   */\n      0x00\n        /* \"#utility.yul\":20889:20904   */\n      revert\n        /* \"#utility.yul\":20916:21141   */\n    tag_262:\n        /* \"#utility.yul\":21056:21090   */\n      0x6561636820757365722063616e20686176652061206d6178206f662033206163\n        /* \"#utility.yul\":21052:21053   */\n      0x00\n        /* \"#utility.yul\":21044:21050   */\n      dup3\n        /* \"#utility.yul\":21040:21054   */\n      add\n        /* \"#utility.yul\":21033:21091   */\n      mstore\n        /* \"#utility.yul\":21125:21133   */\n      0x636f756e74730000000000000000000000000000000000000000000000000000\n        /* \"#utility.yul\":21120:21122   */\n      0x20\n        /* \"#utility.yul\":21112:21118   */\n      dup3\n        /* \"#utility.yul\":21108:21123   */\n      add\n        /* \"#utility.yul\":21101:21134   */\n      mstore\n        /* \"#utility.yul\":20916:21141   */\n      pop\n      jump\t// out\n        /* \"#utility.yul\":21147:21513   */\n    tag_263:\n        /* \"#utility.yul\":21289:21292   */\n      0x00\n        /* \"#utility.yul\":21310:21377   */\n      tag_443\n        /* \"#utility.yul\":21374:21376   */\n      0x26\n        /* \"#utility.yul\":21369:21372   */\n      dup4\n        /* \"#utility.yul\":21310:21377   */\n      tag_235\n      jump\t// in\n    tag_443:\n        /* \"#utility.yul\":21303:21377   */\n      swap2\n      pop\n        /* \"#utility.yul\":21386:21479   */\n      tag_444\n        /* \"#utility.yul\":21475:21478   */\n      dup3\n        /* \"#utility.yul\":21386:21479   */\n      tag_262\n      jump\t// in\n    tag_444:\n        /* \"#utility.yul\":21504:21506   */\n      0x40\n        /* \"#utility.yul\":21499:21502   */\n      dup3\n        /* \"#utility.yul\":21495:21507   */\n      add\n        /* \"#utility.yul\":21488:21507   */\n      swap1\n      pop\n        /* \"#utility.yul\":21147:21513   */\n      swap2\n      swap1\n      pop\n      jump\t// out\n        /* \"#utility.yul\":21519:21938   */\n    tag_192:\n        /* \"#utility.yul\":21685:21689   */\n      0x00\n        /* \"#utility.yul\":21723:21725   */\n      0x20\n        /* \"#utility.yul\":21712:21721   */\n      dup3\n        /* \"#utility.yul\":21708:21726   */\n      add\n        /* \"#utility.yul\":21700:21726   */\n      swap1\n      pop\n        /* \"#utility.yul\":21772:21781   */\n      dup2\n        /* \"#utility.yul\":21766:21770   */\n      dup2\n        /* \"#utility.yul\":21762:21782   */\n      sub\n        /* \"#utility.yul\":21758:21759   */\n      0x00\n        /* \"#utility.yul\":21747:21756   */\n      dup4\n        /* \"#utility.yul\":21743:21760   */\n      add\n        /* \"#utility.yul\":21736:21783   */\n      mstore\n        /* \"#utility.yul\":21800:21931   */\n      tag_446\n        /* \"#utility.yul\":21926:21930   */\n      dup2\n        /* \"#utility.yul\":21800:21931   */\n      tag_263\n      jump\t// in\n    tag_446:\n        /* \"#utility.yul\":21792:21931   */\n      swap1\n      pop\n        /* \"#utility.yul\":21519:21938   */\n      swap2\n      swap1\n      pop\n      jump\t// out\n        /* \"#utility.yul\":21944:22427   */\n    tag_200:\n        /* \"#utility.yul\":22115:22119   */\n      0x00\n        /* \"#utility.yul\":22153:22155   */\n      0x40\n        /* \"#utility.yul\":22142:22151   */\n      dup3\n        /* \"#utility.yul\":22138:22156   */\n      add\n        /* \"#utility.yul\":22130:22156   */\n      swap1\n      pop\n        /* \"#utility.yul\":22202:22211   */\n      dup2\n        /* \"#utility.yul\":22196:22200   */\n      dup2\n        /* \"#utility.yul\":22192:22212   */\n      sub\n        /* \"#utility.yul\":22188:22189   */\n      0x00\n        /* \"#utility.yul\":22177:22186   */\n      dup4\n        /* \"#utility.yul\":22173:22190   */\n      add\n        /* \"#utility.yul\":22166:22213   */\n      mstore\n        /* \"#utility.yul\":22230:22338   */\n      tag_448\n        /* \"#utility.yul\":22333:22337   */\n      dup2\n        /* \"#utility.yul\":22324:22330   */\n      dup6\n        /* \"#utility.yul\":22230:22338   */\n      tag_230\n      jump\t// in\n    tag_448:\n        /* \"#utility.yul\":22222:22338   */\n      swap1\n      pop\n        /* \"#utility.yul\":22348:22420   */\n      tag_449\n        /* \"#utility.yul\":22416:22418   */\n      0x20\n        /* \"#utility.yul\":22405:22414   */\n      dup4\n        /* \"#utility.yul\":22401:22419   */\n      add\n        /* \"#utility.yul\":22392:22398   */\n      dup5\n        /* \"#utility.yul\":22348:22420   */\n      tag_214\n      jump\t// in\n    tag_449:\n        /* \"#utility.yul\":21944:22427   */\n      swap4\n      swap3\n      pop\n      pop\n      pop\n      jump\t// out\n\n    auxdata: 0xa26469706673582212200c7eefa72eddbfa16be1ed293442b92d32d4734cde4ffccf558faacbaf018ec164736f6c634300081a0033\n}\n",
				"bytecode": {
					"linkReferences": {},
					"object": "6080604052348015600e575f80fd5b50611e538061001c5f395ff3fe608060405260043610610085575f3560e01c80638a48ac03116100585780638a48ac0314610151578063ae2ebd7f1461017b578063b6b55f25146101a3578063ee4525d5146101bf578063eff63433146101fb57610085565b80631a0bd42b146100895780631e010439146100b1578063441a3e70146100ed578063867275a514610115575b5f80fd5b348015610094575f80fd5b506100af60048036038101906100aa91906113e9565b610223565b005b3480156100bc575f80fd5b506100d760048036038101906100d29190611427565b610683565b6040516100e49190611461565b60405180910390f35b3480156100f8575f80fd5b50610113600480360381019061010e91906113e9565b61069f565b005b348015610120575f80fd5b5061013b600480360381019061013691906113e9565b610987565b6040516101489190611461565b60405180910390f35b34801561015c575f80fd5b506101656109b6565b6040516101729190611531565b60405180910390f35b348015610186575f80fd5b506101a1600480360381019061019c91906113e9565b610a47565b005b6101bd60048036038101906101b89190611427565b610c7d565b005b3480156101ca575f80fd5b506101e560048036038101906101e09190611427565b610da1565b6040516101f29190611638565b60405180910390f35b348015610206575f80fd5b50610221600480360381019061021c91906116b9565b610e3e565b005b815f805b5f808481526020019081526020015f205f01805490508110156102d8573373ffffffffffffffffffffffffffffffffffffffff165f808581526020019081526020015f205f01828154811061027f5761027e611704565b5b905f5260205f20015f9054906101000a900473ffffffffffffffffffffffffffffffffffffffff1673ffffffffffffffffffffffffffffffffffffffff16036102cb57600191506102d8565b8080600101915050610227565b5080610319576040517f08c379a0000000000000000000000000000000000000000000000000000000008152600401610310906117b1565b60405180910390fd5b83835f808381526020019081526020015f206002015f8281526020019081526020015f206004015f9054906101000a900460ff161561038d576040517f08c379a000000000000000000000000000000000000000000000000000000000815260040161038490611819565b60405180910390fd5b3373ffffffffffffffffffffffffffffffffffffffff165f808481526020019081526020015f206002015f8381526020019081526020015f205f015f9054906101000a900473ffffffffffffffffffffffffffffffffffffffff1673ffffffffffffffffffffffffffffffffffffffff160361043e576040517f08c379a000000000000000000000000000000000000000000000000000000000815260040161043590611881565b60405180910390fd5b5f73ffffffffffffffffffffffffffffffffffffffff165f808481526020019081526020015f206002015f8381526020019081526020015f205f015f9054906101000a900473ffffffffffffffffffffffffffffffffffffffff1673ffffffffffffffffffffffffffffffffffffffff16036104ef576040517f08c379a00000000000000000000000000000000000000000000000000000000081526004016104e6906118e9565b60405180910390fd5b5f808381526020019081526020015f206002015f8281526020019081526020015f206003015f3373ffffffffffffffffffffffffffffffffffffffff1673ffffffffffffffffffffffffffffffffffffffff1681526020019081526020015f205f9054906101000a900460ff161561059c576040517f08c379a000000000000000000000000000000000000000000000000000000000815260040161059390611977565b60405180910390fd5b5f805f8881526020019081526020015f206002015f8781526020019081526020015f209050806002015f8154809291906105d5906119c2565b91905055506001816003015f3373ffffffffffffffffffffffffffffffffffffffff1673ffffffffffffffffffffffffffffffffffffffff1681526020019081526020015f205f6101000a81548160ff02191690831515021790555060015f808981526020019081526020015f205f01805490506106539190611a09565b81600201540361067a576001816004015f6101000a81548160ff0219169083151502179055505b50505050505050565b5f805f8381526020019081526020015f20600101549050919050565b81813373ffffffffffffffffffffffffffffffffffffffff165f808481526020019081526020015f206002015f8381526020019081526020015f205f015f9054906101000a900473ffffffffffffffffffffffffffffffffffffffff1673ffffffffffffffffffffffffffffffffffffffff1614610752576040517f08c379a000000000000000000000000000000000000000000000000000000000815260040161074990611a86565b60405180910390fd5b5f808381526020019081526020015f206002015f8281526020019081526020015f206004015f9054906101000a900460ff166107c3576040517f08c379a00000000000000000000000000000000000000000000000000000000081526004016107ba90611aee565b60405180910390fd5b5f805f8681526020019081526020015f206002015f8581526020019081526020015f20600101549050805f808781526020019081526020015f20600101541015610842576040517f08c379a000000000000000000000000000000000000000000000000000000000815260040161083990611b56565b60405180910390fd5b805f808781526020019081526020015f206001015f8282546108649190611a09565b925050819055505f808681526020019081526020015f206002015f8581526020019081526020015f205f8082015f6101000a81549073ffffffffffffffffffffffffffffffffffffffff0219169055600182015f9055600282015f9055600482015f6101000a81549060ff021916905550505f3373ffffffffffffffffffffffffffffffffffffffff16826040516108fb90611ba1565b5f6040518083038185875af1925050503d805f8114610935576040519150601f19603f3d011682016040523d82523d5f602084013e61093a565b606091505b5050905080610947575f80fd5b847f56ca301a9219608c91e7bcee90e083c19671d2cdcc96752c7af291cee5f9c8c8426040516109779190611461565b60405180910390a2505050505050565b5f805f8481526020019081526020015f206002015f8381526020019081526020015f2060020154905092915050565b606060015f3373ffffffffffffffffffffffffffffffffffffffff1673ffffffffffffffffffffffffffffffffffffffff1681526020019081526020015f20805480602002602001604051908101604052809291908181526020018280548015610a3d57602002820191905f5260205f20905b815481526020019060010190808311610a29575b5050505050905090565b815f805b5f808481526020019081526020015f205f0180549050811015610afc573373ffffffffffffffffffffffffffffffffffffffff165f808581526020019081526020015f205f018281548110610aa357610aa2611704565b5b905f5260205f20015f9054906101000a900473ffffffffffffffffffffffffffffffffffffffff1673ffffffffffffffffffffffffffffffffffffffff1603610aef5760019150610afc565b8080600101915050610a4b565b5080610b3d576040517f08c379a0000000000000000000000000000000000000000000000000000000008152600401610b34906117b1565b60405180910390fd5b8383805f808481526020019081526020015f20600101541015610b95576040517f08c379a0000000000000000000000000000000000000000000000000000000008152600401610b8c90611b56565b60405180910390fd5b5f60035490505f805f8981526020019081526020015f206002015f8381526020019081526020015f20905033815f015f6101000a81548173ffffffffffffffffffffffffffffffffffffffff021916908373ffffffffffffffffffffffffffffffffffffffff16021790555086816001018190555060035f815480929190610c1c906119c2565b919050555081883373ffffffffffffffffffffffffffffffffffffffff167f1f0d204a59639d21245dbaa239dfc9a6227aa86cb614bdda19843c52d155fcfa8a42604051610c6b929190611bb5565b60405180910390a45050505050505050565b805f805b5f808481526020019081526020015f205f0180549050811015610d32573373ffffffffffffffffffffffffffffffffffffffff165f808581526020019081526020015f205f018281548110610cd957610cd8611704565b5b905f5260205f20015f9054906101000a900473ffffffffffffffffffffffffffffffffffffffff1673ffffffffffffffffffffffffffffffffffffffff1603610d255760019150610d32565b8080600101915050610c81565b5080610d73576040517f08c379a0000000000000000000000000000000000000000000000000000000008152600401610d6a906117b1565b60405180910390fd5b345f808581526020019081526020015f206001015f828254610d959190611bdc565b92505081905550505050565b60605f808381526020019081526020015f205f01805480602002602001604051908101604052809291908181526020018280548015610e3257602002820191905f5260205f20905b815f9054906101000a900473ffffffffffffffffffffffffffffffffffffffff1673ffffffffffffffffffffffffffffffffffffffff1681526020019060010190808311610de9575b50505050509050919050565b81816004600183839050610e529190611bdc565b1115610e93576040517f08c379a0000000000000000000000000000000000000000000000000000000008152600401610e8a90611c59565b60405180910390fd5b5f5b8282905081101561101c573373ffffffffffffffffffffffffffffffffffffffff16838383818110610eca57610ec9611704565b5b9050602002016020810190610edf9190611ca1565b73ffffffffffffffffffffffffffffffffffffffff1603610f35576040517f08c379a0000000000000000000000000000000000000000000000000000000008152600401610f2c90611d16565b60405180910390fd5b5f8190505b8383905081101561100e57838382818110610f5857610f57611704565b5b9050602002016020810190610f6d9190611ca1565b73ffffffffffffffffffffffffffffffffffffffff16848484818110610f9657610f95611704565b5b9050602002016020810190610fab9190611ca1565b73ffffffffffffffffffffffffffffffffffffffff1603611001576040517f08c379a0000000000000000000000000000000000000000000000000000000008152600401610ff890611d16565b60405180910390fd5b8080600101915050610f3a565b508080600101915050610e95565b505f60018585905061102e9190611bdc565b67ffffffffffffffff81111561104757611046611d34565b5b6040519080825280602002602001820160405280156110755781602001602082028036833780820191505090505b5090503381868690508151811061108f5761108e611704565b5b602002602001019073ffffffffffffffffffffffffffffffffffffffff16908173ffffffffffffffffffffffffffffffffffffffff16815250505f60025490505f5b825181101561128b57600183516110e89190611a09565b8110156111655786868281811061110257611101611704565b5b90506020020160208101906111179190611ca1565b83828151811061112a57611129611704565b5b602002602001019073ffffffffffffffffffffffffffffffffffffffff16908173ffffffffffffffffffffffffffffffffffffffff16815250505b600260015f85848151811061117d5761117c611704565b5b602002602001015173ffffffffffffffffffffffffffffffffffffffff1673ffffffffffffffffffffffffffffffffffffffff1681526020019081526020015f20805490501115611203576040517f08c379a00000000000000000000000000000000000000000000000000000000081526004016111fa90611dd1565b60405180910390fd5b60015f84838151811061121957611218611704565b5b602002602001015173ffffffffffffffffffffffffffffffffffffffff1673ffffffffffffffffffffffffffffffffffffffff1681526020019081526020015f2082908060018154018082558091505060019003905f5260205f20015f909190919091505580806001019150506110d1565b50815f808381526020019081526020015f205f0190805190602001906112b292919061130c565b5060025f8154809291906112c5906119c2565b9190505550807f1dfea57c7217d8ee2ef44253419f3a05acdf0e6dea69f12e9e2afa2e748e3c8c83426040516112fc929190611def565b60405180910390a2505050505050565b828054828255905f5260205f20908101928215611382579160200282015b82811115611381578251825f6101000a81548173ffffffffffffffffffffffffffffffffffffffff021916908373ffffffffffffffffffffffffffffffffffffffff1602179055509160200191906001019061132a565b5b50905061138f9190611393565b5090565b5b808211156113aa575f815f905550600101611394565b5090565b5f80fd5b5f80fd5b5f819050919050565b6113c8816113b6565b81146113d2575f80fd5b50565b5f813590506113e3816113bf565b92915050565b5f80604083850312156113ff576113fe6113ae565b5b5f61140c858286016113d5565b925050602061141d858286016113d5565b9150509250929050565b5f6020828403121561143c5761143b6113ae565b5b5f611449848285016113d5565b91505092915050565b61145b816113b6565b82525050565b5f6020820190506114745f830184611452565b92915050565b5f81519050919050565b5f82825260208201905092915050565b5f819050602082019050919050565b6114ac816113b6565b82525050565b5f6114bd83836114a3565b60208301905092915050565b5f602082019050919050565b5f6114df8261147a565b6114e98185611484565b93506114f483611494565b805f5b8381101561152457815161150b88826114b2565b9750611516836114c9565b9250506001810190506114f7565b5085935050505092915050565b5f6020820190508181035f83015261154981846114d5565b905092915050565b5f81519050919050565b5f82825260208201905092915050565b5f819050602082019050919050565b5f73ffffffffffffffffffffffffffffffffffffffff82169050919050565b5f6115a38261157a565b9050919050565b6115b381611599565b82525050565b5f6115c483836115aa565b60208301905092915050565b5f602082019050919050565b5f6115e682611551565b6115f0818561155b565b93506115fb8361156b565b805f5b8381101561162b57815161161288826115b9565b975061161d836115d0565b9250506001810190506115fe565b5085935050505092915050565b5f6020820190508181035f83015261165081846115dc565b905092915050565b5f80fd5b5f80fd5b5f80fd5b5f8083601f84011261167957611678611658565b5b8235905067ffffffffffffffff8111156116965761169561165c565b5b6020830191508360208202830111156116b2576116b1611660565b5b9250929050565b5f80602083850312156116cf576116ce6113ae565b5b5f83013567ffffffffffffffff8111156116ec576116eb6113b2565b5b6116f885828601611664565b92509250509250929050565b7f4e487b71000000000000000000000000000000000000000000000000000000005f52603260045260245ffd5b5f82825260208201905092915050565b7f796f7520617265206e6f7420616e206f776e6572206f662074686973206163635f8201527f6f756e7400000000000000000000000000000000000000000000000000000000602082015250565b5f61179b602483611731565b91506117a682611741565b604082019050919050565b5f6020820190508181035f8301526117c88161178f565b9050919050565b7f74686973207265717565737420697320616c726561647920617070726f7665645f82015250565b5f611803602083611731565b915061180e826117cf565b602082019050919050565b5f6020820190508181035f830152611830816117f7565b9050919050565b7f796f752063616e6e6f7420617070726f766520746869732072657175657374005f82015250565b5f61186b601f83611731565b915061187682611837565b602082019050919050565b5f6020820190508181035f8301526118988161185f565b9050919050565b7f74686973207265717565737420646f6573206e6f7420657869737400000000005f82015250565b5f6118d3601b83611731565b91506118de8261189f565b602082019050919050565b5f6020820190508181035f830152611900816118c7565b9050919050565b7f796f75206861766520616c726561647920617070726f766564207468697320725f8201527f6571756573740000000000000000000000000000000000000000000000000000602082015250565b5f611961602683611731565b915061196c82611907565b604082019050919050565b5f6020820190508181035f83015261198e81611955565b9050919050565b7f4e487b71000000000000000000000000000000000000000000000000000000005f52601160045260245ffd5b5f6119cc826113b6565b91507fffffffffffffffffffffffffffffffffffffffffffffffffffffffffffffffff82036119fe576119fd611995565b5b600182019050919050565b5f611a13826113b6565b9150611a1e836113b6565b9250828203905081811115611a3657611a35611995565b5b92915050565b7f796f7520646964206e6f742063726561746520746869732072657175657374005f82015250565b5f611a70601f83611731565b9150611a7b82611a3c565b602082019050919050565b5f6020820190508181035f830152611a9d81611a64565b9050919050565b7f746869732072657175657374206973206e6f7420617070726f766564000000005f82015250565b5f611ad8601c83611731565b9150611ae382611aa4565b602082019050919050565b5f6020820190508181035f830152611b0581611acc565b9050919050565b7f696e73756666696369656e742062616c616e63650000000000000000000000005f82015250565b5f611b40601483611731565b9150611b4b82611b0c565b602082019050919050565b5f6020820190508181035f830152611b6d81611b34565b9050919050565b5f81905092915050565b50565b5f611b8c5f83611b74565b9150611b9782611b7e565b5f82019050919050565b5f611bab82611b81565b9150819050919050565b5f604082019050611bc85f830185611452565b611bd56020830184611452565b9392505050565b5f611be6826113b6565b9150611bf1836113b6565b9250828201905080821115611c0957611c08611995565b5b92915050565b7f6d6178696d756d206f662034206f776e65727320706572206163636f756e74005f82015250565b5f611c43601f83611731565b9150611c4e82611c0f565b602082019050919050565b5f6020820190508181035f830152611c7081611c37565b9050919050565b611c8081611599565b8114611c8a575f80fd5b50565b5f81359050611c9b81611c77565b92915050565b5f60208284031215611cb657611cb56113ae565b5b5f611cc384828501611c8d565b91505092915050565b7f6e6f206475706c6963617465206f776e657273000000000000000000000000005f82015250565b5f611d00601383611731565b9150611d0b82611ccc565b602082019050919050565b5f6020820190508181035f830152611d2d81611cf4565b9050919050565b7f4e487b71000000000000000000000000000000000000000000000000000000005f52604160045260245ffd5b7f6561636820757365722063616e20686176652061206d6178206f6620332061635f8201527f636f756e74730000000000000000000000000000000000000000000000000000602082015250565b5f611dbb602683611731565b9150611dc682611d61565b604082019050919050565b5f6020820190508181035f830152611de881611daf565b9050919050565b5f6040820190508181035f830152611e0781856115dc565b9050611e166020830184611452565b939250505056fea26469706673582212200c7eefa72eddbfa16be1ed293442b92d32d4734cde4ffccf558faacbaf018ec164736f6c634300081a0033",
					"opcodes": "PUSH1 0x80 PUSH1 0x40 MSTORE CALLVALUE DUP1 ISZERO PUSH1 0xE JUMPI PUSH0 DUP1 REVERT JUMPDEST POP PUSH2 0x1E53 DUP1 PUSH2 0x1C PUSH0 CODECOPY PUSH0 RETURN INVALID PUSH1 0x80 PUSH1 0x40 MSTORE PUSH1 0x4 CALLDATASIZE LT PUSH2 0x85 JUMPI PUSH0 CALLDATALOAD PUSH1 0xE0 SHR DUP1 PUSH4 0x8A48AC03 GT PUSH2 0x58 JUMPI DUP1 PUSH4 0x8A48AC03 EQ PUSH2 0x151 JUMPI DUP1 PUSH4 0xAE2EBD7F EQ PUSH2 0x17B JUMPI DUP1 PUSH4 0xB6B55F25 EQ PUSH2 0x1A3 JUMPI DUP1 PUSH4 0xEE4525D5 EQ PUSH2 0x1BF JUMPI DUP1 PUSH4 0xEFF63433 EQ PUSH2 0x1FB JUMPI PUSH2 0x85 JUMP JUMPDEST DUP1 PUSH4 0x1A0BD42B EQ PUSH2 0x89 JUMPI DUP1 PUSH4 0x1E010439 EQ PUSH2 0xB1 JUMPI DUP1 PUSH4 0x441A3E70 EQ PUSH2 0xED JUMPI DUP1 PUSH4 0x867275A5 EQ PUSH2 0x115 JUMPI JUMPDEST PUSH0 DUP1 REVERT JUMPDEST CALLVALUE DUP1 ISZERO PUSH2 0x94 JUMPI PUSH0 DUP1 REVERT JUMPDEST POP PUSH2 0xAF PUSH1 0x4 DUP1 CALLDATASIZE SUB DUP2 ADD SWAP1 PUSH2 0xAA SWAP2 SWAP1 PUSH2 0x13E9 JUMP JUMPDEST PUSH2 0x223 JUMP JUMPDEST STOP JUMPDEST CALLVALUE DUP1 ISZERO PUSH2 0xBC JUMPI PUSH0 DUP1 REVERT JUMPDEST POP PUSH2 0xD7 PUSH1 0x4 DUP1 CALLDATASIZE SUB DUP2 ADD SWAP1 PUSH2 0xD2 SWAP2 SWAP1 PUSH2 0x1427 JUMP JUMPDEST PUSH2 0x683 JUMP JUMPDEST PUSH1 0x40 MLOAD PUSH2 0xE4 SWAP2 SWAP1 PUSH2 0x1461 JUMP JUMPDEST PUSH1 0x40 MLOAD DUP1 SWAP2 SUB SWAP1 RETURN JUMPDEST CALLVALUE DUP1 ISZERO PUSH2 0xF8 JUMPI PUSH0 DUP1 REVERT JUMPDEST POP PUSH2 0x113 PUSH1 0x4 DUP1 CALLDATASIZE SUB DUP2 ADD SWAP1 PUSH2 0x10E SWAP2 SWAP1 PUSH2 0x13E9 JUMP JUMPDEST PUSH2 0x69F JUMP JUMPDEST STOP JUMPDEST CALLVALUE DUP1 ISZERO PUSH2 0x120 JUMPI PUSH0 DUP1 REVERT JUMPDEST POP PUSH2 0x13B PUSH1 0x4 DUP1 CALLDATASIZE SUB DUP2 ADD SWAP1 PUSH2 0x136 SWAP2 SWAP1 PUSH2 0x13E9 JUMP JUMPDEST PUSH2 0x987 JUMP JUMPDEST PUSH1 0x40 MLOAD PUSH2 0x148 SWAP2 SWAP1 PUSH2 0x1461 JUMP JUMPDEST PUSH1 0x40 MLOAD DUP1 SWAP2 SUB SWAP1 RETURN JUMPDEST CALLVALUE DUP1 ISZERO PUSH2 0x15C JUMPI PUSH0 DUP1 REVERT JUMPDEST POP PUSH2 0x165 PUSH2 0x9B6 JUMP JUMPDEST PUSH1 0x40 MLOAD PUSH2 0x172 SWAP2 SWAP1 PUSH2 0x1531 JUMP JUMPDEST PUSH1 0x40 MLOAD DUP1 SWAP2 SUB SWAP1 RETURN JUMPDEST CALLVALUE DUP1 ISZERO PUSH2 0x186 JUMPI PUSH0 DUP1 REVERT JUMPDEST POP PUSH2 0x1A1 PUSH1 0x4 DUP1 CALLDATASIZE SUB DUP2 ADD SWAP1 PUSH2 0x19C SWAP2 SWAP1 PUSH2 0x13E9 JUMP JUMPDEST PUSH2 0xA47 JUMP JUMPDEST STOP JUMPDEST PUSH2 0x1BD PUSH1 0x4 DUP1 CALLDATASIZE SUB DUP2 ADD SWAP1 PUSH2 0x1B8 SWAP2 SWAP1 PUSH2 0x1427 JUMP JUMPDEST PUSH2 0xC7D JUMP JUMPDEST STOP JUMPDEST CALLVALUE DUP1 ISZERO PUSH2 0x1CA JUMPI PUSH0 DUP1 REVERT JUMPDEST POP PUSH2 0x1E5 PUSH1 0x4 DUP1 CALLDATASIZE SUB DUP2 ADD SWAP1 PUSH2 0x1E0 SWAP2 SWAP1 PUSH2 0x1427 JUMP JUMPDEST PUSH2 0xDA1 JUMP JUMPDEST PUSH1 0x40 MLOAD PUSH2 0x1F2 SWAP2 SWAP1 PUSH2 0x1638 JUMP JUMPDEST PUSH1 0x40 MLOAD DUP1 SWAP2 SUB SWAP1 RETURN JUMPDEST CALLVALUE DUP1 ISZERO PUSH2 0x206 JUMPI PUSH0 DUP1 REVERT JUMPDEST POP PUSH2 0x221 PUSH1 0x4 DUP1 CALLDATASIZE SUB DUP2 ADD SWAP1 PUSH2 0x21C SWAP2 SWAP1 PUSH2 0x16B9 JUMP JUMPDEST PUSH2 0xE3E JUMP JUMPDEST STOP JUMPDEST DUP2 PUSH0 DUP1 JUMPDEST PUSH0 DUP1 DUP5 DUP2 MSTORE PUSH1 0x20 ADD SWAP1 DUP2 MSTORE PUSH1 0x20 ADD PUSH0 KECCAK256 PUSH0 ADD DUP1 SLOAD SWAP1 POP DUP2 LT ISZERO PUSH2 0x2D8 JUMPI CALLER PUSH20 0xFFFFFFFFFFFFFFFFFFFFFFFFFFFFFFFFFFFFFFFF AND PUSH0 DUP1 DUP6 DUP2 MSTORE PUSH1 0x20 ADD SWAP1 DUP2 MSTORE PUSH1 0x20 ADD PUSH0 KECCAK256 PUSH0 ADD DUP3 DUP2 SLOAD DUP2 LT PUSH2 0x27F JUMPI PUSH2 0x27E PUSH2 0x1704 JUMP JUMPDEST JUMPDEST SWAP1 PUSH0 MSTORE PUSH1 0x20 PUSH0 KECCAK256 ADD PUSH0 SWAP1 SLOAD SWAP1 PUSH2 0x100 EXP SWAP1 DIV PUSH20 0xFFFFFFFFFFFFFFFFFFFFFFFFFFFFFFFFFFFFFFFF AND PUSH20 0xFFFFFFFFFFFFFFFFFFFFFFFFFFFFFFFFFFFFFFFF AND SUB PUSH2 0x2CB JUMPI PUSH1 0x1 SWAP2 POP PUSH2 0x2D8 JUMP JUMPDEST DUP1 DUP1 PUSH1 0x1 ADD SWAP2 POP POP PUSH2 0x227 JUMP JUMPDEST POP DUP1 PUSH2 0x319 JUMPI PUSH1 0x40 MLOAD PUSH32 0x8C379A000000000000000000000000000000000000000000000000000000000 DUP2 MSTORE PUSH1 0x4 ADD PUSH2 0x310 SWAP1 PUSH2 0x17B1 JUMP JUMPDEST PUSH1 0x40 MLOAD DUP1 SWAP2 SUB SWAP1 REVERT JUMPDEST DUP4 DUP4 PUSH0 DUP1 DUP4 DUP2 MSTORE PUSH1 0x20 ADD SWAP1 DUP2 MSTORE PUSH1 0x20 ADD PUSH0 KECCAK256 PUSH1 0x2 ADD PUSH0 DUP3 DUP2 MSTORE PUSH1 0x20 ADD SWAP1 DUP2 MSTORE PUSH1 0x20 ADD PUSH0 KECCAK256 PUSH1 0x4 ADD PUSH0 SWAP1 SLOAD SWAP1 PUSH2 0x100 EXP SWAP1 DIV PUSH1 0xFF AND ISZERO PUSH2 0x38D JUMPI PUSH1 0x40 MLOAD PUSH32 0x8C379A000000000000000000000000000000000000000000000000000000000 DUP2 MSTORE PUSH1 0x4 ADD PUSH2 0x384 SWAP1 PUSH2 0x1819 JUMP JUMPDEST PUSH1 0x40 MLOAD DUP1 SWAP2 SUB SWAP1 REVERT JUMPDEST CALLER PUSH20 0xFFFFFFFFFFFFFFFFFFFFFFFFFFFFFFFFFFFFFFFF AND PUSH0 DUP1 DUP5 DUP2 MSTORE PUSH1 0x20 ADD SWAP1 DUP2 MSTORE PUSH1 0x20 ADD PUSH0 KECCAK256 PUSH1 0x2 ADD PUSH0 DUP4 DUP2 MSTORE PUSH1 0x20 ADD SWAP1 DUP2 MSTORE PUSH1 0x20 ADD PUSH0 KECCAK256 PUSH0 ADD PUSH0 SWAP1 SLOAD SWAP1 PUSH2 0x100 EXP SWAP1 DIV PUSH20 0xFFFFFFFFFFFFFFFFFFFFFFFFFFFFFFFFFFFFFFFF AND PUSH20 0xFFFFFFFFFFFFFFFFFFFFFFFFFFFFFFFFFFFFFFFF AND SUB PUSH2 0x43E JUMPI PUSH1 0x40 MLOAD PUSH32 0x8C379A000000000000000000000000000000000000000000000000000000000 DUP2 MSTORE PUSH1 0x4 ADD PUSH2 0x435 SWAP1 PUSH2 0x1881 JUMP JUMPDEST PUSH1 0x40 MLOAD DUP1 SWAP2 SUB SWAP1 REVERT JUMPDEST PUSH0 PUSH20 0xFFFFFFFFFFFFFFFFFFFFFFFFFFFFFFFFFFFFFFFF AND PUSH0 DUP1 DUP5 DUP2 MSTORE PUSH1 0x20 ADD SWAP1 DUP2 MSTORE PUSH1 0x20 ADD PUSH0 KECCAK256 PUSH1 0x2 ADD PUSH0 DUP4 DUP2 MSTORE PUSH1 0x20 ADD SWAP1 DUP2 MSTORE PUSH1 0x20 ADD PUSH0 KECCAK256 PUSH0 ADD PUSH0 SWAP1 SLOAD SWAP1 PUSH2 0x100 EXP SWAP1 DIV PUSH20 0xFFFFFFFFFFFFFFFFFFFFFFFFFFFFFFFFFFFFFFFF AND PUSH20 0xFFFFFFFFFFFFFFFFFFFFFFFFFFFFFFFFFFFFFFFF AND SUB PUSH2 0x4EF JUMPI PUSH1 0x40 MLOAD PUSH32 0x8C379A000000000000000000000000000000000000000000000000000000000 DUP2 MSTORE PUSH1 0x4 ADD PUSH2 0x4E6 SWAP1 PUSH2 0x18E9 JUMP JUMPDEST PUSH1 0x40 MLOAD DUP1 SWAP2 SUB SWAP1 REVERT JUMPDEST PUSH0 DUP1 DUP4 DUP2 MSTORE PUSH1 0x20 ADD SWAP1 DUP2 MSTORE PUSH1 0x20 ADD PUSH0 KECCAK256 PUSH1 0x2 ADD PUSH0 DUP3 DUP2 MSTORE PUSH1 0x20 ADD SWAP1 DUP2 MSTORE PUSH1 0x20 ADD PUSH0 KECCAK256 PUSH1 0x3 ADD PUSH0 CALLER PUSH20 0xFFFFFFFFFFFFFFFFFFFFFFFFFFFFFFFFFFFFFFFF AND PUSH20 0xFFFFFFFFFFFFFFFFFFFFFFFFFFFFFFFFFFFFFFFF AND DUP2 MSTORE PUSH1 0x20 ADD SWAP1 DUP2 MSTORE PUSH1 0x20 ADD PUSH0 KECCAK256 PUSH0 SWAP1 SLOAD SWAP1 PUSH2 0x100 EXP SWAP1 DIV PUSH1 0xFF AND ISZERO PUSH2 0x59C JUMPI PUSH1 0x40 MLOAD PUSH32 0x8C379A000000000000000000000000000000000000000000000000000000000 DUP2 MSTORE PUSH1 0x4 ADD PUSH2 0x593 SWAP1 PUSH2 0x1977 JUMP JUMPDEST PUSH1 0x40 MLOAD DUP1 SWAP2 SUB SWAP1 REVERT JUMPDEST PUSH0 DUP1 PUSH0 DUP9 DUP2 MSTORE PUSH1 0x20 ADD SWAP1 DUP2 MSTORE PUSH1 0x20 ADD PUSH0 KECCAK256 PUSH1 0x2 ADD PUSH0 DUP8 DUP2 MSTORE PUSH1 0x20 ADD SWAP1 DUP2 MSTORE PUSH1 0x20 ADD PUSH0 KECCAK256 SWAP1 POP DUP1 PUSH1 0x2 ADD PUSH0 DUP2 SLOAD DUP1 SWAP3 SWAP2 SWAP1 PUSH2 0x5D5 SWAP1 PUSH2 0x19C2 JUMP JUMPDEST SWAP2 SWAP1 POP SSTORE POP PUSH1 0x1 DUP2 PUSH1 0x3 ADD PUSH0 CALLER PUSH20 0xFFFFFFFFFFFFFFFFFFFFFFFFFFFFFFFFFFFFFFFF AND PUSH20 0xFFFFFFFFFFFFFFFFFFFFFFFFFFFFFFFFFFFFFFFF AND DUP2 MSTORE PUSH1 0x20 ADD SWAP1 DUP2 MSTORE PUSH1 0x20 ADD PUSH0 KECCAK256 PUSH0 PUSH2 0x100 EXP DUP2 SLOAD DUP2 PUSH1 0xFF MUL NOT AND SWAP1 DUP4 ISZERO ISZERO MUL OR SWAP1 SSTORE POP PUSH1 0x1 PUSH0 DUP1 DUP10 DUP2 MSTORE PUSH1 0x20 ADD SWAP1 DUP2 MSTORE PUSH1 0x20 ADD PUSH0 KECCAK256 PUSH0 ADD DUP1 SLOAD SWAP1 POP PUSH2 0x653 SWAP2 SWAP1 PUSH2 0x1A09 JUMP JUMPDEST DUP2 PUSH1 0x2 ADD SLOAD SUB PUSH2 0x67A JUMPI PUSH1 0x1 DUP2 PUSH1 0x4 ADD PUSH0 PUSH2 0x100 EXP DUP2 SLOAD DUP2 PUSH1 0xFF MUL NOT AND SWAP1 DUP4 ISZERO ISZERO MUL OR SWAP1 SSTORE POP JUMPDEST POP POP POP POP POP POP POP JUMP JUMPDEST PUSH0 DUP1 PUSH0 DUP4 DUP2 MSTORE PUSH1 0x20 ADD SWAP1 DUP2 MSTORE PUSH1 0x20 ADD PUSH0 KECCAK256 PUSH1 0x1 ADD SLOAD SWAP1 POP SWAP2 SWAP1 POP JUMP JUMPDEST DUP2 DUP2 CALLER PUSH20 0xFFFFFFFFFFFFFFFFFFFFFFFFFFFFFFFFFFFFFFFF AND PUSH0 DUP1 DUP5 DUP2 MSTORE PUSH1 0x20 ADD SWAP1 DUP2 MSTORE PUSH1 0x20 ADD PUSH0 KECCAK256 PUSH1 0x2 ADD PUSH0 DUP4 DUP2 MSTORE PUSH1 0x20 ADD SWAP1 DUP2 MSTORE PUSH1 0x20 ADD PUSH0 KECCAK256 PUSH0 ADD PUSH0 SWAP1 SLOAD SWAP1 PUSH2 0x100 EXP SWAP1 DIV PUSH20 0xFFFFFFFFFFFFFFFFFFFFFFFFFFFFFFFFFFFFFFFF AND PUSH20 0xFFFFFFFFFFFFFFFFFFFFFFFFFFFFFFFFFFFFFFFF AND EQ PUSH2 0x752 JUMPI PUSH1 0x40 MLOAD PUSH32 0x8C379A000000000000000000000000000000000000000000000000000000000 DUP2 MSTORE PUSH1 0x4 ADD PUSH2 0x749 SWAP1 PUSH2 0x1A86 JUMP JUMPDEST PUSH1 0x40 MLOAD DUP1 SWAP2 SUB SWAP1 REVERT JUMPDEST PUSH0 DUP1 DUP4 DUP2 MSTORE PUSH1 0x20 ADD SWAP1 DUP2 MSTORE PUSH1 0x20 ADD PUSH0 KECCAK256 PUSH1 0x2 ADD PUSH0 DUP3 DUP2 MSTORE PUSH1 0x20 ADD SWAP1 DUP2 MSTORE PUSH1 0x20 ADD PUSH0 KECCAK256 PUSH1 0x4 ADD PUSH0 SWAP1 SLOAD SWAP1 PUSH2 0x100 EXP SWAP1 DIV PUSH1 0xFF AND PUSH2 0x7C3 JUMPI PUSH1 0x40 MLOAD PUSH32 0x8C379A000000000000000000000000000000000000000000000000000000000 DUP2 MSTORE PUSH1 0x4 ADD PUSH2 0x7BA SWAP1 PUSH2 0x1AEE JUMP JUMPDEST PUSH1 0x40 MLOAD DUP1 SWAP2 SUB SWAP1 REVERT JUMPDEST PUSH0 DUP1 PUSH0 DUP7 DUP2 MSTORE PUSH1 0x20 ADD SWAP1 DUP2 MSTORE PUSH1 0x20 ADD PUSH0 KECCAK256 PUSH1 0x2 ADD PUSH0 DUP6 DUP2 MSTORE PUSH1 0x20 ADD SWAP1 DUP2 MSTORE PUSH1 0x20 ADD PUSH0 KECCAK256 PUSH1 0x1 ADD SLOAD SWAP1 POP DUP1 PUSH0 DUP1 DUP8 DUP2 MSTORE PUSH1 0x20 ADD SWAP1 DUP2 MSTORE PUSH1 0x20 ADD PUSH0 KECCAK256 PUSH1 0x1 ADD SLOAD LT ISZERO PUSH2 0x842 JUMPI PUSH1 0x40 MLOAD PUSH32 0x8C379A000000000000000000000000000000000000000000000000000000000 DUP2 MSTORE PUSH1 0x4 ADD PUSH2 0x839 SWAP1 PUSH2 0x1B56 JUMP JUMPDEST PUSH1 0x40 MLOAD DUP1 SWAP2 SUB SWAP1 REVERT JUMPDEST DUP1 PUSH0 DUP1 DUP8 DUP2 MSTORE PUSH1 0x20 ADD SWAP1 DUP2 MSTORE PUSH1 0x20 ADD PUSH0 KECCAK256 PUSH1 0x1 ADD PUSH0 DUP3 DUP3 SLOAD PUSH2 0x864 SWAP2 SWAP1 PUSH2 0x1A09 JUMP JUMPDEST SWAP3 POP POP DUP2 SWAP1 SSTORE POP PUSH0 DUP1 DUP7 DUP2 MSTORE PUSH1 0x20 ADD SWAP1 DUP2 MSTORE PUSH1 0x20 ADD PUSH0 KECCAK256 PUSH1 0x2 ADD PUSH0 DUP6 DUP2 MSTORE PUSH1 0x20 ADD SWAP1 DUP2 MSTORE PUSH1 0x20 ADD PUSH0 KECCAK256 PUSH0 DUP1 DUP3 ADD PUSH0 PUSH2 0x100 EXP DUP2 SLOAD SWAP1 PUSH20 0xFFFFFFFFFFFFFFFFFFFFFFFFFFFFFFFFFFFFFFFF MUL NOT AND SWAP1 SSTORE PUSH1 0x1 DUP3 ADD PUSH0 SWAP1 SSTORE PUSH1 0x2 DUP3 ADD PUSH0 SWAP1 SSTORE PUSH1 0x4 DUP3 ADD PUSH0 PUSH2 0x100 EXP DUP2 SLOAD SWAP1 PUSH1 0xFF MUL NOT AND SWAP1 SSTORE POP POP PUSH0 CALLER PUSH20 0xFFFFFFFFFFFFFFFFFFFFFFFFFFFFFFFFFFFFFFFF AND DUP3 PUSH1 0x40 MLOAD PUSH2 0x8FB SWAP1 PUSH2 0x1BA1 JUMP JUMPDEST PUSH0 PUSH1 0x40 MLOAD DUP1 DUP4 SUB DUP2 DUP6 DUP8 GAS CALL SWAP3 POP POP POP RETURNDATASIZE DUP1 PUSH0 DUP2 EQ PUSH2 0x935 JUMPI PUSH1 0x40 MLOAD SWAP2 POP PUSH1 0x1F NOT PUSH1 0x3F RETURNDATASIZE ADD AND DUP3 ADD PUSH1 0x40 MSTORE RETURNDATASIZE DUP3 MSTORE RETURNDATASIZE PUSH0 PUSH1 0x20 DUP5 ADD RETURNDATACOPY PUSH2 0x93A JUMP JUMPDEST PUSH1 0x60 SWAP2 POP JUMPDEST POP POP SWAP1 POP DUP1 PUSH2 0x947 JUMPI PUSH0 DUP1 REVERT JUMPDEST DUP5 PUSH32 0x56CA301A9219608C91E7BCEE90E083C19671D2CDCC96752C7AF291CEE5F9C8C8 TIMESTAMP PUSH1 0x40 MLOAD PUSH2 0x977 SWAP2 SWAP1 PUSH2 0x1461 JUMP JUMPDEST PUSH1 0x40 MLOAD DUP1 SWAP2 SUB SWAP1 LOG2 POP POP POP POP POP POP JUMP JUMPDEST PUSH0 DUP1 PUSH0 DUP5 DUP2 MSTORE PUSH1 0x20 ADD SWAP1 DUP2 MSTORE PUSH1 0x20 ADD PUSH0 KECCAK256 PUSH1 0x2 ADD PUSH0 DUP4 DUP2 MSTORE PUSH1 0x20 ADD SWAP1 DUP2 MSTORE PUSH1 0x20 ADD PUSH0 KECCAK256 PUSH1 0x2 ADD SLOAD SWAP1 POP SWAP3 SWAP2 POP POP JUMP JUMPDEST PUSH1 0x60 PUSH1 0x1 PUSH0 CALLER PUSH20 0xFFFFFFFFFFFFFFFFFFFFFFFFFFFFFFFFFFFFFFFF AND PUSH20 0xFFFFFFFFFFFFFFFFFFFFFFFFFFFFFFFFFFFFFFFF AND DUP2 MSTORE PUSH1 0x20 ADD SWAP1 DUP2 MSTORE PUSH1 0x20 ADD PUSH0 KECCAK256 DUP1 SLOAD DUP1 PUSH1 0x20 MUL PUSH1 0x20 ADD PUSH1 0x40 MLOAD SWAP1 DUP2 ADD PUSH1 0x40 MSTORE DUP1 SWAP3 SWAP2 SWAP1 DUP2 DUP2 MSTORE PUSH1 0x20 ADD DUP3 DUP1 SLOAD DUP1 ISZERO PUSH2 0xA3D JUMPI PUSH1 0x20 MUL DUP3 ADD SWAP2 SWAP1 PUSH0 MSTORE PUSH1 0x20 PUSH0 KECCAK256 SWAP1 JUMPDEST DUP2 SLOAD DUP2 MSTORE PUSH1 0x20 ADD SWAP1 PUSH1 0x1 ADD SWAP1 DUP1 DUP4 GT PUSH2 0xA29 JUMPI JUMPDEST POP POP POP POP POP SWAP1 POP SWAP1 JUMP JUMPDEST DUP2 PUSH0 DUP1 JUMPDEST PUSH0 DUP1 DUP5 DUP2 MSTORE PUSH1 0x20 ADD SWAP1 DUP2 MSTORE PUSH1 0x20 ADD PUSH0 KECCAK256 PUSH0 ADD DUP1 SLOAD SWAP1 POP DUP2 LT ISZERO PUSH2 0xAFC JUMPI CALLER PUSH20 0xFFFFFFFFFFFFFFFFFFFFFFFFFFFFFFFFFFFFFFFF AND PUSH0 DUP1 DUP6 DUP2 MSTORE PUSH1 0x20 ADD SWAP1 DUP2 MSTORE PUSH1 0x20 ADD PUSH0 KECCAK256 PUSH0 ADD DUP3 DUP2 SLOAD DUP2 LT PUSH2 0xAA3 JUMPI PUSH2 0xAA2 PUSH2 0x1704 JUMP JUMPDEST JUMPDEST SWAP1 PUSH0 MSTORE PUSH1 0x20 PUSH0 KECCAK256 ADD PUSH0 SWAP1 SLOAD SWAP1 PUSH2 0x100 EXP SWAP1 DIV PUSH20 0xFFFFFFFFFFFFFFFFFFFFFFFFFFFFFFFFFFFFFFFF AND PUSH20 0xFFFFFFFFFFFFFFFFFFFFFFFFFFFFFFFFFFFFFFFF AND SUB PUSH2 0xAEF JUMPI PUSH1 0x1 SWAP2 POP PUSH2 0xAFC JUMP JUMPDEST DUP1 DUP1 PUSH1 0x1 ADD SWAP2 POP POP PUSH2 0xA4B JUMP JUMPDEST POP DUP1 PUSH2 0xB3D JUMPI PUSH1 0x40 MLOAD PUSH32 0x8C379A000000000000000000000000000000000000000000000000000000000 DUP2 MSTORE PUSH1 0x4 ADD PUSH2 0xB34 SWAP1 PUSH2 0x17B1 JUMP JUMPDEST PUSH1 0x40 MLOAD DUP1 SWAP2 SUB SWAP1 REVERT JUMPDEST DUP4 DUP4 DUP1 PUSH0 DUP1 DUP5 DUP2 MSTORE PUSH1 0x20 ADD SWAP1 DUP2 MSTORE PUSH1 0x20 ADD PUSH0 KECCAK256 PUSH1 0x1 ADD SLOAD LT ISZERO PUSH2 0xB95 JUMPI PUSH1 0x40 MLOAD PUSH32 0x8C379A000000000000000000000000000000000000000000000000000000000 DUP2 MSTORE PUSH1 0x4 ADD PUSH2 0xB8C SWAP1 PUSH2 0x1B56 JUMP JUMPDEST PUSH1 0x40 MLOAD DUP1 SWAP2 SUB SWAP1 REVERT JUMPDEST PUSH0 PUSH1 0x3 SLOAD SWAP1 POP PUSH0 DUP1 PUSH0 DUP10 DUP2 MSTORE PUSH1 0x20 ADD SWAP1 DUP2 MSTORE PUSH1 0x20 ADD PUSH0 KECCAK256 PUSH1 0x2 ADD PUSH0 DUP4 DUP2 MSTORE PUSH1 0x20 ADD SWAP1 DUP2 MSTORE PUSH1 0x20 ADD PUSH0 KECCAK256 SWAP1 POP CALLER DUP2 PUSH0 ADD PUSH0 PUSH2 0x100 EXP DUP2 SLOAD DUP2 PUSH20 0xFFFFFFFFFFFFFFFFFFFFFFFFFFFFFFFFFFFFFFFF MUL NOT AND SWAP1 DUP4 PUSH20 0xFFFFFFFFFFFFFFFFFFFFFFFFFFFFFFFFFFFFFFFF AND MUL OR SWAP1 SSTORE POP DUP7 DUP2 PUSH1 0x1 ADD DUP2 SWAP1 SSTORE POP PUSH1 0x3 PUSH0 DUP2 SLOAD DUP1 SWAP3 SWAP2 SWAP1 PUSH2 0xC1C SWAP1 PUSH2 0x19C2 JUMP JUMPDEST SWAP2 SWAP1 POP SSTORE POP DUP2 DUP9 CALLER PUSH20 0xFFFFFFFFFFFFFFFFFFFFFFFFFFFFFFFFFFFFFFFF AND PUSH32 0x1F0D204A59639D21245DBAA239DFC9A6227AA86CB614BDDA19843C52D155FCFA DUP11 TIMESTAMP PUSH1 0x40 MLOAD PUSH2 0xC6B SWAP3 SWAP2 SWAP1 PUSH2 0x1BB5 JUMP JUMPDEST PUSH1 0x40 MLOAD DUP1 SWAP2 SUB SWAP1 LOG4 POP POP POP POP POP POP POP POP JUMP JUMPDEST DUP1 PUSH0 DUP1 JUMPDEST PUSH0 DUP1 DUP5 DUP2 MSTORE PUSH1 0x20 ADD SWAP1 DUP2 MSTORE PUSH1 0x20 ADD PUSH0 KECCAK256 PUSH0 ADD DUP1 SLOAD SWAP1 POP DUP2 LT ISZERO PUSH2 0xD32 JUMPI CALLER PUSH20 0xFFFFFFFFFFFFFFFFFFFFFFFFFFFFFFFFFFFFFFFF AND PUSH0 DUP1 DUP6 DUP2 MSTORE PUSH1 0x20 ADD SWAP1 DUP2 MSTORE PUSH1 0x20 ADD PUSH0 KECCAK256 PUSH0 ADD DUP3 DUP2 SLOAD DUP2 LT PUSH2 0xCD9 JUMPI PUSH2 0xCD8 PUSH2 0x1704 JUMP JUMPDEST JUMPDEST SWAP1 PUSH0 MSTORE PUSH1 0x20 PUSH0 KECCAK256 ADD PUSH0 SWAP1 SLOAD SWAP1 PUSH2 0x100 EXP SWAP1 DIV PUSH20 0xFFFFFFFFFFFFFFFFFFFFFFFFFFFFFFFFFFFFFFFF AND PUSH20 0xFFFFFFFFFFFFFFFFFFFFFFFFFFFFFFFFFFFFFFFF AND SUB PUSH2 0xD25 JUMPI PUSH1 0x1 SWAP2 POP PUSH2 0xD32 JUMP JUMPDEST DUP1 DUP1 PUSH1 0x1 ADD SWAP2 POP POP PUSH2 0xC81 JUMP JUMPDEST POP DUP1 PUSH2 0xD73 JUMPI PUSH1 0x40 MLOAD PUSH32 0x8C379A000000000000000000000000000000000000000000000000000000000 DUP2 MSTORE PUSH1 0x4 ADD PUSH2 0xD6A SWAP1 PUSH2 0x17B1 JUMP JUMPDEST PUSH1 0x40 MLOAD DUP1 SWAP2 SUB SWAP1 REVERT JUMPDEST CALLVALUE PUSH0 DUP1 DUP6 DUP2 MSTORE PUSH1 0x20 ADD SWAP1 DUP2 MSTORE PUSH1 0x20 ADD PUSH0 KECCAK256 PUSH1 0x1 ADD PUSH0 DUP3 DUP3 SLOAD PUSH2 0xD95 SWAP2 SWAP1 PUSH2 0x1BDC JUMP JUMPDEST SWAP3 POP POP DUP2 SWAP1 SSTORE POP POP POP POP JUMP JUMPDEST PUSH1 0x60 PUSH0 DUP1 DUP4 DUP2 MSTORE PUSH1 0x20 ADD SWAP1 DUP2 MSTORE PUSH1 0x20 ADD PUSH0 KECCAK256 PUSH0 ADD DUP1 SLOAD DUP1 PUSH1 0x20 MUL PUSH1 0x20 ADD PUSH1 0x40 MLOAD SWAP1 DUP2 ADD PUSH1 0x40 MSTORE DUP1 SWAP3 SWAP2 SWAP1 DUP2 DUP2 MSTORE PUSH1 0x20 ADD DUP3 DUP1 SLOAD DUP1 ISZERO PUSH2 0xE32 JUMPI PUSH1 0x20 MUL DUP3 ADD SWAP2 SWAP1 PUSH0 MSTORE PUSH1 0x20 PUSH0 KECCAK256 SWAP1 JUMPDEST DUP2 PUSH0 SWAP1 SLOAD SWAP1 PUSH2 0x100 EXP SWAP1 DIV PUSH20 0xFFFFFFFFFFFFFFFFFFFFFFFFFFFFFFFFFFFFFFFF AND PUSH20 0xFFFFFFFFFFFFFFFFFFFFFFFFFFFFFFFFFFFFFFFF AND DUP2 MSTORE PUSH1 0x20 ADD SWAP1 PUSH1 0x1 ADD SWAP1 DUP1 DUP4 GT PUSH2 0xDE9 JUMPI JUMPDEST POP POP POP POP POP SWAP1 POP SWAP2 SWAP1 POP JUMP JUMPDEST DUP2 DUP2 PUSH1 0x4 PUSH1 0x1 DUP4 DUP4 SWAP1 POP PUSH2 0xE52 SWAP2 SWAP1 PUSH2 0x1BDC JUMP JUMPDEST GT ISZERO PUSH2 0xE93 JUMPI PUSH1 0x40 MLOAD PUSH32 0x8C379A000000000000000000000000000000000000000000000000000000000 DUP2 MSTORE PUSH1 0x4 ADD PUSH2 0xE8A SWAP1 PUSH2 0x1C59 JUMP JUMPDEST PUSH1 0x40 MLOAD DUP1 SWAP2 SUB SWAP1 REVERT JUMPDEST PUSH0 JUMPDEST DUP3 DUP3 SWAP1 POP DUP2 LT ISZERO PUSH2 0x101C JUMPI CALLER PUSH20 0xFFFFFFFFFFFFFFFFFFFFFFFFFFFFFFFFFFFFFFFF AND DUP4 DUP4 DUP4 DUP2 DUP2 LT PUSH2 0xECA JUMPI PUSH2 0xEC9 PUSH2 0x1704 JUMP JUMPDEST JUMPDEST SWAP1 POP PUSH1 0x20 MUL ADD PUSH1 0x20 DUP2 ADD SWAP1 PUSH2 0xEDF SWAP2 SWAP1 PUSH2 0x1CA1 JUMP JUMPDEST PUSH20 0xFFFFFFFFFFFFFFFFFFFFFFFFFFFFFFFFFFFFFFFF AND SUB PUSH2 0xF35 JUMPI PUSH1 0x40 MLOAD PUSH32 0x8C379A000000000000000000000000000000000000000000000000000000000 DUP2 MSTORE PUSH1 0x4 ADD PUSH2 0xF2C SWAP1 PUSH2 0x1D16 JUMP JUMPDEST PUSH1 0x40 MLOAD DUP1 SWAP2 SUB SWAP1 REVERT JUMPDEST PUSH0 DUP2 SWAP1 POP JUMPDEST DUP4 DUP4 SWAP1 POP DUP2 LT ISZERO PUSH2 0x100E JUMPI DUP4 DUP4 DUP3 DUP2 DUP2 LT PUSH2 0xF58 JUMPI PUSH2 0xF57 PUSH2 0x1704 JUMP JUMPDEST JUMPDEST SWAP1 POP PUSH1 0x20 MUL ADD PUSH1 0x20 DUP2 ADD SWAP1 PUSH2 0xF6D SWAP2 SWAP1 PUSH2 0x1CA1 JUMP JUMPDEST PUSH20 0xFFFFFFFFFFFFFFFFFFFFFFFFFFFFFFFFFFFFFFFF AND DUP5 DUP5 DUP5 DUP2 DUP2 LT PUSH2 0xF96 JUMPI PUSH2 0xF95 PUSH2 0x1704 JUMP JUMPDEST JUMPDEST SWAP1 POP PUSH1 0x20 MUL ADD PUSH1 0x20 DUP2 ADD SWAP1 PUSH2 0xFAB SWAP2 SWAP1 PUSH2 0x1CA1 JUMP JUMPDEST PUSH20 0xFFFFFFFFFFFFFFFFFFFFFFFFFFFFFFFFFFFFFFFF AND SUB PUSH2 0x1001 JUMPI PUSH1 0x40 MLOAD PUSH32 0x8C379A000000000000000000000000000000000000000000000000000000000 DUP2 MSTORE PUSH1 0x4 ADD PUSH2 0xFF8 SWAP1 PUSH2 0x1D16 JUMP JUMPDEST PUSH1 0x40 MLOAD DUP1 SWAP2 SUB SWAP1 REVERT JUMPDEST DUP1 DUP1 PUSH1 0x1 ADD SWAP2 POP POP PUSH2 0xF3A JUMP JUMPDEST POP DUP1 DUP1 PUSH1 0x1 ADD SWAP2 POP POP PUSH2 0xE95 JUMP JUMPDEST POP PUSH0 PUSH1 0x1 DUP6 DUP6 SWAP1 POP PUSH2 0x102E SWAP2 SWAP1 PUSH2 0x1BDC JUMP JUMPDEST PUSH8 0xFFFFFFFFFFFFFFFF DUP2 GT ISZERO PUSH2 0x1047 JUMPI PUSH2 0x1046 PUSH2 0x1D34 JUMP JUMPDEST JUMPDEST PUSH1 0x40 MLOAD SWAP1 DUP1 DUP3 MSTORE DUP1 PUSH1 0x20 MUL PUSH1 0x20 ADD DUP3 ADD PUSH1 0x40 MSTORE DUP1 ISZERO PUSH2 0x1075 JUMPI DUP2 PUSH1 0x20 ADD PUSH1 0x20 DUP3 MUL DUP1 CALLDATASIZE DUP4 CALLDATACOPY DUP1 DUP3 ADD SWAP2 POP POP SWAP1 POP JUMPDEST POP SWAP1 POP CALLER DUP2 DUP7 DUP7 SWAP1 POP DUP2 MLOAD DUP2 LT PUSH2 0x108F JUMPI PUSH2 0x108E PUSH2 0x1704 JUMP JUMPDEST JUMPDEST PUSH1 0x20 MUL PUSH1 0x20 ADD ADD SWAP1 PUSH20 0xFFFFFFFFFFFFFFFFFFFFFFFFFFFFFFFFFFFFFFFF AND SWAP1 DUP2 PUSH20 0xFFFFFFFFFFFFFFFFFFFFFFFFFFFFFFFFFFFFFFFF AND DUP2 MSTORE POP POP PUSH0 PUSH1 0x2 SLOAD SWAP1 POP PUSH0 JUMPDEST DUP3 MLOAD DUP2 LT ISZERO PUSH2 0x128B JUMPI PUSH1 0x1 DUP4 MLOAD PUSH2 0x10E8 SWAP2 SWAP1 PUSH2 0x1A09 JUMP JUMPDEST DUP2 LT ISZERO PUSH2 0x1165 JUMPI DUP7 DUP7 DUP3 DUP2 DUP2 LT PUSH2 0x1102 JUMPI PUSH2 0x1101 PUSH2 0x1704 JUMP JUMPDEST JUMPDEST SWAP1 POP PUSH1 0x20 MUL ADD PUSH1 0x20 DUP2 ADD SWAP1 PUSH2 0x1117 SWAP2 SWAP1 PUSH2 0x1CA1 JUMP JUMPDEST DUP4 DUP3 DUP2 MLOAD DUP2 LT PUSH2 0x112A JUMPI PUSH2 0x1129 PUSH2 0x1704 JUMP JUMPDEST JUMPDEST PUSH1 0x20 MUL PUSH1 0x20 ADD ADD SWAP1 PUSH20 0xFFFFFFFFFFFFFFFFFFFFFFFFFFFFFFFFFFFFFFFF AND SWAP1 DUP2 PUSH20 0xFFFFFFFFFFFFFFFFFFFFFFFFFFFFFFFFFFFFFFFF AND DUP2 MSTORE POP POP JUMPDEST PUSH1 0x2 PUSH1 0x1 PUSH0 DUP6 DUP5 DUP2 MLOAD DUP2 LT PUSH2 0x117D JUMPI PUSH2 0x117C PUSH2 0x1704 JUMP JUMPDEST JUMPDEST PUSH1 0x20 MUL PUSH1 0x20 ADD ADD MLOAD PUSH20 0xFFFFFFFFFFFFFFFFFFFFFFFFFFFFFFFFFFFFFFFF AND PUSH20 0xFFFFFFFFFFFFFFFFFFFFFFFFFFFFFFFFFFFFFFFF AND DUP2 MSTORE PUSH1 0x20 ADD SWAP1 DUP2 MSTORE PUSH1 0x20 ADD PUSH0 KECCAK256 DUP1 SLOAD SWAP1 POP GT ISZERO PUSH2 0x1203 JUMPI PUSH1 0x40 MLOAD PUSH32 0x8C379A000000000000000000000000000000000000000000000000000000000 DUP2 MSTORE PUSH1 0x4 ADD PUSH2 0x11FA SWAP1 PUSH2 0x1DD1 JUMP JUMPDEST PUSH1 0x40 MLOAD DUP1 SWAP2 SUB SWAP1 REVERT JUMPDEST PUSH1 0x1 PUSH0 DUP5 DUP4 DUP2 MLOAD DUP2 LT PUSH2 0x1219 JUMPI PUSH2 0x1218 PUSH2 0x1704 JUMP JUMPDEST JUMPDEST PUSH1 0x20 MUL PUSH1 0x20 ADD ADD MLOAD PUSH20 0xFFFFFFFFFFFFFFFFFFFFFFFFFFFFFFFFFFFFFFFF AND PUSH20 0xFFFFFFFFFFFFFFFFFFFFFFFFFFFFFFFFFFFFFFFF AND DUP2 MSTORE PUSH1 0x20 ADD SWAP1 DUP2 MSTORE PUSH1 0x20 ADD PUSH0 KECCAK256 DUP3 SWAP1 DUP1 PUSH1 0x1 DUP2 SLOAD ADD DUP1 DUP3 SSTORE DUP1 SWAP2 POP POP PUSH1 0x1 SWAP1 SUB SWAP1 PUSH0 MSTORE PUSH1 0x20 PUSH0 KECCAK256 ADD PUSH0 SWAP1 SWAP2 SWAP1 SWAP2 SWAP1 SWAP2 POP SSTORE DUP1 DUP1 PUSH1 0x1 ADD SWAP2 POP POP PUSH2 0x10D1 JUMP JUMPDEST POP DUP2 PUSH0 DUP1 DUP4 DUP2 MSTORE PUSH1 0x20 ADD SWAP1 DUP2 MSTORE PUSH1 0x20 ADD PUSH0 KECCAK256 PUSH0 ADD SWAP1 DUP1 MLOAD SWAP1 PUSH1 0x20 ADD SWAP1 PUSH2 0x12B2 SWAP3 SWAP2 SWAP1 PUSH2 0x130C JUMP JUMPDEST POP PUSH1 0x2 PUSH0 DUP2 SLOAD DUP1 SWAP3 SWAP2 SWAP1 PUSH2 0x12C5 SWAP1 PUSH2 0x19C2 JUMP JUMPDEST SWAP2 SWAP1 POP SSTORE POP DUP1 PUSH32 0x1DFEA57C7217D8EE2EF44253419F3A05ACDF0E6DEA69F12E9E2AFA2E748E3C8C DUP4 TIMESTAMP PUSH1 0x40 MLOAD PUSH2 0x12FC SWAP3 SWAP2 SWAP1 PUSH2 0x1DEF JUMP JUMPDEST PUSH1 0x40 MLOAD DUP1 SWAP2 SUB SWAP1 LOG2 POP POP POP POP POP POP JUMP JUMPDEST DUP3 DUP1 SLOAD DUP3 DUP3 SSTORE SWAP1 PUSH0 MSTORE PUSH1 0x20 PUSH0 KECCAK256 SWAP1 DUP2 ADD SWAP3 DUP3 ISZERO PUSH2 0x1382 JUMPI SWAP2 PUSH1 0x20 MUL DUP3 ADD JUMPDEST DUP3 DUP2 GT ISZERO PUSH2 0x1381 JUMPI DUP3 MLOAD DUP3 PUSH0 PUSH2 0x100 EXP DUP2 SLOAD DUP2 PUSH20 0xFFFFFFFFFFFFFFFFFFFFFFFFFFFFFFFFFFFFFFFF MUL NOT AND SWAP1 DUP4 PUSH20 0xFFFFFFFFFFFFFFFFFFFFFFFFFFFFFFFFFFFFFFFF AND MUL OR SWAP1 SSTORE POP SWAP2 PUSH1 0x20 ADD SWAP2 SWAP1 PUSH1 0x1 ADD SWAP1 PUSH2 0x132A JUMP JUMPDEST JUMPDEST POP SWAP1 POP PUSH2 0x138F SWAP2 SWAP1 PUSH2 0x1393 JUMP JUMPDEST POP SWAP1 JUMP JUMPDEST JUMPDEST DUP1 DUP3 GT ISZERO PUSH2 0x13AA JUMPI PUSH0 DUP2 PUSH0 SWAP1 SSTORE POP PUSH1 0x1 ADD PUSH2 0x1394 JUMP JUMPDEST POP SWAP1 JUMP JUMPDEST PUSH0 DUP1 REVERT JUMPDEST PUSH0 DUP1 REVERT JUMPDEST PUSH0 DUP2 SWAP1 POP SWAP2 SWAP1 POP JUMP JUMPDEST PUSH2 0x13C8 DUP2 PUSH2 0x13B6 JUMP JUMPDEST DUP2 EQ PUSH2 0x13D2 JUMPI PUSH0 DUP1 REVERT JUMPDEST POP JUMP JUMPDEST PUSH0 DUP2 CALLDATALOAD SWAP1 POP PUSH2 0x13E3 DUP2 PUSH2 0x13BF JUMP JUMPDEST SWAP3 SWAP2 POP POP JUMP JUMPDEST PUSH0 DUP1 PUSH1 0x40 DUP4 DUP6 SUB SLT ISZERO PUSH2 0x13FF JUMPI PUSH2 0x13FE PUSH2 0x13AE JUMP JUMPDEST JUMPDEST PUSH0 PUSH2 0x140C DUP6 DUP3 DUP7 ADD PUSH2 0x13D5 JUMP JUMPDEST SWAP3 POP POP PUSH1 0x20 PUSH2 0x141D DUP6 DUP3 DUP7 ADD PUSH2 0x13D5 JUMP JUMPDEST SWAP2 POP POP SWAP3 POP SWAP3 SWAP1 POP JUMP JUMPDEST PUSH0 PUSH1 0x20 DUP3 DUP5 SUB SLT ISZERO PUSH2 0x143C JUMPI PUSH2 0x143B PUSH2 0x13AE JUMP JUMPDEST JUMPDEST PUSH0 PUSH2 0x1449 DUP5 DUP3 DUP6 ADD PUSH2 0x13D5 JUMP JUMPDEST SWAP2 POP POP SWAP3 SWAP2 POP POP JUMP JUMPDEST PUSH2 0x145B DUP2 PUSH2 0x13B6 JUMP JUMPDEST DUP3 MSTORE POP POP JUMP JUMPDEST PUSH0 PUSH1 0x20 DUP3 ADD SWAP1 POP PUSH2 0x1474 PUSH0 DUP4 ADD DUP5 PUSH2 0x1452 JUMP JUMPDEST SWAP3 SWAP2 POP POP JUMP JUMPDEST PUSH0 DUP2 MLOAD SWAP1 POP SWAP2 SWAP1 POP JUMP JUMPDEST PUSH0 DUP3 DUP3 MSTORE PUSH1 0x20 DUP3 ADD SWAP1 POP SWAP3 SWAP2 POP POP JUMP JUMPDEST PUSH0 DUP2 SWAP1 POP PUSH1 0x20 DUP3 ADD SWAP1 POP SWAP2 SWAP1 POP JUMP JUMPDEST PUSH2 0x14AC DUP2 PUSH2 0x13B6 JUMP JUMPDEST DUP3 MSTORE POP POP JUMP JUMPDEST PUSH0 PUSH2 0x14BD DUP4 DUP4 PUSH2 0x14A3 JUMP JUMPDEST PUSH1 0x20 DUP4 ADD SWAP1 POP SWAP3 SWAP2 POP POP JUMP JUMPDEST PUSH0 PUSH1 0x20 DUP3 ADD SWAP1 POP SWAP2 SWAP1 POP JUMP JUMPDEST PUSH0 PUSH2 0x14DF DUP3 PUSH2 0x147A JUMP JUMPDEST PUSH2 0x14E9 DUP2 DUP6 PUSH2 0x1484 JUMP JUMPDEST SWAP4 POP PUSH2 0x14F4 DUP4 PUSH2 0x1494 JUMP JUMPDEST DUP1 PUSH0 JUMPDEST DUP4 DUP2 LT ISZERO PUSH2 0x1524 JUMPI DUP2 MLOAD PUSH2 0x150B DUP9 DUP3 PUSH2 0x14B2 JUMP JUMPDEST SWAP8 POP PUSH2 0x1516 DUP4 PUSH2 0x14C9 JUMP JUMPDEST SWAP3 POP POP PUSH1 0x1 DUP2 ADD SWAP1 POP PUSH2 0x14F7 JUMP JUMPDEST POP DUP6 SWAP4 POP POP POP POP SWAP3 SWAP2 POP POP JUMP JUMPDEST PUSH0 PUSH1 0x20 DUP3 ADD SWAP1 POP DUP2 DUP2 SUB PUSH0 DUP4 ADD MSTORE PUSH2 0x1549 DUP2 DUP5 PUSH2 0x14D5 JUMP JUMPDEST SWAP1 POP SWAP3 SWAP2 POP POP JUMP JUMPDEST PUSH0 DUP2 MLOAD SWAP1 POP SWAP2 SWAP1 POP JUMP JUMPDEST PUSH0 DUP3 DUP3 MSTORE PUSH1 0x20 DUP3 ADD SWAP1 POP SWAP3 SWAP2 POP POP JUMP JUMPDEST PUSH0 DUP2 SWAP1 POP PUSH1 0x20 DUP3 ADD SWAP1 POP SWAP2 SWAP1 POP JUMP JUMPDEST PUSH0 PUSH20 0xFFFFFFFFFFFFFFFFFFFFFFFFFFFFFFFFFFFFFFFF DUP3 AND SWAP1 POP SWAP2 SWAP1 POP JUMP JUMPDEST PUSH0 PUSH2 0x15A3 DUP3 PUSH2 0x157A JUMP JUMPDEST SWAP1 POP SWAP2 SWAP1 POP JUMP JUMPDEST PUSH2 0x15B3 DUP2 PUSH2 0x1599 JUMP JUMPDEST DUP3 MSTORE POP POP JUMP JUMPDEST PUSH0 PUSH2 0x15C4 DUP4 DUP4 PUSH2 0x15AA JUMP JUMPDEST PUSH1 0x20 DUP4 ADD SWAP1 POP SWAP3 SWAP2 POP POP JUMP JUMPDEST PUSH0 PUSH1 0x20 DUP3 ADD SWAP1 POP SWAP2 SWAP1 POP JUMP JUMPDEST PUSH0 PUSH2 0x15E6 DUP3 PUSH2 0x1551 JUMP JUMPDEST PUSH2 0x15F0 DUP2 DUP6 PUSH2 0x155B JUMP JUMPDEST SWAP4 POP PUSH2 0x15FB DUP4 PUSH2 0x156B JUMP JUMPDEST DUP1 PUSH0 JUMPDEST DUP4 DUP2 LT ISZERO PUSH2 0x162B JUMPI DUP2 MLOAD PUSH2 0x1612 DUP9 DUP3 PUSH2 0x15B9 JUMP JUMPDEST SWAP8 POP PUSH2 0x161D DUP4 PUSH2 0x15D0 JUMP JUMPDEST SWAP3 POP POP PUSH1 0x1 DUP2 ADD SWAP1 POP PUSH2 0x15FE JUMP JUMPDEST POP DUP6 SWAP4 POP POP POP POP SWAP3 SWAP2 POP POP JUMP JUMPDEST PUSH0 PUSH1 0x20 DUP3 ADD SWAP1 POP DUP2 DUP2 SUB PUSH0 DUP4 ADD MSTORE PUSH2 0x1650 DUP2 DUP5 PUSH2 0x15DC JUMP JUMPDEST SWAP1 POP SWAP3 SWAP2 POP POP JUMP JUMPDEST PUSH0 DUP1 REVERT JUMPDEST PUSH0 DUP1 REVERT JUMPDEST PUSH0 DUP1 REVERT JUMPDEST PUSH0 DUP1 DUP4 PUSH1 0x1F DUP5 ADD SLT PUSH2 0x1679 JUMPI PUSH2 0x1678 PUSH2 0x1658 JUMP JUMPDEST JUMPDEST DUP3 CALLDATALOAD SWAP1 POP PUSH8 0xFFFFFFFFFFFFFFFF DUP2 GT ISZERO PUSH2 0x1696 JUMPI PUSH2 0x1695 PUSH2 0x165C JUMP JUMPDEST JUMPDEST PUSH1 0x20 DUP4 ADD SWAP2 POP DUP4 PUSH1 0x20 DUP3 MUL DUP4 ADD GT ISZERO PUSH2 0x16B2 JUMPI PUSH2 0x16B1 PUSH2 0x1660 JUMP JUMPDEST JUMPDEST SWAP3 POP SWAP3 SWAP1 POP JUMP JUMPDEST PUSH0 DUP1 PUSH1 0x20 DUP4 DUP6 SUB SLT ISZERO PUSH2 0x16CF JUMPI PUSH2 0x16CE PUSH2 0x13AE JUMP JUMPDEST JUMPDEST PUSH0 DUP4 ADD CALLDATALOAD PUSH8 0xFFFFFFFFFFFFFFFF DUP2 GT ISZERO PUSH2 0x16EC JUMPI PUSH2 0x16EB PUSH2 0x13B2 JUMP JUMPDEST JUMPDEST PUSH2 0x16F8 DUP6 DUP3 DUP7 ADD PUSH2 0x1664 JUMP JUMPDEST SWAP3 POP SWAP3 POP POP SWAP3 POP SWAP3 SWAP1 POP JUMP JUMPDEST PUSH32 0x4E487B7100000000000000000000000000000000000000000000000000000000 PUSH0 MSTORE PUSH1 0x32 PUSH1 0x4 MSTORE PUSH1 0x24 PUSH0 REVERT JUMPDEST PUSH0 DUP3 DUP3 MSTORE PUSH1 0x20 DUP3 ADD SWAP1 POP SWAP3 SWAP2 POP POP JUMP JUMPDEST PUSH32 0x796F7520617265206E6F7420616E206F776E6572206F66207468697320616363 PUSH0 DUP3 ADD MSTORE PUSH32 0x6F756E7400000000000000000000000000000000000000000000000000000000 PUSH1 0x20 DUP3 ADD MSTORE POP JUMP JUMPDEST PUSH0 PUSH2 0x179B PUSH1 0x24 DUP4 PUSH2 0x1731 JUMP JUMPDEST SWAP2 POP PUSH2 0x17A6 DUP3 PUSH2 0x1741 JUMP JUMPDEST PUSH1 0x40 DUP3 ADD SWAP1 POP SWAP2 SWAP1 POP JUMP JUMPDEST PUSH0 PUSH1 0x20 DUP3 ADD SWAP1 POP DUP2 DUP2 SUB PUSH0 DUP4 ADD MSTORE PUSH2 0x17C8 DUP2 PUSH2 0x178F JUMP JUMPDEST SWAP1 POP SWAP2 SWAP1 POP JUMP JUMPDEST PUSH32 0x74686973207265717565737420697320616C726561647920617070726F766564 PUSH0 DUP3 ADD MSTORE POP JUMP JUMPDEST PUSH0 PUSH2 0x1803 PUSH1 0x20 DUP4 PUSH2 0x1731 JUMP JUMPDEST SWAP2 POP PUSH2 0x180E DUP3 PUSH2 0x17CF JUMP JUMPDEST PUSH1 0x20 DUP3 ADD SWAP1 POP SWAP2 SWAP1 POP JUMP JUMPDEST PUSH0 PUSH1 0x20 DUP3 ADD SWAP1 POP DUP2 DUP2 SUB PUSH0 DUP4 ADD MSTORE PUSH2 0x1830 DUP2 PUSH2 0x17F7 JUMP JUMPDEST SWAP1 POP SWAP2 SWAP1 POP JUMP JUMPDEST PUSH32 0x796F752063616E6E6F7420617070726F76652074686973207265717565737400 PUSH0 DUP3 ADD MSTORE POP JUMP JUMPDEST PUSH0 PUSH2 0x186B PUSH1 0x1F DUP4 PUSH2 0x1731 JUMP JUMPDEST SWAP2 POP PUSH2 0x1876 DUP3 PUSH2 0x1837 JUMP JUMPDEST PUSH1 0x20 DUP3 ADD SWAP1 POP SWAP2 SWAP1 POP JUMP JUMPDEST PUSH0 PUSH1 0x20 DUP3 ADD SWAP1 POP DUP2 DUP2 SUB PUSH0 DUP4 ADD MSTORE PUSH2 0x1898 DUP2 PUSH2 0x185F JUMP JUMPDEST SWAP1 POP SWAP2 SWAP1 POP JUMP JUMPDEST PUSH32 0x74686973207265717565737420646F6573206E6F742065786973740000000000 PUSH0 DUP3 ADD MSTORE POP JUMP JUMPDEST PUSH0 PUSH2 0x18D3 PUSH1 0x1B DUP4 PUSH2 0x1731 JUMP JUMPDEST SWAP2 POP PUSH2 0x18DE DUP3 PUSH2 0x189F JUMP JUMPDEST PUSH1 0x20 DUP3 ADD SWAP1 POP SWAP2 SWAP1 POP JUMP JUMPDEST PUSH0 PUSH1 0x20 DUP3 ADD SWAP1 POP DUP2 DUP2 SUB PUSH0 DUP4 ADD MSTORE PUSH2 0x1900 DUP2 PUSH2 0x18C7 JUMP JUMPDEST SWAP1 POP SWAP2 SWAP1 POP JUMP JUMPDEST PUSH32 0x796F75206861766520616C726561647920617070726F76656420746869732072 PUSH0 DUP3 ADD MSTORE PUSH32 0x6571756573740000000000000000000000000000000000000000000000000000 PUSH1 0x20 DUP3 ADD MSTORE POP JUMP JUMPDEST PUSH0 PUSH2 0x1961 PUSH1 0x26 DUP4 PUSH2 0x1731 JUMP JUMPDEST SWAP2 POP PUSH2 0x196C DUP3 PUSH2 0x1907 JUMP JUMPDEST PUSH1 0x40 DUP3 ADD SWAP1 POP SWAP2 SWAP1 POP JUMP JUMPDEST PUSH0 PUSH1 0x20 DUP3 ADD SWAP1 POP DUP2 DUP2 SUB PUSH0 DUP4 ADD MSTORE PUSH2 0x198E DUP2 PUSH2 0x1955 JUMP JUMPDEST SWAP1 POP SWAP2 SWAP1 POP JUMP JUMPDEST PUSH32 0x4E487B7100000000000000000000000000000000000000000000000000000000 PUSH0 MSTORE PUSH1 0x11 PUSH1 0x4 MSTORE PUSH1 0x24 PUSH0 REVERT JUMPDEST PUSH0 PUSH2 0x19CC DUP3 PUSH2 0x13B6 JUMP JUMPDEST SWAP2 POP PUSH32 0xFFFFFFFFFFFFFFFFFFFFFFFFFFFFFFFFFFFFFFFFFFFFFFFFFFFFFFFFFFFFFFFF DUP3 SUB PUSH2 0x19FE JUMPI PUSH2 0x19FD PUSH2 0x1995 JUMP JUMPDEST JUMPDEST PUSH1 0x1 DUP3 ADD SWAP1 POP SWAP2 SWAP1 POP JUMP JUMPDEST PUSH0 PUSH2 0x1A13 DUP3 PUSH2 0x13B6 JUMP JUMPDEST SWAP2 POP PUSH2 0x1A1E DUP4 PUSH2 0x13B6 JUMP JUMPDEST SWAP3 POP DUP3 DUP3 SUB SWAP1 POP DUP2 DUP2 GT ISZERO PUSH2 0x1A36 JUMPI PUSH2 0x1A35 PUSH2 0x1995 JUMP JUMPDEST JUMPDEST SWAP3 SWAP2 POP POP JUMP JUMPDEST PUSH32 0x796F7520646964206E6F74206372656174652074686973207265717565737400 PUSH0 DUP3 ADD MSTORE POP JUMP JUMPDEST PUSH0 PUSH2 0x1A70 PUSH1 0x1F DUP4 PUSH2 0x1731 JUMP JUMPDEST SWAP2 POP PUSH2 0x1A7B DUP3 PUSH2 0x1A3C JUMP JUMPDEST PUSH1 0x20 DUP3 ADD SWAP1 POP SWAP2 SWAP1 POP JUMP JUMPDEST PUSH0 PUSH1 0x20 DUP3 ADD SWAP1 POP DUP2 DUP2 SUB PUSH0 DUP4 ADD MSTORE PUSH2 0x1A9D DUP2 PUSH2 0x1A64 JUMP JUMPDEST SWAP1 POP SWAP2 SWAP1 POP JUMP JUMPDEST PUSH32 0x746869732072657175657374206973206E6F7420617070726F76656400000000 PUSH0 DUP3 ADD MSTORE POP JUMP JUMPDEST PUSH0 PUSH2 0x1AD8 PUSH1 0x1C DUP4 PUSH2 0x1731 JUMP JUMPDEST SWAP2 POP PUSH2 0x1AE3 DUP3 PUSH2 0x1AA4 JUMP JUMPDEST PUSH1 0x20 DUP3 ADD SWAP1 POP SWAP2 SWAP1 POP JUMP JUMPDEST PUSH0 PUSH1 0x20 DUP3 ADD SWAP1 POP DUP2 DUP2 SUB PUSH0 DUP4 ADD MSTORE PUSH2 0x1B05 DUP2 PUSH2 0x1ACC JUMP JUMPDEST SWAP1 POP SWAP2 SWAP1 POP JUMP JUMPDEST PUSH32 0x696E73756666696369656E742062616C616E6365000000000000000000000000 PUSH0 DUP3 ADD MSTORE POP JUMP JUMPDEST PUSH0 PUSH2 0x1B40 PUSH1 0x14 DUP4 PUSH2 0x1731 JUMP JUMPDEST SWAP2 POP PUSH2 0x1B4B DUP3 PUSH2 0x1B0C JUMP JUMPDEST PUSH1 0x20 DUP3 ADD SWAP1 POP SWAP2 SWAP1 POP JUMP JUMPDEST PUSH0 PUSH1 0x20 DUP3 ADD SWAP1 POP DUP2 DUP2 SUB PUSH0 DUP4 ADD MSTORE PUSH2 0x1B6D DUP2 PUSH2 0x1B34 JUMP JUMPDEST SWAP1 POP SWAP2 SWAP1 POP JUMP JUMPDEST PUSH0 DUP2 SWAP1 POP SWAP3 SWAP2 POP POP JUMP JUMPDEST POP JUMP JUMPDEST PUSH0 PUSH2 0x1B8C PUSH0 DUP4 PUSH2 0x1B74 JUMP JUMPDEST SWAP2 POP PUSH2 0x1B97 DUP3 PUSH2 0x1B7E JUMP JUMPDEST PUSH0 DUP3 ADD SWAP1 POP SWAP2 SWAP1 POP JUMP JUMPDEST PUSH0 PUSH2 0x1BAB DUP3 PUSH2 0x1B81 JUMP JUMPDEST SWAP2 POP DUP2 SWAP1 POP SWAP2 SWAP1 POP JUMP JUMPDEST PUSH0 PUSH1 0x40 DUP3 ADD SWAP1 POP PUSH2 0x1BC8 PUSH0 DUP4 ADD DUP6 PUSH2 0x1452 JUMP JUMPDEST PUSH2 0x1BD5 PUSH1 0x20 DUP4 ADD DUP5 PUSH2 0x1452 JUMP JUMPDEST SWAP4 SWAP3 POP POP POP JUMP JUMPDEST PUSH0 PUSH2 0x1BE6 DUP3 PUSH2 0x13B6 JUMP JUMPDEST SWAP2 POP PUSH2 0x1BF1 DUP4 PUSH2 0x13B6 JUMP JUMPDEST SWAP3 POP DUP3 DUP3 ADD SWAP1 POP DUP1 DUP3 GT ISZERO PUSH2 0x1C09 JUMPI PUSH2 0x1C08 PUSH2 0x1995 JUMP JUMPDEST JUMPDEST SWAP3 SWAP2 POP POP JUMP JUMPDEST PUSH32 0x6D6178696D756D206F662034206F776E65727320706572206163636F756E7400 PUSH0 DUP3 ADD MSTORE POP JUMP JUMPDEST PUSH0 PUSH2 0x1C43 PUSH1 0x1F DUP4 PUSH2 0x1731 JUMP JUMPDEST SWAP2 POP PUSH2 0x1C4E DUP3 PUSH2 0x1C0F JUMP JUMPDEST PUSH1 0x20 DUP3 ADD SWAP1 POP SWAP2 SWAP1 POP JUMP JUMPDEST PUSH0 PUSH1 0x20 DUP3 ADD SWAP1 POP DUP2 DUP2 SUB PUSH0 DUP4 ADD MSTORE PUSH2 0x1C70 DUP2 PUSH2 0x1C37 JUMP JUMPDEST SWAP1 POP SWAP2 SWAP1 POP JUMP JUMPDEST PUSH2 0x1C80 DUP2 PUSH2 0x1599 JUMP JUMPDEST DUP2 EQ PUSH2 0x1C8A JUMPI PUSH0 DUP1 REVERT JUMPDEST POP JUMP JUMPDEST PUSH0 DUP2 CALLDATALOAD SWAP1 POP PUSH2 0x1C9B DUP2 PUSH2 0x1C77 JUMP JUMPDEST SWAP3 SWAP2 POP POP JUMP JUMPDEST PUSH0 PUSH1 0x20 DUP3 DUP5 SUB SLT ISZERO PUSH2 0x1CB6 JUMPI PUSH2 0x1CB5 PUSH2 0x13AE JUMP JUMPDEST JUMPDEST PUSH0 PUSH2 0x1CC3 DUP5 DUP3 DUP6 ADD PUSH2 0x1C8D JUMP JUMPDEST SWAP2 POP POP SWAP3 SWAP2 POP POP JUMP JUMPDEST PUSH32 0x6E6F206475706C6963617465206F776E65727300000000000000000000000000 PUSH0 DUP3 ADD MSTORE POP JUMP JUMPDEST PUSH0 PUSH2 0x1D00 PUSH1 0x13 DUP4 PUSH2 0x1731 JUMP JUMPDEST SWAP2 POP PUSH2 0x1D0B DUP3 PUSH2 0x1CCC JUMP JUMPDEST PUSH1 0x20 DUP3 ADD SWAP1 POP SWAP2 SWAP1 POP JUMP JUMPDEST PUSH0 PUSH1 0x20 DUP3 ADD SWAP1 POP DUP2 DUP2 SUB PUSH0 DUP4 ADD MSTORE PUSH2 0x1D2D DUP2 PUSH2 0x1CF4 JUMP JUMPDEST SWAP1 POP SWAP2 SWAP1 POP JUMP JUMPDEST PUSH32 0x4E487B7100000000000000000000000000000000000000000000000000000000 PUSH0 MSTORE PUSH1 0x41 PUSH1 0x4 MSTORE PUSH1 0x24 PUSH0 REVERT JUMPDEST PUSH32 0x6561636820757365722063616E20686176652061206D6178206F662033206163 PUSH0 DUP3 ADD MSTORE PUSH32 0x636F756E74730000000000000000000000000000000000000000000000000000 PUSH1 0x20 DUP3 ADD MSTORE POP JUMP JUMPDEST PUSH0 PUSH2 0x1DBB PUSH1 0x26 DUP4 PUSH2 0x1731 JUMP JUMPDEST SWAP2 POP PUSH2 0x1DC6 DUP3 PUSH2 0x1D61 JUMP JUMPDEST PUSH1 0x40 DUP3 ADD SWAP1 POP SWAP2 SWAP1 POP JUMP JUMPDEST PUSH0 PUSH1 0x20 DUP3 ADD SWAP1 POP DUP2 DUP2 SUB PUSH0 DUP4 ADD MSTORE PUSH2 0x1DE8 DUP2 PUSH2 0x1DAF JUMP JUMPDEST SWAP1 POP SWAP2 SWAP1 POP JUMP JUMPDEST PUSH0 PUSH1 0x40 DUP3 ADD SWAP1 POP DUP2 DUP2 SUB PUSH0 DUP4 ADD MSTORE PUSH2 0x1E07 DUP2 DUP6 PUSH2 0x15DC JUMP JUMPDEST SWAP1 POP PUSH2 0x1E16 PUSH1 0x20 DUP4 ADD DUP5 PUSH2 0x1452 JUMP JUMPDEST SWAP4 SWAP3 POP POP POP JUMP INVALID LOG2 PUSH5 0x6970667358 0x22 SLT KECCAK256 0xC PUSH31 0xEFA72EDDBFA16BE1ED293442B92D32D4734CDE4FFCCF558FAACBAF018EC164 PUSH20 0x6F6C634300081A00330000000000000000000000 "
				},
				"gasEstimates": {
					"creation": {
						"codeDepositCost": "1552600",
						"executionCost": "1622",
						"totalCost": "1554222"
					},
					"external": {
						"approveWithdrawal(uint256,uint256)": "infinite",
						"createAccount(address[])": "infinite",
						"deposit(uint256)": "infinite",
						"getAccounts()": "infinite",
						"getApprovals(uint256,uint256)": "infinite",
						"getBalance(uint256)": "infinite",
						"getOwners(uint256)": "infinite",
						"requestWithdrawal(uint256,uint256)": "infinite",
						"withdraw(uint256,uint256)": "infinite"
					}
				},
				"methodIdentifiers": {
					"approveWithdrawal(uint256,uint256)": "1a0bd42b",
					"createAccount(address[])": "eff63433",
					"deposit(uint256)": "b6b55f25",
					"getAccounts()": "8a48ac03",
					"getApprovals(uint256,uint256)": "867275a5",
					"getBalance(uint256)": "1e010439",
					"getOwners(uint256)": "ee4525d5",
					"requestWithdrawal(uint256,uint256)": "ae2ebd7f",
					"withdraw(uint256,uint256)": "441a3e70"
				}
			},
			"storageLayout": {
				"storage": [
					{
						"astId": 67,
						"contract": "contracts/BankAccount.sol:BankAccount",
						"label": "accounts",
						"offset": 0,
						"slot": "0",
						"type": "t_mapping(t_uint256,t_struct(Account)62_storage)"
					},
					{
						"astId": 72,
						"contract": "contracts/BankAccount.sol:BankAccount",
						"label": "userAccounts",
						"offset": 0,
						"slot": "1",
						"type": "t_mapping(t_address,t_array(t_uint256)dyn_storage)"
					},
					{
						"astId": 74,
						"contract": "contracts/BankAccount.sol:BankAccount",
						"label": "nextAccountId",
						"offset": 0,
						"slot": "2",
						"type": "t_uint256"
					},
					{
						"astId": 76,
						"contract": "contracts/BankAccount.sol:BankAccount",
						"label": "nextWithdrawId",
						"offset": 0,
						"slot": "3",
						"type": "t_uint256"
					}
				],
				"types": {
					"t_address": {
						"encoding": "inplace",
						"label": "address",
						"numberOfBytes": "20"
					},
					"t_array(t_address)dyn_storage": {
						"base": "t_address",
						"encoding": "dynamic_array",
						"label": "address[]",
						"numberOfBytes": "32"
					},
					"t_array(t_uint256)dyn_storage": {
						"base": "t_uint256",
						"encoding": "dynamic_array",
						"label": "uint256[]",
						"numberOfBytes": "32"
					},
					"t_bool": {
						"encoding": "inplace",
						"label": "bool",
						"numberOfBytes": "1"
					},
					"t_mapping(t_address,t_array(t_uint256)dyn_storage)": {
						"encoding": "mapping",
						"key": "t_address",
						"label": "mapping(address => uint256[])",
						"numberOfBytes": "32",
						"value": "t_array(t_uint256)dyn_storage"
					},
					"t_mapping(t_address,t_bool)": {
						"encoding": "mapping",
						"key": "t_address",
						"label": "mapping(address => bool)",
						"numberOfBytes": "32",
						"value": "t_bool"
					},
					"t_mapping(t_uint256,t_struct(Account)62_storage)": {
						"encoding": "mapping",
						"key": "t_uint256",
						"label": "mapping(uint256 => struct BankAccount.Account)",
						"numberOfBytes": "32",
						"value": "t_struct(Account)62_storage"
					},
					"t_mapping(t_uint256,t_struct(WithdrawRequest)51_storage)": {
						"encoding": "mapping",
						"key": "t_uint256",
						"label": "mapping(uint256 => struct BankAccount.WithdrawRequest)",
						"numberOfBytes": "32",
						"value": "t_struct(WithdrawRequest)51_storage"
					},
					"t_struct(Account)62_storage": {
						"encoding": "inplace",
						"label": "struct BankAccount.Account",
						"members": [
							{
								"astId": 54,
								"contract": "contracts/BankAccount.sol:BankAccount",
								"label": "owners",
								"offset": 0,
								"slot": "0",
								"type": "t_array(t_address)dyn_storage"
							},
							{
								"astId": 56,
								"contract": "contracts/BankAccount.sol:BankAccount",
								"label": "balance",
								"offset": 0,
								"slot": "1",
								"type": "t_uint256"
							},
							{
								"astId": 61,
								"contract": "contracts/BankAccount.sol:BankAccount",
								"label": "withdrawRequests",
								"offset": 0,
								"slot": "2",
								"type": "t_mapping(t_uint256,t_struct(WithdrawRequest)51_storage)"
							}
						],
						"numberOfBytes": "96"
					},
					"t_struct(WithdrawRequest)51_storage": {
						"encoding": "inplace",
						"label": "struct BankAccount.WithdrawRequest",
						"members": [
							{
								"astId": 40,
								"contract": "contracts/BankAccount.sol:BankAccount",
								"label": "user",
								"offset": 0,
								"slot": "0",
								"type": "t_address"
							},
							{
								"astId": 42,
								"contract": "contracts/BankAccount.sol:BankAccount",
								"label": "amount",
								"offset": 0,
								"slot": "1",
								"type": "t_uint256"
							},
							{
								"astId": 44,
								"contract": "contracts/BankAccount.sol:BankAccount",
								"label": "approvals",
								"offset": 0,
								"slot": "2",
								"type": "t_uint256"
							},
							{
								"astId": 48,
								"contract": "contracts/BankAccount.sol:BankAccount",
								"label": "ownersApproved",
								"offset": 0,
								"slot": "3",
								"type": "t_mapping(t_address,t_bool)"
							},
							{
								"astId": 50,
								"contract": "contracts/BankAccount.sol:BankAccount",
								"label": "approved",
								"offset": 0,
								"slot": "4",
								"type": "t_bool"
							}
						],
						"numberOfBytes": "160"
					},
					"t_uint256": {
						"encoding": "inplace",
						"label": "uint256",
						"numberOfBytes": "32"
					}
				}
			},
			"userdoc": {
				"kind": "user",
				"methods": {},
				"version": 1
			}
		}
	}
}